{"contracts/SimpleSwap.sol":{"SimpleSwap":{"abi":[{"inputs":[{"internalType":"address","name":"_tokenA","type":"address"},{"internalType":"address","name":"_tokenB","type":"address"}],"stateMutability":"nonpayable","type":"constructor"},{"anonymous":false,"inputs":[{"indexed":true,"internalType":"address","name":"provider","type":"address"},{"indexed":true,"internalType":"address","name":"to","type":"address"},{"indexed":false,"internalType":"uint256","name":"amountA","type":"uint256"},{"indexed":false,"internalType":"uint256","name":"amountB","type":"uint256"},{"indexed":false,"internalType":"uint256","name":"liquidity","type":"uint256"}],"name":"LiquidityAdded","type":"event"},{"anonymous":false,"inputs":[{"indexed":true,"internalType":"address","name":"provider","type":"address"},{"indexed":true,"internalType":"address","name":"to","type":"address"},{"indexed":false,"internalType":"uint256","name":"amountA","type":"uint256"},{"indexed":false,"internalType":"uint256","name":"amountB","type":"uint256"},{"indexed":false,"internalType":"uint256","name":"liquidity","type":"uint256"}],"name":"LiquidityRemoved","type":"event"},{"anonymous":false,"inputs":[{"indexed":true,"internalType":"address","name":"user","type":"address"},{"indexed":false,"internalType":"address","name":"tokenIn","type":"address"},{"indexed":false,"internalType":"address","name":"tokenOut","type":"address"},{"indexed":false,"internalType":"uint256","name":"amountIn","type":"uint256"},{"indexed":false,"internalType":"uint256","name":"amountOut","type":"uint256"}],"name":"Swap","type":"event"},{"inputs":[{"internalType":"address","name":"_tokenA","type":"address"},{"internalType":"address","name":"_tokenB","type":"address"},{"internalType":"uint256","name":"amountADesired","type":"uint256"},{"internalType":"uint256","name":"amountBDesired","type":"uint256"},{"internalType":"uint256","name":"amountAMin","type":"uint256"},{"internalType":"uint256","name":"amountBMin","type":"uint256"},{"internalType":"address","name":"to","type":"address"},{"internalType":"uint256","name":"deadline","type":"uint256"}],"name":"addLiquidity","outputs":[{"internalType":"uint256","name":"amountA","type":"uint256"},{"internalType":"uint256","name":"amountB","type":"uint256"},{"internalType":"uint256","name":"liquidity","type":"uint256"}],"stateMutability":"nonpayable","type":"function"},{"inputs":[{"internalType":"uint256","name":"amountIn","type":"uint256"},{"internalType":"uint256","name":"reserveIn","type":"uint256"},{"internalType":"uint256","name":"reserveOut","type":"uint256"}],"name":"getAmountOut","outputs":[{"internalType":"uint256","name":"amountOut","type":"uint256"}],"stateMutability":"pure","type":"function"},{"inputs":[{"internalType":"address","name":"_tokenA","type":"address"},{"internalType":"address","name":"_tokenB","type":"address"}],"name":"getPrice","outputs":[{"internalType":"uint256","name":"price","type":"uint256"}],"stateMutability":"view","type":"function"},{"inputs":[{"internalType":"address","name":"","type":"address"}],"name":"liquidityBalance","outputs":[{"internalType":"uint256","name":"","type":"uint256"}],"stateMutability":"view","type":"function"},{"inputs":[{"internalType":"address","name":"_tokenA","type":"address"},{"internalType":"address","name":"_tokenB","type":"address"},{"internalType":"uint256","name":"liquidity","type":"uint256"},{"internalType":"uint256","name":"amountAMin","type":"uint256"},{"internalType":"uint256","name":"amountBMin","type":"uint256"},{"internalType":"address","name":"to","type":"address"},{"internalType":"uint256","name":"deadline","type":"uint256"}],"name":"removeLiquidity","outputs":[{"internalType":"uint256","name":"amountA","type":"uint256"},{"internalType":"uint256","name":"amountB","type":"uint256"}],"stateMutability":"nonpayable","type":"function"},{"inputs":[],"name":"reserveA","outputs":[{"internalType":"uint256","name":"","type":"uint256"}],"stateMutability":"view","type":"function"},{"inputs":[],"name":"reserveB","outputs":[{"internalType":"uint256","name":"","type":"uint256"}],"stateMutability":"view","type":"function"},{"inputs":[{"internalType":"uint256","name":"y","type":"uint256"}],"name":"sqrt","outputs":[{"internalType":"uint256","name":"z","type":"uint256"}],"stateMutability":"pure","type":"function"},{"inputs":[{"internalType":"uint256","name":"amountIn","type":"uint256"},{"internalType":"uint256","name":"amountOutMin","type":"uint256"},{"internalType":"address[]","name":"path","type":"address[]"},{"internalType":"address","name":"to","type":"address"},{"internalType":"uint256","name":"deadline","type":"uint256"}],"name":"swapExactTokensForTokens","outputs":[{"internalType":"uint256[]","name":"amounts","type":"uint256[]"}],"stateMutability":"nonpayable","type":"function"},{"inputs":[],"name":"tokenA","outputs":[{"internalType":"address","name":"","type":"address"}],"stateMutability":"view","type":"function"},{"inputs":[],"name":"tokenB","outputs":[{"internalType":"address","name":"","type":"address"}],"stateMutability":"view","type":"function"},{"inputs":[],"name":"totalLiquidity","outputs":[{"internalType":"uint256","name":"","type":"uint256"}],"stateMutability":"view","type":"function"}],"evm":{"bytecode":{"linkReferences":{},"object":"60c06040523480156200001157600080fd5b506040516200360138038062003601833981810160405281019062000037919062000168565b6200005367b0ed396e50cc80ff60c01b620000fb60201b60201c565b6200006f673453c261d38baa1c60c01b620000fb60201b60201c565b8173ffffffffffffffffffffffffffffffffffffffff1660808173ffffffffffffffffffffffffffffffffffffffff1681525050620000bf670cd347e6ad8fa74560c01b620000fb60201b60201c565b8073ffffffffffffffffffffffffffffffffffffffff1660a08173ffffffffffffffffffffffffffffffffffffffff16815250505050620001af565b50565b600080fd5b600073ffffffffffffffffffffffffffffffffffffffff82169050919050565b6000620001308262000103565b9050919050565b620001428162000123565b81146200014e57600080fd5b50565b600081519050620001628162000137565b92915050565b60008060408385031215620001825762000181620000fe565b5b6000620001928582860162000151565b9250506020620001a58582860162000151565b9150509250929050565b60805160a0516133bc62000245600039600081816106b00152818161074a01528181611003015281816112b80152818161157801528181611ac601528181611d610152611fa901526000818161048701528181610632015281816107c8015281816109cd01528181610ba20152818161126201528181611522015281816119ff01528181611d0b0152611ee001526133bc6000f3fe608060405234801561001057600080fd5b50600436106100b45760003560e01c8063677342ce11610071578063677342ce14610191578063ac41865a146101c1578063baa2abde146101f1578063dc5fa6c514610222578063dd29648014610240578063e8e3370014610270576100b4565b8063054d50d4146100b95780630fc63d10146100e957806315770f921461010757806319e36f3b1461012557806338ed1739146101435780635f64b55b14610173575b600080fd5b6100d360048036038101906100ce9190612766565b6102a2565b6040516100e091906127c8565b60405180910390f35b6100f1610485565b6040516100fe9190612824565b60405180910390f35b61010f6104a9565b60405161011c91906127c8565b60405180910390f35b61012d6104af565b60405161013a91906127c8565b60405180910390f35b61015d600480360381019061015891906128d0565b6104b5565b60405161016a9190612a28565b60405180910390f35b61017b611001565b6040516101889190612824565b60405180910390f35b6101ab60048036038101906101a69190612a4a565b611025565b6040516101b891906127c8565b60405180910390f35b6101db60048036038101906101d69190612a77565b61120e565b6040516101e891906127c8565b60405180910390f35b61020b60048036038101906102069190612ab7565b61143a565b604051610219929190612b59565b60405180910390f35b61022a611c03565b60405161023791906127c8565b60405180910390f35b61025a60048036038101906102559190612b82565b611c09565b60405161026791906127c8565b60405180910390f35b61028a60048036038101906102859190612baf565b611c21565b60405161029993929190612c65565b60405180910390f35b60006102b8672668b37bcf6e8a2060c01b6123fe565b6102cc67c3fcaddda3247ea960c01b6123fe565b6102e067bb6e8fafa4330f1d60c01b6123fe565b6102f467e5080715f3f05cc960c01b6123fe565b60008411610337576040517f08c379a000000000000000000000000000000000000000000000000000000000815260040161032e90612cf9565b60405180910390fd5b61034b6781cbf4146b99a89760c01b6123fe565b61035f672d5c6175f959f8c360c01b6123fe565b61037367ef1345a7d8119c6060c01b6123fe565b61038767ee261ca1542f8cb360c01b6123fe565b6000831180156103975750600082115b6103d6576040517f08c379a00000000000000000000000000000000000000000000000000000000081526004016103cd90612d65565b60405180910390fd5b6103ea67134788682542a83f60c01b6123fe565b6103fe67efe06ef532bbf5a360c01b6123fe565b61041267e863bc742b9caad860c01b6123fe565b600082856104209190612db4565b905061043667222ac82b1c4f225160c01b6123fe565b61044a67fe9860220ebe621e60c01b6123fe565b600085856104589190612df6565b905061046e677caf38d5646a59dd60c01b6123fe565b808261047a9190612e59565b925050509392505050565b7f000000000000000000000000000000000000000000000000000000000000000081565b60025481565b60015481565b60606104cb6716ddfaf4b2612ad660c01b6123fe565b6104df676efe02be05b67a3c60c01b6123fe565b6104f367cd525a3adc935d4660c01b6123fe565b61050767bcdfe35d6eb64fbc60c01b6123fe565b4282101561054a576040517f08c379a000000000000000000000000000000000000000000000000000000000815260040161054190612ed6565b60405180910390fd5b61055e6798a1dfbc717fa22e60c01b6123fe565b610572675e6afa35b5d2999460c01b6123fe565b6105866731574bf7ef3e348360c01b6123fe565b61059a67de5dfdf4177d463160c01b6123fe565b600285859050146105e0576040517f08c379a00000000000000000000000000000000000000000000000000000000081526004016105d790612f42565b60405180910390fd5b6105f4678f441d760cd80a6f60c01b6123fe565b61060867c5de3f2f5b5d85dc60c01b6123fe565b61061c67e043dd68404b640f60c01b6123fe565b610630675ba5771e0a62fbe360c01b6123fe565b7f000000000000000000000000000000000000000000000000000000000000000073ffffffffffffffffffffffffffffffffffffffff168585600081811061067b5761067a612f62565b5b90506020020160208101906106909190612b82565b73ffffffffffffffffffffffffffffffffffffffff1614801561072657507f000000000000000000000000000000000000000000000000000000000000000073ffffffffffffffffffffffffffffffffffffffff16858560018181106106f9576106f8612f62565b5b905060200201602081019061070e9190612b82565b73ffffffffffffffffffffffffffffffffffffffff16145b801561074257506107416771fcd096269e6af660c01b612401565b5b8061085b57507f000000000000000000000000000000000000000000000000000000000000000073ffffffffffffffffffffffffffffffffffffffff168585600081811061079357610792612f62565b5b90506020020160208101906107a89190612b82565b73ffffffffffffffffffffffffffffffffffffffff1614801561083e57507f000000000000000000000000000000000000000000000000000000000000000073ffffffffffffffffffffffffffffffffffffffff168585600181811061081157610810612f62565b5b90506020020160208101906108269190612b82565b73ffffffffffffffffffffffffffffffffffffffff16145b801561085a575061085967daa4e1322f4efceb60c01b612401565b5b5b61089a576040517f08c379a000000000000000000000000000000000000000000000000000000000815260040161089190612fdd565b60405180910390fd5b6108ae67ee010973c198de9d60c01b6123fe565b6108c267cfb2002e100bfc5260c01b6123fe565b6108d667e654d31c3ba9359860c01b6123fe565b6000805490506108f0671e442d44c8a1682f60c01b6123fe565b6109046799f13e8236db573160c01b6123fe565b6000600154905061091f675d5b90b67c42d50960c01b6123fe565b600267ffffffffffffffff81111561093a57610939612ffd565b5b6040519080825280602002602001820160405280156109685781602001602082028036833780820191505090505b50925061097f67ffdbf1fbb44426df60c01b6123fe565b888360008151811061099457610993612f62565b5b6020026020010181815250506109b46783dc98ce2d23507b60c01b6123fe565b6109c867fa63b74d747ffbdf60c01b6123fe565b6000807f000000000000000000000000000000000000000000000000000000000000000073ffffffffffffffffffffffffffffffffffffffff1689896000818110610a1657610a15612f62565b5b9050602002016020810190610a2b9190612b82565b73ffffffffffffffffffffffffffffffffffffffff161480610a5d5750610a5c67b0c298b73e52273160c01b61240c565b5b8015610a795750610a786787aa3ff03d6f979460c01b612401565b5b610a84578284610a87565b83835b91509150610a9f67d97554272edb9d6a60c01b6123fe565b610aaa8b83836102a2565b85600181518110610abe57610abd612f62565b5b602002602001018181525050610ade677edb404bf9c46d0660c01b6123fe565b610af267920a8b7d705afc0b60c01b6123fe565b610b0667d59d7c29d92dda5860c01b6123fe565b8985600181518110610b1b57610b1a612f62565b5b60200260200101511015610b64576040517f08c379a0000000000000000000000000000000000000000000000000000000008152600401610b5b90613078565b60405180910390fd5b610b78677a9f2a4425bd2e7d60c01b6123fe565b610b8c67d1384e4009f3cea660c01b6123fe565b610ba0677689a344f939942f60c01b6123fe565b7f000000000000000000000000000000000000000000000000000000000000000073ffffffffffffffffffffffffffffffffffffffff1689896000818110610beb57610bea612f62565b5b9050602002016020810190610c009190612b82565b73ffffffffffffffffffffffffffffffffffffffff1603610c9d57610c2f674082349b11c00b5e60c01b6123fe565b610c43670b5a0a6c4e9d7ea460c01b6123fe565b610c5767c0b2f47de7a8b99b60c01b6123fe565b8a8401600081905550610c7467c1d4fadb722bda1460c01b6123fe565b84600181518110610c8857610c87612f62565b5b60200260200101518303600181905550610d1b565b610cb1670a0cd52c8ebf74a660c01b6123fe565b610cc5674121e2d2b516b92660c01b6123fe565b610cd967b1d830afc856f69560c01b6123fe565b8a8301600181905550610cf6672afd675abc8594f160c01b6123fe565b84600181518110610d0a57610d09612f62565b5b602002602001015184036000819055505b610d2f67555e1ea55394fa9060c01b6123fe565b610d4367f91d216415c4bb5560c01b6123fe565b88886000818110610d5757610d56612f62565b5b9050602002016020810190610d6c9190612b82565b73ffffffffffffffffffffffffffffffffffffffff166323b872dd333088600081518110610d9d57610d9c612f62565b5b60200260200101516040518463ffffffff1660e01b8152600401610dc393929190613098565b6020604051808303816000875af1158015610de2573d6000803e3d6000fd5b505050506040513d601f19601f82011682018060405250810190610e069190613107565b50610e1b679a59d75dd695771a60c01b6123fe565b610e2f67a083bfb91025d72360c01b6123fe565b88886001818110610e4357610e42612f62565b5b9050602002016020810190610e589190612b82565b73ffffffffffffffffffffffffffffffffffffffff1663a9059cbb8887600181518110610e8857610e87612f62565b5b60200260200101516040518363ffffffff1660e01b8152600401610ead929190613134565b6020604051808303816000875af1158015610ecc573d6000803e3d6000fd5b505050506040513d601f19601f82011682018060405250810190610ef09190613107565b50610f056785ce9d8c3549f17f60c01b6123fe565b610f196774392eab9f707ad660c01b6123fe565b3373ffffffffffffffffffffffffffffffffffffffff167fcd3829a3813dc3cdd188fd3d01dcf3268c16be2fdd2dd21d0665418816e460628a8a6000818110610f6557610f64612f62565b5b9050602002016020810190610f7a9190612b82565b8b8b6001818110610f8e57610f8d612f62565b5b9050602002016020810190610fa39190612b82565b88600081518110610fb757610fb6612f62565b5b602002602001015189600181518110610fd357610fd2612f62565b5b6020026020010151604051610feb949392919061315d565b60405180910390a2505050509695505050505050565b7f000000000000000000000000000000000000000000000000000000000000000081565b600061103b67cb89b774aa5ad3f260c01b6123fe565b61104f674304af99ed3e9e9d60c01b6123fe565b61106367cc13a20a1c913f6360c01b6123fe565b6000820361109c5761107f673e327c2cd7bacb3760c01b6123fe565b61109367ae93196e75c82a3f60c01b6123fe565b60009050611209565b6110b0670c8261bd17ba10e960c01b6123fe565b6110c46750f00931cd61ef5e60c01b6123fe565b6110d86732f05cb0a152d41c60c01b6123fe565b60038211611111576110f467275ed0d191785e4460c01b6123fe565b6111086770e94a932bd78d3d60c01b6123fe565b60019050611209565b611125677473fe6271831ff960c01b6123fe565b61113967063615ddb40e544460c01b6123fe565b819050611150674e9b51bba8a7fb1960c01b6123fe565b611164677e78457ff22119a160c01b6123fe565b600060016002846111759190612e59565b61117f9190612df6565b9050611195679cf4d0e5336385f960c01b6123fe565b6111a96797fd6763b123cefd60c01b6123fe565b5b81811015611207576111c66719095cd23c5cafbb60c01b6123fe565b8091506111dd67430ab340676e799360c01b6123fe565b60028182856111ec9190612e59565b6111f69190612df6565b6112009190612e59565b90506111aa565b505b919050565b600061122467756c654ca4b0512260c01b6123fe565b61123867a377337fddafa45a60c01b6123fe565b61124c6762d887083a4e8ad060c01b6123fe565b61126067dc16c0465a8d2d2260c01b6123fe565b7f000000000000000000000000000000000000000000000000000000000000000073ffffffffffffffffffffffffffffffffffffffff168373ffffffffffffffffffffffffffffffffffffffff1614801561130657507f000000000000000000000000000000000000000000000000000000000000000073ffffffffffffffffffffffffffffffffffffffff168273ffffffffffffffffffffffffffffffffffffffff16145b611345576040517f08c379a000000000000000000000000000000000000000000000000000000000815260040161133c90612fdd565b60405180910390fd5b611359675038e0e70aca9d5b60c01b6123fe565b61136d672f3d587e576d3c8c60c01b6123fe565b61138167d04171ed5d8c9f6960c01b6123fe565b61139567f9df10485d698e8760c01b6123fe565b600080541180156113a857506000600154115b6113e7576040517f08c379a00000000000000000000000000000000000000000000000000000000081526004016113de906131ee565b60405180910390fd5b6113fb6776389ee6f99e37f060c01b6123fe565b61140f67cfb3a75c33f238cf60c01b6123fe565b600054670de0b6b3a76400006001546114289190612db4565b6114329190612e59565b905092915050565b60008061145167171b1b5f7b50742860c01b6123fe565b61146567e85dadcdb27dea7d60c01b6123fe565b611479671e6c620f3ad35a9f60c01b6123fe565b61148d674dd217858cd8f3f060c01b6123fe565b428310156114d0576040517f08c379a00000000000000000000000000000000000000000000000000000000081526004016114c790612ed6565b60405180910390fd5b6114e467a02500ff6109fb4560c01b6123fe565b6114f8672a8ee05db16479b560c01b6123fe565b61150c674883b3e567617a0460c01b6123fe565b61152067a3b61405f0485e7d60c01b6123fe565b7f000000000000000000000000000000000000000000000000000000000000000073ffffffffffffffffffffffffffffffffffffffff168973ffffffffffffffffffffffffffffffffffffffff161480156115c657507f000000000000000000000000000000000000000000000000000000000000000073ffffffffffffffffffffffffffffffffffffffff168873ffffffffffffffffffffffffffffffffffffffff16145b611605576040517f08c379a00000000000000000000000000000000000000000000000000000000081526004016115fc90612fdd565b60405180910390fd5b61161967679945a5871422cd60c01b6123fe565b61162d67b790959363ac80f460c01b6123fe565b6116416717cc43e08fc1252d60c01b6123fe565b61165567c7d82b17fcd834e860c01b6123fe565b86600360003373ffffffffffffffffffffffffffffffffffffffff1673ffffffffffffffffffffffffffffffffffffffff1681526020019081526020016000205410156116d7576040517f08c379a00000000000000000000000000000000000000000000000000000000081526004016116ce90612d65565b60405180910390fd5b6116eb674e6f154bd724ab7b60c01b6123fe565b6116ff678c2e5cc1164cc07260c01b6123fe565b61171367d4f71cb4503caca860c01b6123fe565b60008054905061172d67495c241e79d2f4f060c01b6123fe565b61174167ecea0908c9df741860c01b6123fe565b6000600154905061175c67709384ab0d76ab5b60c01b6123fe565b61177067d5738d34895564bc60c01b6123fe565b6000600254905061178b67ba7ef8d99b84469160c01b6123fe565b80838b6117989190612db4565b6117a29190612e59565b94506117b867f7ba5034e810f31160c01b6123fe565b80828b6117c59190612db4565b6117cf9190612e59565b93506117e56726eef342c1f11cf560c01b6123fe565b6117f967aa8503b3cb38e50f60c01b6123fe565b61180d67c7a7c7bd70b1964460c01b6123fe565b88851015611850576040517f08c379a00000000000000000000000000000000000000000000000000000000081526004016118479061325a565b60405180910390fd5b61186467937af720eea324f060c01b6123fe565b611878678854a9baf309e59260c01b6123fe565b61188c673f8b8dc6c1ae704260c01b6123fe565b6118a0679d37b79fdb52ad1c60c01b6123fe565b878410156118e3576040517f08c379a00000000000000000000000000000000000000000000000000000000081526004016118da906132c6565b60405180910390fd5b6118f767c87fbd8a7e53c7dc60c01b6123fe565b61190b671de7fd183b7c48ec60c01b6123fe565b61191f67e39da713e63cf2fc60c01b6123fe565b84830360008190555061193c6708c5100e11811fd160c01b6123fe565b83820360018190555061195967c43a172d2db4dfb060c01b6123fe565b898161196591906132e6565b60028190555061197f67b9cbb46e916ff68460c01b6123fe565b89600360003373ffffffffffffffffffffffffffffffffffffffff1673ffffffffffffffffffffffffffffffffffffffff16815260200190815260200160002060008282546119ce91906132e6565b925050819055506119e9672d8fc91550270c3460c01b6123fe565b6119fd678e05e5b27a7bd66e60c01b6123fe565b7f000000000000000000000000000000000000000000000000000000000000000073ffffffffffffffffffffffffffffffffffffffff1663a9059cbb88876040518363ffffffff1660e01b8152600401611a58929190613134565b6020604051808303816000875af1158015611a77573d6000803e3d6000fd5b505050506040513d601f19601f82011682018060405250810190611a9b9190613107565b50611ab0670afdcdf6c1644e6360c01b6123fe565b611ac46764891f8b3e44206c60c01b6123fe565b7f000000000000000000000000000000000000000000000000000000000000000073ffffffffffffffffffffffffffffffffffffffff1663a9059cbb88866040518363ffffffff1660e01b8152600401611b1f929190613134565b6020604051808303816000875af1158015611b3e573d6000803e3d6000fd5b505050506040513d601f19601f82011682018060405250810190611b629190613107565b50611b7767fe305b24c1abe2d660c01b6123fe565b611b8b6745b6ecdd706018ce60c01b6123fe565b8673ffffffffffffffffffffffffffffffffffffffff163373ffffffffffffffffffffffffffffffffffffffff167fbc7d19d505c7ec4db83f3b51f19fb98c4c8a99922e7839d1ee608dfbee29501b87878e604051611bec93929190612c65565b60405180910390a350505097509795505050505050565b60005481565b60036020528060005260406000206000915090505481565b6000806000611c3a670771a9784c2f62a060c01b6123fe565b611c4e6728917ed07d97d4c260c01b6123fe565b611c6267222bf1d3adb0a9ce60c01b6123fe565b611c76678bb9a3b3988db68f60c01b6123fe565b42841015611cb9576040517f08c379a0000000000000000000000000000000000000000000000000000000008152600401611cb090612ed6565b60405180910390fd5b611ccd67d89c575128cbc05f60c01b6123fe565b611ce167b7503f68074754e260c01b6123fe565b611cf5673ec9a3859e03292260c01b6123fe565b611d09678f5e0d5822e9c2a060c01b6123fe565b7f000000000000000000000000000000000000000000000000000000000000000073ffffffffffffffffffffffffffffffffffffffff168b73ffffffffffffffffffffffffffffffffffffffff16148015611daf57507f000000000000000000000000000000000000000000000000000000000000000073ffffffffffffffffffffffffffffffffffffffff168a73ffffffffffffffffffffffffffffffffffffffff16145b611dee576040517f08c379a0000000000000000000000000000000000000000000000000000000008152600401611de590612fdd565b60405180910390fd5b611e026717531d13ac25e0f860c01b6123fe565b611e166770465539b81e948760c01b6123fe565b611e2a6793f6c123b136b36960c01b6123fe565b600080549050611e4467479dfd21551be7c460c01b6123fe565b611e5867082d9a5456ddcb1060c01b6123fe565b60006001549050611e7367d69ecad8d67de21c60c01b6123fe565b611e876797f6c038543e5f0a60c01b6123fe565b60006002549050611ea2673325f122d196e10660c01b6123fe565b611eae8c8c8c8c612413565b8096508197505050611eca6726faa2bb09b89d5760c01b6123fe565b611ede67dac16ae2d1e92bf360c01b6123fe565b7f000000000000000000000000000000000000000000000000000000000000000073ffffffffffffffffffffffffffffffffffffffff166323b872dd3330896040518463ffffffff1660e01b8152600401611f3b93929190613098565b6020604051808303816000875af1158015611f5a573d6000803e3d6000fd5b505050506040513d601f19601f82011682018060405250810190611f7e9190613107565b50611f9367b11a98d19b57b1f960c01b6123fe565b611fa767336a2da021316a7260c01b6123fe565b7f000000000000000000000000000000000000000000000000000000000000000073ffffffffffffffffffffffffffffffffffffffff166323b872dd3330886040518463ffffffff1660e01b815260040161200493929190613098565b6020604051808303816000875af1158015612023573d6000803e3d6000fd5b505050506040513d601f19601f820116820180604052508101906120479190613107565b5061205c67565c610fea1535ba60c01b6123fe565b612070677d041685ec64c53760c01b6123fe565b600081036121225761208c674e4ed70a72a6536b60c01b6123fe565b6120a067856ca537469bc22b60c01b6123fe565b6103e86120b786886120b29190612db4565b611025565b6120c191906132e6565b93506120d76709bdb3d3ae9bc90160c01b6123fe565b6103e8600360008073ffffffffffffffffffffffffffffffffffffffff1673ffffffffffffffffffffffffffffffffffffffff168152602001908152602001600020819055506121eb565b61213667d1537b3be32ff5f660c01b6123fe565b61214a6709f9bacf651835a060c01b6123fe565b8181866121579190612db4565b6121619190612e59565b83828861216e9190612db4565b6121789190612e59565b1080612194575061219367157fac0d289498cd60c01b61240c565b5b80156121b057506121af673fd3b9c8924dfb5060c01b612401565b5b6121d0578181866121c19190612db4565b6121cb9190612e59565b6121e8565b8281876121dd9190612db4565b6121e79190612e59565b5b93505b6121ff676711f2dc01ce472060c01b6123fe565b61221367720871a94f42d5b460c01b6123fe565b61222767fb54951ccd40741c60c01b6123fe565b6000841161226a576040517f08c379a000000000000000000000000000000000000000000000000000000000815260040161226190613366565b60405180910390fd5b61227e673e06355399e9296e60c01b6123fe565b61229267697ec6aee12b4e0860c01b6123fe565b6122a667b698da80a45545fb60c01b6123fe565b8583016000819055506122c3671768f4f3cf7ecdf360c01b6123fe565b8482016001819055506122e067efe62bffab1988fb60c01b6123fe565b83816122ec9190612df6565b600281905550612306678e03a79956c3bc7460c01b6123fe565b83600360008a73ffffffffffffffffffffffffffffffffffffffff1673ffffffffffffffffffffffffffffffffffffffff16815260200190815260200160002060008282546123559190612df6565b92505081905550612370676b52fb2e2db29d2860c01b6123fe565b612384678d5e3f69587980ee60c01b6123fe565b8773ffffffffffffffffffffffffffffffffffffffff163373ffffffffffffffffffffffffffffffffffffffff167f4a1a2a6176e9646d9e3157f7c2ab3c499f18337c0b0828cfb28e0a61de4a11f78888886040516123e593929190612c65565b60405180910390a3505050985098509895505050505050565b50565b600060019050919050565b6000919050565b60008061242a67bd562e90ac4109cd60c01b6123fe565b61243e67aa3f0f7e3026345560c01b6123fe565b612452673aee116f2e59f71a60c01b6123fe565b60008054905061246c67be4c58de74568c8960c01b6123fe565b61248067c7282b99bf5d56b660c01b6123fe565b6000600154905061249b67d419ea2d1ce723da60c01b6123fe565b6124af67108bc21b413a287660c01b6123fe565b6000821480156124bf5750600081145b156124fb576124d867299086bcbf055c7560c01b6123fe565b6124ec671fe282014c59ff5260c01b6123fe565b8787809450819550505061271b565b61250f67e492a5d6bd60ebee60c01b6123fe565b61252367d88710d77684a03f60c01b6123fe565b8181896125309190612db4565b61253a9190612e59565b925061255067592ddc24d75eefe460c01b6123fe565b6125646788a2e534d1d4f89060c01b6123fe565b86831161262e5761257f67b516a2a082a5be2b60c01b6123fe565b61259367020f4915c5986efb60c01b6123fe565b6125a76784266f3a3bf0ae9b60c01b6123fe565b6125bb67f91021d80f92d6d060c01b6123fe565b848310156125fe576040517f08c379a00000000000000000000000000000000000000000000000000000000081526004016125f5906132c6565b60405180910390fd5b612612673328bbc3dc4b260960c01b6123fe565b61262667b25e826e3426d83960c01b6123fe565b87935061271a565b61264267f894ce321391131c60c01b6123fe565b612656670f9e7973da6268c360c01b6123fe565b8082886126639190612db4565b61266d9190612e59565b9350612683672fbeab5e6da6d33f60c01b6123fe565b61269767cc2167f27160366560c01b6123fe565b6126ab67ed88b78a4855eb4c60c01b6123fe565b858410156126ee576040517f08c379a00000000000000000000000000000000000000000000000000000000081526004016126e59061325a565b60405180910390fd5b61270267facf25e33d57e68160c01b6123fe565b612716678668ff0e62c02e2860c01b6123fe565b8692505b5b505094509492505050565b600080fd5b600080fd5b6000819050919050565b61274381612730565b811461274e57600080fd5b50565b6000813590506127608161273a565b92915050565b60008060006060848603121561277f5761277e612726565b5b600061278d86828701612751565b935050602061279e86828701612751565b92505060406127af86828701612751565b9150509250925092565b6127c281612730565b82525050565b60006020820190506127dd60008301846127b9565b92915050565b600073ffffffffffffffffffffffffffffffffffffffff82169050919050565b600061280e826127e3565b9050919050565b61281e81612803565b82525050565b60006020820190506128396000830184612815565b92915050565b600080fd5b600080fd5b600080fd5b60008083601f8401126128645761286361283f565b5b8235905067ffffffffffffffff81111561288157612880612844565b5b60208301915083602082028301111561289d5761289c612849565b5b9250929050565b6128ad81612803565b81146128b857600080fd5b50565b6000813590506128ca816128a4565b92915050565b60008060008060008060a087890312156128ed576128ec612726565b5b60006128fb89828a01612751565b965050602061290c89828a01612751565b955050604087013567ffffffffffffffff81111561292d5761292c61272b565b5b61293989828a0161284e565b9450945050606061294c89828a016128bb565b925050608061295d89828a01612751565b9150509295509295509295565b600081519050919050565b600082825260208201905092915050565b6000819050602082019050919050565b61299f81612730565b82525050565b60006129b18383612996565b60208301905092915050565b6000602082019050919050565b60006129d58261296a565b6129df8185612975565b93506129ea83612986565b8060005b83811015612a1b578151612a0288826129a5565b9750612a0d836129bd565b9250506001810190506129ee565b5085935050505092915050565b60006020820190508181036000830152612a4281846129ca565b905092915050565b600060208284031215612a6057612a5f612726565b5b6000612a6e84828501612751565b91505092915050565b60008060408385031215612a8e57612a8d612726565b5b6000612a9c858286016128bb565b9250506020612aad858286016128bb565b9150509250929050565b600080600080600080600060e0888a031215612ad657612ad5612726565b5b6000612ae48a828b016128bb565b9750506020612af58a828b016128bb565b9650506040612b068a828b01612751565b9550506060612b178a828b01612751565b9450506080612b288a828b01612751565b93505060a0612b398a828b016128bb565b92505060c0612b4a8a828b01612751565b91505092959891949750929550565b6000604082019050612b6e60008301856127b9565b612b7b60208301846127b9565b9392505050565b600060208284031215612b9857612b97612726565b5b6000612ba6848285016128bb565b91505092915050565b600080600080600080600080610100898b031215612bd057612bcf612726565b5b6000612bde8b828c016128bb565b9850506020612bef8b828c016128bb565b9750506040612c008b828c01612751565b9650506060612c118b828c01612751565b9550506080612c228b828c01612751565b94505060a0612c338b828c01612751565b93505060c0612c448b828c016128bb565b92505060e0612c558b828c01612751565b9150509295985092959890939650565b6000606082019050612c7a60008301866127b9565b612c8760208301856127b9565b612c9460408301846127b9565b949350505050565b600082825260208201905092915050565b7f53533a2049494100000000000000000000000000000000000000000000000000600082015250565b6000612ce3600783612c9c565b9150612cee82612cad565b602082019050919050565b60006020820190508181036000830152612d1281612cd6565b9050919050565b7f53533a20494c0000000000000000000000000000000000000000000000000000600082015250565b6000612d4f600683612c9c565b9150612d5a82612d19565b602082019050919050565b60006020820190508181036000830152612d7e81612d42565b9050919050565b7f4e487b7100000000000000000000000000000000000000000000000000000000600052601160045260246000fd5b6000612dbf82612730565b9150612dca83612730565b9250828202612dd881612730565b91508282048414831517612def57612dee612d85565b5b5092915050565b6000612e0182612730565b9150612e0c83612730565b9250828201905080821115612e2457612e23612d85565b5b92915050565b7f4e487b7100000000000000000000000000000000000000000000000000000000600052601260045260246000fd5b6000612e6482612730565b9150612e6f83612730565b925082612e7f57612e7e612e2a565b5b828204905092915050565b7f53533a2045585000000000000000000000000000000000000000000000000000600082015250565b6000612ec0600783612c9c565b9150612ecb82612e8a565b602082019050919050565b60006020820190508181036000830152612eef81612eb3565b9050919050565b7f53533a2049500000000000000000000000000000000000000000000000000000600082015250565b6000612f2c600683612c9c565b9150612f3782612ef6565b602082019050919050565b60006020820190508181036000830152612f5b81612f1f565b9050919050565b7f4e487b7100000000000000000000000000000000000000000000000000000000600052603260045260246000fd5b7f53533a2049545000000000000000000000000000000000000000000000000000600082015250565b6000612fc7600783612c9c565b9150612fd282612f91565b602082019050919050565b60006020820190508181036000830152612ff681612fba565b9050919050565b7f4e487b7100000000000000000000000000000000000000000000000000000000600052604160045260246000fd5b7f53533a20494f4100000000000000000000000000000000000000000000000000600082015250565b6000613062600783612c9c565b915061306d8261302c565b602082019050919050565b6000602082019050818103600083015261309181613055565b9050919050565b60006060820190506130ad6000830186612815565b6130ba6020830185612815565b6130c760408301846127b9565b949350505050565b60008115159050919050565b6130e4816130cf565b81146130ef57600080fd5b50565b600081519050613101816130db565b92915050565b60006020828403121561311d5761311c612726565b5b600061312b848285016130f2565b91505092915050565b60006040820190506131496000830185612815565b61315660208301846127b9565b9392505050565b60006080820190506131726000830187612815565b61317f6020830186612815565b61318c60408301856127b9565b61319960608301846127b9565b95945050505050565b7f53533a204e4c0000000000000000000000000000000000000000000000000000600082015250565b60006131d8600683612c9c565b91506131e3826131a2565b602082019050919050565b60006020820190508181036000830152613207816131cb565b9050919050565b7f53533a2049414100000000000000000000000000000000000000000000000000600082015250565b6000613244600783612c9c565b915061324f8261320e565b602082019050919050565b6000602082019050818103600083015261327381613237565b9050919050565b7f53533a2049424100000000000000000000000000000000000000000000000000600082015250565b60006132b0600783612c9c565b91506132bb8261327a565b602082019050919050565b600060208201905081810360008301526132df816132a3565b9050919050565b60006132f182612730565b91506132fc83612730565b925082820390508181111561331457613313612d85565b5b92915050565b7f53533a20494c4d00000000000000000000000000000000000000000000000000600082015250565b6000613350600783612c9c565b915061335b8261331a565b602082019050919050565b6000602082019050818103600083015261337f81613343565b905091905056fea26469706673582212203cf970764f2bbd19ed7e36c2d38dd95c5815cf629167652feeff905e94c70e9764736f6c63430008140033","opcodes":"PUSH1 0xC0 PUSH1 0x40 MSTORE CALLVALUE DUP1 ISZERO PUSH3 0x11 JUMPI PUSH1 0x0 DUP1 REVERT JUMPDEST POP PUSH1 0x40 MLOAD PUSH3 0x3601 CODESIZE SUB DUP1 PUSH3 0x3601 DUP4 CODECOPY DUP2 DUP2 ADD PUSH1 0x40 MSTORE DUP2 ADD SWAP1 PUSH3 0x37 SWAP2 SWAP1 PUSH3 0x168 JUMP JUMPDEST PUSH3 0x53 PUSH8 0xB0ED396E50CC80FF PUSH1 0xC0 SHL PUSH3 0xFB PUSH1 0x20 SHL PUSH1 0x20 SHR JUMP JUMPDEST PUSH3 0x6F PUSH8 0x3453C261D38BAA1C PUSH1 0xC0 SHL PUSH3 0xFB PUSH1 0x20 SHL PUSH1 0x20 SHR JUMP JUMPDEST DUP2 PUSH20 0xFFFFFFFFFFFFFFFFFFFFFFFFFFFFFFFFFFFFFFFF AND PUSH1 0x80 DUP2 PUSH20 0xFFFFFFFFFFFFFFFFFFFFFFFFFFFFFFFFFFFFFFFF AND DUP2 MSTORE POP POP PUSH3 0xBF PUSH8 0xCD347E6AD8FA745 PUSH1 0xC0 SHL PUSH3 0xFB PUSH1 0x20 SHL PUSH1 0x20 SHR JUMP JUMPDEST DUP1 PUSH20 0xFFFFFFFFFFFFFFFFFFFFFFFFFFFFFFFFFFFFFFFF AND PUSH1 0xA0 DUP2 PUSH20 0xFFFFFFFFFFFFFFFFFFFFFFFFFFFFFFFFFFFFFFFF AND DUP2 MSTORE POP POP POP POP PUSH3 0x1AF JUMP JUMPDEST POP JUMP JUMPDEST PUSH1 0x0 DUP1 REVERT JUMPDEST PUSH1 0x0 PUSH20 0xFFFFFFFFFFFFFFFFFFFFFFFFFFFFFFFFFFFFFFFF DUP3 AND SWAP1 POP SWAP2 SWAP1 POP JUMP JUMPDEST PUSH1 0x0 PUSH3 0x130 DUP3 PUSH3 0x103 JUMP JUMPDEST SWAP1 POP SWAP2 SWAP1 POP JUMP JUMPDEST PUSH3 0x142 DUP2 PUSH3 0x123 JUMP JUMPDEST DUP2 EQ PUSH3 0x14E JUMPI PUSH1 0x0 DUP1 REVERT JUMPDEST POP JUMP JUMPDEST PUSH1 0x0 DUP2 MLOAD SWAP1 POP PUSH3 0x162 DUP2 PUSH3 0x137 JUMP JUMPDEST SWAP3 SWAP2 POP POP JUMP JUMPDEST PUSH1 0x0 DUP1 PUSH1 0x40 DUP4 DUP6 SUB SLT ISZERO PUSH3 0x182 JUMPI PUSH3 0x181 PUSH3 0xFE JUMP JUMPDEST JUMPDEST PUSH1 0x0 PUSH3 0x192 DUP6 DUP3 DUP7 ADD PUSH3 0x151 JUMP JUMPDEST SWAP3 POP POP PUSH1 0x20 PUSH3 0x1A5 DUP6 DUP3 DUP7 ADD PUSH3 0x151 JUMP JUMPDEST SWAP2 POP POP SWAP3 POP SWAP3 SWAP1 POP JUMP JUMPDEST PUSH1 0x80 MLOAD PUSH1 0xA0 MLOAD PUSH2 0x33BC PUSH3 0x245 PUSH1 0x0 CODECOPY PUSH1 0x0 DUP2 DUP2 PUSH2 0x6B0 ADD MSTORE DUP2 DUP2 PUSH2 0x74A ADD MSTORE DUP2 DUP2 PUSH2 0x1003 ADD MSTORE DUP2 DUP2 PUSH2 0x12B8 ADD MSTORE DUP2 DUP2 PUSH2 0x1578 ADD MSTORE DUP2 DUP2 PUSH2 0x1AC6 ADD MSTORE DUP2 DUP2 PUSH2 0x1D61 ADD MSTORE PUSH2 0x1FA9 ADD MSTORE PUSH1 0x0 DUP2 DUP2 PUSH2 0x487 ADD MSTORE DUP2 DUP2 PUSH2 0x632 ADD MSTORE DUP2 DUP2 PUSH2 0x7C8 ADD MSTORE DUP2 DUP2 PUSH2 0x9CD ADD MSTORE DUP2 DUP2 PUSH2 0xBA2 ADD MSTORE DUP2 DUP2 PUSH2 0x1262 ADD MSTORE DUP2 DUP2 PUSH2 0x1522 ADD MSTORE DUP2 DUP2 PUSH2 0x19FF ADD MSTORE DUP2 DUP2 PUSH2 0x1D0B ADD MSTORE PUSH2 0x1EE0 ADD MSTORE PUSH2 0x33BC PUSH1 0x0 RETURN INVALID PUSH1 0x80 PUSH1 0x40 MSTORE CALLVALUE DUP1 ISZERO PUSH2 0x10 JUMPI PUSH1 0x0 DUP1 REVERT JUMPDEST POP PUSH1 0x4 CALLDATASIZE LT PUSH2 0xB4 JUMPI PUSH1 0x0 CALLDATALOAD PUSH1 0xE0 SHR DUP1 PUSH4 0x677342CE GT PUSH2 0x71 JUMPI DUP1 PUSH4 0x677342CE EQ PUSH2 0x191 JUMPI DUP1 PUSH4 0xAC41865A EQ PUSH2 0x1C1 JUMPI DUP1 PUSH4 0xBAA2ABDE EQ PUSH2 0x1F1 JUMPI DUP1 PUSH4 0xDC5FA6C5 EQ PUSH2 0x222 JUMPI DUP1 PUSH4 0xDD296480 EQ PUSH2 0x240 JUMPI DUP1 PUSH4 0xE8E33700 EQ PUSH2 0x270 JUMPI PUSH2 0xB4 JUMP JUMPDEST DUP1 PUSH4 0x54D50D4 EQ PUSH2 0xB9 JUMPI DUP1 PUSH4 0xFC63D10 EQ PUSH2 0xE9 JUMPI DUP1 PUSH4 0x15770F92 EQ PUSH2 0x107 JUMPI DUP1 PUSH4 0x19E36F3B EQ PUSH2 0x125 JUMPI DUP1 PUSH4 0x38ED1739 EQ PUSH2 0x143 JUMPI DUP1 PUSH4 0x5F64B55B EQ PUSH2 0x173 JUMPI JUMPDEST PUSH1 0x0 DUP1 REVERT JUMPDEST PUSH2 0xD3 PUSH1 0x4 DUP1 CALLDATASIZE SUB DUP2 ADD SWAP1 PUSH2 0xCE SWAP2 SWAP1 PUSH2 0x2766 JUMP JUMPDEST PUSH2 0x2A2 JUMP JUMPDEST PUSH1 0x40 MLOAD PUSH2 0xE0 SWAP2 SWAP1 PUSH2 0x27C8 JUMP JUMPDEST PUSH1 0x40 MLOAD DUP1 SWAP2 SUB SWAP1 RETURN JUMPDEST PUSH2 0xF1 PUSH2 0x485 JUMP JUMPDEST PUSH1 0x40 MLOAD PUSH2 0xFE SWAP2 SWAP1 PUSH2 0x2824 JUMP JUMPDEST PUSH1 0x40 MLOAD DUP1 SWAP2 SUB SWAP1 RETURN JUMPDEST PUSH2 0x10F PUSH2 0x4A9 JUMP JUMPDEST PUSH1 0x40 MLOAD PUSH2 0x11C SWAP2 SWAP1 PUSH2 0x27C8 JUMP JUMPDEST PUSH1 0x40 MLOAD DUP1 SWAP2 SUB SWAP1 RETURN JUMPDEST PUSH2 0x12D PUSH2 0x4AF JUMP JUMPDEST PUSH1 0x40 MLOAD PUSH2 0x13A SWAP2 SWAP1 PUSH2 0x27C8 JUMP JUMPDEST PUSH1 0x40 MLOAD DUP1 SWAP2 SUB SWAP1 RETURN JUMPDEST PUSH2 0x15D PUSH1 0x4 DUP1 CALLDATASIZE SUB DUP2 ADD SWAP1 PUSH2 0x158 SWAP2 SWAP1 PUSH2 0x28D0 JUMP JUMPDEST PUSH2 0x4B5 JUMP JUMPDEST PUSH1 0x40 MLOAD PUSH2 0x16A SWAP2 SWAP1 PUSH2 0x2A28 JUMP JUMPDEST PUSH1 0x40 MLOAD DUP1 SWAP2 SUB SWAP1 RETURN JUMPDEST PUSH2 0x17B PUSH2 0x1001 JUMP JUMPDEST PUSH1 0x40 MLOAD PUSH2 0x188 SWAP2 SWAP1 PUSH2 0x2824 JUMP JUMPDEST PUSH1 0x40 MLOAD DUP1 SWAP2 SUB SWAP1 RETURN JUMPDEST PUSH2 0x1AB PUSH1 0x4 DUP1 CALLDATASIZE SUB DUP2 ADD SWAP1 PUSH2 0x1A6 SWAP2 SWAP1 PUSH2 0x2A4A JUMP JUMPDEST PUSH2 0x1025 JUMP JUMPDEST PUSH1 0x40 MLOAD PUSH2 0x1B8 SWAP2 SWAP1 PUSH2 0x27C8 JUMP JUMPDEST PUSH1 0x40 MLOAD DUP1 SWAP2 SUB SWAP1 RETURN JUMPDEST PUSH2 0x1DB PUSH1 0x4 DUP1 CALLDATASIZE SUB DUP2 ADD SWAP1 PUSH2 0x1D6 SWAP2 SWAP1 PUSH2 0x2A77 JUMP JUMPDEST PUSH2 0x120E JUMP JUMPDEST PUSH1 0x40 MLOAD PUSH2 0x1E8 SWAP2 SWAP1 PUSH2 0x27C8 JUMP JUMPDEST PUSH1 0x40 MLOAD DUP1 SWAP2 SUB SWAP1 RETURN JUMPDEST PUSH2 0x20B PUSH1 0x4 DUP1 CALLDATASIZE SUB DUP2 ADD SWAP1 PUSH2 0x206 SWAP2 SWAP1 PUSH2 0x2AB7 JUMP JUMPDEST PUSH2 0x143A JUMP JUMPDEST PUSH1 0x40 MLOAD PUSH2 0x219 SWAP3 SWAP2 SWAP1 PUSH2 0x2B59 JUMP JUMPDEST PUSH1 0x40 MLOAD DUP1 SWAP2 SUB SWAP1 RETURN JUMPDEST PUSH2 0x22A PUSH2 0x1C03 JUMP JUMPDEST PUSH1 0x40 MLOAD PUSH2 0x237 SWAP2 SWAP1 PUSH2 0x27C8 JUMP JUMPDEST PUSH1 0x40 MLOAD DUP1 SWAP2 SUB SWAP1 RETURN JUMPDEST PUSH2 0x25A PUSH1 0x4 DUP1 CALLDATASIZE SUB DUP2 ADD SWAP1 PUSH2 0x255 SWAP2 SWAP1 PUSH2 0x2B82 JUMP JUMPDEST PUSH2 0x1C09 JUMP JUMPDEST PUSH1 0x40 MLOAD PUSH2 0x267 SWAP2 SWAP1 PUSH2 0x27C8 JUMP JUMPDEST PUSH1 0x40 MLOAD DUP1 SWAP2 SUB SWAP1 RETURN JUMPDEST PUSH2 0x28A PUSH1 0x4 DUP1 CALLDATASIZE SUB DUP2 ADD SWAP1 PUSH2 0x285 SWAP2 SWAP1 PUSH2 0x2BAF JUMP JUMPDEST PUSH2 0x1C21 JUMP JUMPDEST PUSH1 0x40 MLOAD PUSH2 0x299 SWAP4 SWAP3 SWAP2 SWAP1 PUSH2 0x2C65 JUMP JUMPDEST PUSH1 0x40 MLOAD DUP1 SWAP2 SUB SWAP1 RETURN JUMPDEST PUSH1 0x0 PUSH2 0x2B8 PUSH8 0x2668B37BCF6E8A20 PUSH1 0xC0 SHL PUSH2 0x23FE JUMP JUMPDEST PUSH2 0x2CC PUSH8 0xC3FCADDDA3247EA9 PUSH1 0xC0 SHL PUSH2 0x23FE JUMP JUMPDEST PUSH2 0x2E0 PUSH8 0xBB6E8FAFA4330F1D PUSH1 0xC0 SHL PUSH2 0x23FE JUMP JUMPDEST PUSH2 0x2F4 PUSH8 0xE5080715F3F05CC9 PUSH1 0xC0 SHL PUSH2 0x23FE JUMP JUMPDEST PUSH1 0x0 DUP5 GT PUSH2 0x337 JUMPI PUSH1 0x40 MLOAD PUSH32 0x8C379A000000000000000000000000000000000000000000000000000000000 DUP2 MSTORE PUSH1 0x4 ADD PUSH2 0x32E SWAP1 PUSH2 0x2CF9 JUMP JUMPDEST PUSH1 0x40 MLOAD DUP1 SWAP2 SUB SWAP1 REVERT JUMPDEST PUSH2 0x34B PUSH8 0x81CBF4146B99A897 PUSH1 0xC0 SHL PUSH2 0x23FE JUMP JUMPDEST PUSH2 0x35F PUSH8 0x2D5C6175F959F8C3 PUSH1 0xC0 SHL PUSH2 0x23FE JUMP JUMPDEST PUSH2 0x373 PUSH8 0xEF1345A7D8119C60 PUSH1 0xC0 SHL PUSH2 0x23FE JUMP JUMPDEST PUSH2 0x387 PUSH8 0xEE261CA1542F8CB3 PUSH1 0xC0 SHL PUSH2 0x23FE JUMP JUMPDEST PUSH1 0x0 DUP4 GT DUP1 ISZERO PUSH2 0x397 JUMPI POP PUSH1 0x0 DUP3 GT JUMPDEST PUSH2 0x3D6 JUMPI PUSH1 0x40 MLOAD PUSH32 0x8C379A000000000000000000000000000000000000000000000000000000000 DUP2 MSTORE PUSH1 0x4 ADD PUSH2 0x3CD SWAP1 PUSH2 0x2D65 JUMP JUMPDEST PUSH1 0x40 MLOAD DUP1 SWAP2 SUB SWAP1 REVERT JUMPDEST PUSH2 0x3EA PUSH8 0x134788682542A83F PUSH1 0xC0 SHL PUSH2 0x23FE JUMP JUMPDEST PUSH2 0x3FE PUSH8 0xEFE06EF532BBF5A3 PUSH1 0xC0 SHL PUSH2 0x23FE JUMP JUMPDEST PUSH2 0x412 PUSH8 0xE863BC742B9CAAD8 PUSH1 0xC0 SHL PUSH2 0x23FE JUMP JUMPDEST PUSH1 0x0 DUP3 DUP6 PUSH2 0x420 SWAP2 SWAP1 PUSH2 0x2DB4 JUMP JUMPDEST SWAP1 POP PUSH2 0x436 PUSH8 0x222AC82B1C4F2251 PUSH1 0xC0 SHL PUSH2 0x23FE JUMP JUMPDEST PUSH2 0x44A PUSH8 0xFE9860220EBE621E PUSH1 0xC0 SHL PUSH2 0x23FE JUMP JUMPDEST PUSH1 0x0 DUP6 DUP6 PUSH2 0x458 SWAP2 SWAP1 PUSH2 0x2DF6 JUMP JUMPDEST SWAP1 POP PUSH2 0x46E PUSH8 0x7CAF38D5646A59DD PUSH1 0xC0 SHL PUSH2 0x23FE JUMP JUMPDEST DUP1 DUP3 PUSH2 0x47A SWAP2 SWAP1 PUSH2 0x2E59 JUMP JUMPDEST SWAP3 POP POP POP SWAP4 SWAP3 POP POP POP JUMP JUMPDEST PUSH32 0x0 DUP2 JUMP JUMPDEST PUSH1 0x2 SLOAD DUP2 JUMP JUMPDEST PUSH1 0x1 SLOAD DUP2 JUMP JUMPDEST PUSH1 0x60 PUSH2 0x4CB PUSH8 0x16DDFAF4B2612AD6 PUSH1 0xC0 SHL PUSH2 0x23FE JUMP JUMPDEST PUSH2 0x4DF PUSH8 0x6EFE02BE05B67A3C PUSH1 0xC0 SHL PUSH2 0x23FE JUMP JUMPDEST PUSH2 0x4F3 PUSH8 0xCD525A3ADC935D46 PUSH1 0xC0 SHL PUSH2 0x23FE JUMP JUMPDEST PUSH2 0x507 PUSH8 0xBCDFE35D6EB64FBC PUSH1 0xC0 SHL PUSH2 0x23FE JUMP JUMPDEST TIMESTAMP DUP3 LT ISZERO PUSH2 0x54A JUMPI PUSH1 0x40 MLOAD PUSH32 0x8C379A000000000000000000000000000000000000000000000000000000000 DUP2 MSTORE PUSH1 0x4 ADD PUSH2 0x541 SWAP1 PUSH2 0x2ED6 JUMP JUMPDEST PUSH1 0x40 MLOAD DUP1 SWAP2 SUB SWAP1 REVERT JUMPDEST PUSH2 0x55E PUSH8 0x98A1DFBC717FA22E PUSH1 0xC0 SHL PUSH2 0x23FE JUMP JUMPDEST PUSH2 0x572 PUSH8 0x5E6AFA35B5D29994 PUSH1 0xC0 SHL PUSH2 0x23FE JUMP JUMPDEST PUSH2 0x586 PUSH8 0x31574BF7EF3E3483 PUSH1 0xC0 SHL PUSH2 0x23FE JUMP JUMPDEST PUSH2 0x59A PUSH8 0xDE5DFDF4177D4631 PUSH1 0xC0 SHL PUSH2 0x23FE JUMP JUMPDEST PUSH1 0x2 DUP6 DUP6 SWAP1 POP EQ PUSH2 0x5E0 JUMPI PUSH1 0x40 MLOAD PUSH32 0x8C379A000000000000000000000000000000000000000000000000000000000 DUP2 MSTORE PUSH1 0x4 ADD PUSH2 0x5D7 SWAP1 PUSH2 0x2F42 JUMP JUMPDEST PUSH1 0x40 MLOAD DUP1 SWAP2 SUB SWAP1 REVERT JUMPDEST PUSH2 0x5F4 PUSH8 0x8F441D760CD80A6F PUSH1 0xC0 SHL PUSH2 0x23FE JUMP JUMPDEST PUSH2 0x608 PUSH8 0xC5DE3F2F5B5D85DC PUSH1 0xC0 SHL PUSH2 0x23FE JUMP JUMPDEST PUSH2 0x61C PUSH8 0xE043DD68404B640F PUSH1 0xC0 SHL PUSH2 0x23FE JUMP JUMPDEST PUSH2 0x630 PUSH8 0x5BA5771E0A62FBE3 PUSH1 0xC0 SHL PUSH2 0x23FE JUMP JUMPDEST PUSH32 0x0 PUSH20 0xFFFFFFFFFFFFFFFFFFFFFFFFFFFFFFFFFFFFFFFF AND DUP6 DUP6 PUSH1 0x0 DUP2 DUP2 LT PUSH2 0x67B JUMPI PUSH2 0x67A PUSH2 0x2F62 JUMP JUMPDEST JUMPDEST SWAP1 POP PUSH1 0x20 MUL ADD PUSH1 0x20 DUP2 ADD SWAP1 PUSH2 0x690 SWAP2 SWAP1 PUSH2 0x2B82 JUMP JUMPDEST PUSH20 0xFFFFFFFFFFFFFFFFFFFFFFFFFFFFFFFFFFFFFFFF AND EQ DUP1 ISZERO PUSH2 0x726 JUMPI POP PUSH32 0x0 PUSH20 0xFFFFFFFFFFFFFFFFFFFFFFFFFFFFFFFFFFFFFFFF AND DUP6 DUP6 PUSH1 0x1 DUP2 DUP2 LT PUSH2 0x6F9 JUMPI PUSH2 0x6F8 PUSH2 0x2F62 JUMP JUMPDEST JUMPDEST SWAP1 POP PUSH1 0x20 MUL ADD PUSH1 0x20 DUP2 ADD SWAP1 PUSH2 0x70E SWAP2 SWAP1 PUSH2 0x2B82 JUMP JUMPDEST PUSH20 0xFFFFFFFFFFFFFFFFFFFFFFFFFFFFFFFFFFFFFFFF AND EQ JUMPDEST DUP1 ISZERO PUSH2 0x742 JUMPI POP PUSH2 0x741 PUSH8 0x71FCD096269E6AF6 PUSH1 0xC0 SHL PUSH2 0x2401 JUMP JUMPDEST JUMPDEST DUP1 PUSH2 0x85B JUMPI POP PUSH32 0x0 PUSH20 0xFFFFFFFFFFFFFFFFFFFFFFFFFFFFFFFFFFFFFFFF AND DUP6 DUP6 PUSH1 0x0 DUP2 DUP2 LT PUSH2 0x793 JUMPI PUSH2 0x792 PUSH2 0x2F62 JUMP JUMPDEST JUMPDEST SWAP1 POP PUSH1 0x20 MUL ADD PUSH1 0x20 DUP2 ADD SWAP1 PUSH2 0x7A8 SWAP2 SWAP1 PUSH2 0x2B82 JUMP JUMPDEST PUSH20 0xFFFFFFFFFFFFFFFFFFFFFFFFFFFFFFFFFFFFFFFF AND EQ DUP1 ISZERO PUSH2 0x83E JUMPI POP PUSH32 0x0 PUSH20 0xFFFFFFFFFFFFFFFFFFFFFFFFFFFFFFFFFFFFFFFF AND DUP6 DUP6 PUSH1 0x1 DUP2 DUP2 LT PUSH2 0x811 JUMPI PUSH2 0x810 PUSH2 0x2F62 JUMP JUMPDEST JUMPDEST SWAP1 POP PUSH1 0x20 MUL ADD PUSH1 0x20 DUP2 ADD SWAP1 PUSH2 0x826 SWAP2 SWAP1 PUSH2 0x2B82 JUMP JUMPDEST PUSH20 0xFFFFFFFFFFFFFFFFFFFFFFFFFFFFFFFFFFFFFFFF AND EQ JUMPDEST DUP1 ISZERO PUSH2 0x85A JUMPI POP PUSH2 0x859 PUSH8 0xDAA4E1322F4EFCEB PUSH1 0xC0 SHL PUSH2 0x2401 JUMP JUMPDEST JUMPDEST JUMPDEST PUSH2 0x89A JUMPI PUSH1 0x40 MLOAD PUSH32 0x8C379A000000000000000000000000000000000000000000000000000000000 DUP2 MSTORE PUSH1 0x4 ADD PUSH2 0x891 SWAP1 PUSH2 0x2FDD JUMP JUMPDEST PUSH1 0x40 MLOAD DUP1 SWAP2 SUB SWAP1 REVERT JUMPDEST PUSH2 0x8AE PUSH8 0xEE010973C198DE9D PUSH1 0xC0 SHL PUSH2 0x23FE JUMP JUMPDEST PUSH2 0x8C2 PUSH8 0xCFB2002E100BFC52 PUSH1 0xC0 SHL PUSH2 0x23FE JUMP JUMPDEST PUSH2 0x8D6 PUSH8 0xE654D31C3BA93598 PUSH1 0xC0 SHL PUSH2 0x23FE JUMP JUMPDEST PUSH1 0x0 DUP1 SLOAD SWAP1 POP PUSH2 0x8F0 PUSH8 0x1E442D44C8A1682F PUSH1 0xC0 SHL PUSH2 0x23FE JUMP JUMPDEST PUSH2 0x904 PUSH8 0x99F13E8236DB5731 PUSH1 0xC0 SHL PUSH2 0x23FE JUMP JUMPDEST PUSH1 0x0 PUSH1 0x1 SLOAD SWAP1 POP PUSH2 0x91F PUSH8 0x5D5B90B67C42D509 PUSH1 0xC0 SHL PUSH2 0x23FE JUMP JUMPDEST PUSH1 0x2 PUSH8 0xFFFFFFFFFFFFFFFF DUP2 GT ISZERO PUSH2 0x93A JUMPI PUSH2 0x939 PUSH2 0x2FFD JUMP JUMPDEST JUMPDEST PUSH1 0x40 MLOAD SWAP1 DUP1 DUP3 MSTORE DUP1 PUSH1 0x20 MUL PUSH1 0x20 ADD DUP3 ADD PUSH1 0x40 MSTORE DUP1 ISZERO PUSH2 0x968 JUMPI DUP2 PUSH1 0x20 ADD PUSH1 0x20 DUP3 MUL DUP1 CALLDATASIZE DUP4 CALLDATACOPY DUP1 DUP3 ADD SWAP2 POP POP SWAP1 POP JUMPDEST POP SWAP3 POP PUSH2 0x97F PUSH8 0xFFDBF1FBB44426DF PUSH1 0xC0 SHL PUSH2 0x23FE JUMP JUMPDEST DUP9 DUP4 PUSH1 0x0 DUP2 MLOAD DUP2 LT PUSH2 0x994 JUMPI PUSH2 0x993 PUSH2 0x2F62 JUMP JUMPDEST JUMPDEST PUSH1 0x20 MUL PUSH1 0x20 ADD ADD DUP2 DUP2 MSTORE POP POP PUSH2 0x9B4 PUSH8 0x83DC98CE2D23507B PUSH1 0xC0 SHL PUSH2 0x23FE JUMP JUMPDEST PUSH2 0x9C8 PUSH8 0xFA63B74D747FFBDF PUSH1 0xC0 SHL PUSH2 0x23FE JUMP JUMPDEST PUSH1 0x0 DUP1 PUSH32 0x0 PUSH20 0xFFFFFFFFFFFFFFFFFFFFFFFFFFFFFFFFFFFFFFFF AND DUP10 DUP10 PUSH1 0x0 DUP2 DUP2 LT PUSH2 0xA16 JUMPI PUSH2 0xA15 PUSH2 0x2F62 JUMP JUMPDEST JUMPDEST SWAP1 POP PUSH1 0x20 MUL ADD PUSH1 0x20 DUP2 ADD SWAP1 PUSH2 0xA2B SWAP2 SWAP1 PUSH2 0x2B82 JUMP JUMPDEST PUSH20 0xFFFFFFFFFFFFFFFFFFFFFFFFFFFFFFFFFFFFFFFF AND EQ DUP1 PUSH2 0xA5D JUMPI POP PUSH2 0xA5C PUSH8 0xB0C298B73E522731 PUSH1 0xC0 SHL PUSH2 0x240C JUMP JUMPDEST JUMPDEST DUP1 ISZERO PUSH2 0xA79 JUMPI POP PUSH2 0xA78 PUSH8 0x87AA3FF03D6F9794 PUSH1 0xC0 SHL PUSH2 0x2401 JUMP JUMPDEST JUMPDEST PUSH2 0xA84 JUMPI DUP3 DUP5 PUSH2 0xA87 JUMP JUMPDEST DUP4 DUP4 JUMPDEST SWAP2 POP SWAP2 POP PUSH2 0xA9F PUSH8 0xD97554272EDB9D6A PUSH1 0xC0 SHL PUSH2 0x23FE JUMP JUMPDEST PUSH2 0xAAA DUP12 DUP4 DUP4 PUSH2 0x2A2 JUMP JUMPDEST DUP6 PUSH1 0x1 DUP2 MLOAD DUP2 LT PUSH2 0xABE JUMPI PUSH2 0xABD PUSH2 0x2F62 JUMP JUMPDEST JUMPDEST PUSH1 0x20 MUL PUSH1 0x20 ADD ADD DUP2 DUP2 MSTORE POP POP PUSH2 0xADE PUSH8 0x7EDB404BF9C46D06 PUSH1 0xC0 SHL PUSH2 0x23FE JUMP JUMPDEST PUSH2 0xAF2 PUSH8 0x920A8B7D705AFC0B PUSH1 0xC0 SHL PUSH2 0x23FE JUMP JUMPDEST PUSH2 0xB06 PUSH8 0xD59D7C29D92DDA58 PUSH1 0xC0 SHL PUSH2 0x23FE JUMP JUMPDEST DUP10 DUP6 PUSH1 0x1 DUP2 MLOAD DUP2 LT PUSH2 0xB1B JUMPI PUSH2 0xB1A PUSH2 0x2F62 JUMP JUMPDEST JUMPDEST PUSH1 0x20 MUL PUSH1 0x20 ADD ADD MLOAD LT ISZERO PUSH2 0xB64 JUMPI PUSH1 0x40 MLOAD PUSH32 0x8C379A000000000000000000000000000000000000000000000000000000000 DUP2 MSTORE PUSH1 0x4 ADD PUSH2 0xB5B SWAP1 PUSH2 0x3078 JUMP JUMPDEST PUSH1 0x40 MLOAD DUP1 SWAP2 SUB SWAP1 REVERT JUMPDEST PUSH2 0xB78 PUSH8 0x7A9F2A4425BD2E7D PUSH1 0xC0 SHL PUSH2 0x23FE JUMP JUMPDEST PUSH2 0xB8C PUSH8 0xD1384E4009F3CEA6 PUSH1 0xC0 SHL PUSH2 0x23FE JUMP JUMPDEST PUSH2 0xBA0 PUSH8 0x7689A344F939942F PUSH1 0xC0 SHL PUSH2 0x23FE JUMP JUMPDEST PUSH32 0x0 PUSH20 0xFFFFFFFFFFFFFFFFFFFFFFFFFFFFFFFFFFFFFFFF AND DUP10 DUP10 PUSH1 0x0 DUP2 DUP2 LT PUSH2 0xBEB JUMPI PUSH2 0xBEA PUSH2 0x2F62 JUMP JUMPDEST JUMPDEST SWAP1 POP PUSH1 0x20 MUL ADD PUSH1 0x20 DUP2 ADD SWAP1 PUSH2 0xC00 SWAP2 SWAP1 PUSH2 0x2B82 JUMP JUMPDEST PUSH20 0xFFFFFFFFFFFFFFFFFFFFFFFFFFFFFFFFFFFFFFFF AND SUB PUSH2 0xC9D JUMPI PUSH2 0xC2F PUSH8 0x4082349B11C00B5E PUSH1 0xC0 SHL PUSH2 0x23FE JUMP JUMPDEST PUSH2 0xC43 PUSH8 0xB5A0A6C4E9D7EA4 PUSH1 0xC0 SHL PUSH2 0x23FE JUMP JUMPDEST PUSH2 0xC57 PUSH8 0xC0B2F47DE7A8B99B PUSH1 0xC0 SHL PUSH2 0x23FE JUMP JUMPDEST DUP11 DUP5 ADD PUSH1 0x0 DUP2 SWAP1 SSTORE POP PUSH2 0xC74 PUSH8 0xC1D4FADB722BDA14 PUSH1 0xC0 SHL PUSH2 0x23FE JUMP JUMPDEST DUP5 PUSH1 0x1 DUP2 MLOAD DUP2 LT PUSH2 0xC88 JUMPI PUSH2 0xC87 PUSH2 0x2F62 JUMP JUMPDEST JUMPDEST PUSH1 0x20 MUL PUSH1 0x20 ADD ADD MLOAD DUP4 SUB PUSH1 0x1 DUP2 SWAP1 SSTORE POP PUSH2 0xD1B JUMP JUMPDEST PUSH2 0xCB1 PUSH8 0xA0CD52C8EBF74A6 PUSH1 0xC0 SHL PUSH2 0x23FE JUMP JUMPDEST PUSH2 0xCC5 PUSH8 0x4121E2D2B516B926 PUSH1 0xC0 SHL PUSH2 0x23FE JUMP JUMPDEST PUSH2 0xCD9 PUSH8 0xB1D830AFC856F695 PUSH1 0xC0 SHL PUSH2 0x23FE JUMP JUMPDEST DUP11 DUP4 ADD PUSH1 0x1 DUP2 SWAP1 SSTORE POP PUSH2 0xCF6 PUSH8 0x2AFD675ABC8594F1 PUSH1 0xC0 SHL PUSH2 0x23FE JUMP JUMPDEST DUP5 PUSH1 0x1 DUP2 MLOAD DUP2 LT PUSH2 0xD0A JUMPI PUSH2 0xD09 PUSH2 0x2F62 JUMP JUMPDEST JUMPDEST PUSH1 0x20 MUL PUSH1 0x20 ADD ADD MLOAD DUP5 SUB PUSH1 0x0 DUP2 SWAP1 SSTORE POP JUMPDEST PUSH2 0xD2F PUSH8 0x555E1EA55394FA90 PUSH1 0xC0 SHL PUSH2 0x23FE JUMP JUMPDEST PUSH2 0xD43 PUSH8 0xF91D216415C4BB55 PUSH1 0xC0 SHL PUSH2 0x23FE JUMP JUMPDEST DUP9 DUP9 PUSH1 0x0 DUP2 DUP2 LT PUSH2 0xD57 JUMPI PUSH2 0xD56 PUSH2 0x2F62 JUMP JUMPDEST JUMPDEST SWAP1 POP PUSH1 0x20 MUL ADD PUSH1 0x20 DUP2 ADD SWAP1 PUSH2 0xD6C SWAP2 SWAP1 PUSH2 0x2B82 JUMP JUMPDEST PUSH20 0xFFFFFFFFFFFFFFFFFFFFFFFFFFFFFFFFFFFFFFFF AND PUSH4 0x23B872DD CALLER ADDRESS DUP9 PUSH1 0x0 DUP2 MLOAD DUP2 LT PUSH2 0xD9D JUMPI PUSH2 0xD9C PUSH2 0x2F62 JUMP JUMPDEST JUMPDEST PUSH1 0x20 MUL PUSH1 0x20 ADD ADD MLOAD PUSH1 0x40 MLOAD DUP5 PUSH4 0xFFFFFFFF AND PUSH1 0xE0 SHL DUP2 MSTORE PUSH1 0x4 ADD PUSH2 0xDC3 SWAP4 SWAP3 SWAP2 SWAP1 PUSH2 0x3098 JUMP JUMPDEST PUSH1 0x20 PUSH1 0x40 MLOAD DUP1 DUP4 SUB DUP2 PUSH1 0x0 DUP8 GAS CALL ISZERO DUP1 ISZERO PUSH2 0xDE2 JUMPI RETURNDATASIZE PUSH1 0x0 DUP1 RETURNDATACOPY RETURNDATASIZE PUSH1 0x0 REVERT JUMPDEST POP POP POP POP PUSH1 0x40 MLOAD RETURNDATASIZE PUSH1 0x1F NOT PUSH1 0x1F DUP3 ADD AND DUP3 ADD DUP1 PUSH1 0x40 MSTORE POP DUP2 ADD SWAP1 PUSH2 0xE06 SWAP2 SWAP1 PUSH2 0x3107 JUMP JUMPDEST POP PUSH2 0xE1B PUSH8 0x9A59D75DD695771A PUSH1 0xC0 SHL PUSH2 0x23FE JUMP JUMPDEST PUSH2 0xE2F PUSH8 0xA083BFB91025D723 PUSH1 0xC0 SHL PUSH2 0x23FE JUMP JUMPDEST DUP9 DUP9 PUSH1 0x1 DUP2 DUP2 LT PUSH2 0xE43 JUMPI PUSH2 0xE42 PUSH2 0x2F62 JUMP JUMPDEST JUMPDEST SWAP1 POP PUSH1 0x20 MUL ADD PUSH1 0x20 DUP2 ADD SWAP1 PUSH2 0xE58 SWAP2 SWAP1 PUSH2 0x2B82 JUMP JUMPDEST PUSH20 0xFFFFFFFFFFFFFFFFFFFFFFFFFFFFFFFFFFFFFFFF AND PUSH4 0xA9059CBB DUP9 DUP8 PUSH1 0x1 DUP2 MLOAD DUP2 LT PUSH2 0xE88 JUMPI PUSH2 0xE87 PUSH2 0x2F62 JUMP JUMPDEST JUMPDEST PUSH1 0x20 MUL PUSH1 0x20 ADD ADD MLOAD PUSH1 0x40 MLOAD DUP4 PUSH4 0xFFFFFFFF AND PUSH1 0xE0 SHL DUP2 MSTORE PUSH1 0x4 ADD PUSH2 0xEAD SWAP3 SWAP2 SWAP1 PUSH2 0x3134 JUMP JUMPDEST PUSH1 0x20 PUSH1 0x40 MLOAD DUP1 DUP4 SUB DUP2 PUSH1 0x0 DUP8 GAS CALL ISZERO DUP1 ISZERO PUSH2 0xECC JUMPI RETURNDATASIZE PUSH1 0x0 DUP1 RETURNDATACOPY RETURNDATASIZE PUSH1 0x0 REVERT JUMPDEST POP POP POP POP PUSH1 0x40 MLOAD RETURNDATASIZE PUSH1 0x1F NOT PUSH1 0x1F DUP3 ADD AND DUP3 ADD DUP1 PUSH1 0x40 MSTORE POP DUP2 ADD SWAP1 PUSH2 0xEF0 SWAP2 SWAP1 PUSH2 0x3107 JUMP JUMPDEST POP PUSH2 0xF05 PUSH8 0x85CE9D8C3549F17F PUSH1 0xC0 SHL PUSH2 0x23FE JUMP JUMPDEST PUSH2 0xF19 PUSH8 0x74392EAB9F707AD6 PUSH1 0xC0 SHL PUSH2 0x23FE JUMP JUMPDEST CALLER PUSH20 0xFFFFFFFFFFFFFFFFFFFFFFFFFFFFFFFFFFFFFFFF AND PUSH32 0xCD3829A3813DC3CDD188FD3D01DCF3268C16BE2FDD2DD21D0665418816E46062 DUP11 DUP11 PUSH1 0x0 DUP2 DUP2 LT PUSH2 0xF65 JUMPI PUSH2 0xF64 PUSH2 0x2F62 JUMP JUMPDEST JUMPDEST SWAP1 POP PUSH1 0x20 MUL ADD PUSH1 0x20 DUP2 ADD SWAP1 PUSH2 0xF7A SWAP2 SWAP1 PUSH2 0x2B82 JUMP JUMPDEST DUP12 DUP12 PUSH1 0x1 DUP2 DUP2 LT PUSH2 0xF8E JUMPI PUSH2 0xF8D PUSH2 0x2F62 JUMP JUMPDEST JUMPDEST SWAP1 POP PUSH1 0x20 MUL ADD PUSH1 0x20 DUP2 ADD SWAP1 PUSH2 0xFA3 SWAP2 SWAP1 PUSH2 0x2B82 JUMP JUMPDEST DUP9 PUSH1 0x0 DUP2 MLOAD DUP2 LT PUSH2 0xFB7 JUMPI PUSH2 0xFB6 PUSH2 0x2F62 JUMP JUMPDEST JUMPDEST PUSH1 0x20 MUL PUSH1 0x20 ADD ADD MLOAD DUP10 PUSH1 0x1 DUP2 MLOAD DUP2 LT PUSH2 0xFD3 JUMPI PUSH2 0xFD2 PUSH2 0x2F62 JUMP JUMPDEST JUMPDEST PUSH1 0x20 MUL PUSH1 0x20 ADD ADD MLOAD PUSH1 0x40 MLOAD PUSH2 0xFEB SWAP5 SWAP4 SWAP3 SWAP2 SWAP1 PUSH2 0x315D JUMP JUMPDEST PUSH1 0x40 MLOAD DUP1 SWAP2 SUB SWAP1 LOG2 POP POP POP POP SWAP7 SWAP6 POP POP POP POP POP POP JUMP JUMPDEST PUSH32 0x0 DUP2 JUMP JUMPDEST PUSH1 0x0 PUSH2 0x103B PUSH8 0xCB89B774AA5AD3F2 PUSH1 0xC0 SHL PUSH2 0x23FE JUMP JUMPDEST PUSH2 0x104F PUSH8 0x4304AF99ED3E9E9D PUSH1 0xC0 SHL PUSH2 0x23FE JUMP JUMPDEST PUSH2 0x1063 PUSH8 0xCC13A20A1C913F63 PUSH1 0xC0 SHL PUSH2 0x23FE JUMP JUMPDEST PUSH1 0x0 DUP3 SUB PUSH2 0x109C JUMPI PUSH2 0x107F PUSH8 0x3E327C2CD7BACB37 PUSH1 0xC0 SHL PUSH2 0x23FE JUMP JUMPDEST PUSH2 0x1093 PUSH8 0xAE93196E75C82A3F PUSH1 0xC0 SHL PUSH2 0x23FE JUMP JUMPDEST PUSH1 0x0 SWAP1 POP PUSH2 0x1209 JUMP JUMPDEST PUSH2 0x10B0 PUSH8 0xC8261BD17BA10E9 PUSH1 0xC0 SHL PUSH2 0x23FE JUMP JUMPDEST PUSH2 0x10C4 PUSH8 0x50F00931CD61EF5E PUSH1 0xC0 SHL PUSH2 0x23FE JUMP JUMPDEST PUSH2 0x10D8 PUSH8 0x32F05CB0A152D41C PUSH1 0xC0 SHL PUSH2 0x23FE JUMP JUMPDEST PUSH1 0x3 DUP3 GT PUSH2 0x1111 JUMPI PUSH2 0x10F4 PUSH8 0x275ED0D191785E44 PUSH1 0xC0 SHL PUSH2 0x23FE JUMP JUMPDEST PUSH2 0x1108 PUSH8 0x70E94A932BD78D3D PUSH1 0xC0 SHL PUSH2 0x23FE JUMP JUMPDEST PUSH1 0x1 SWAP1 POP PUSH2 0x1209 JUMP JUMPDEST PUSH2 0x1125 PUSH8 0x7473FE6271831FF9 PUSH1 0xC0 SHL PUSH2 0x23FE JUMP JUMPDEST PUSH2 0x1139 PUSH8 0x63615DDB40E5444 PUSH1 0xC0 SHL PUSH2 0x23FE JUMP JUMPDEST DUP2 SWAP1 POP PUSH2 0x1150 PUSH8 0x4E9B51BBA8A7FB19 PUSH1 0xC0 SHL PUSH2 0x23FE JUMP JUMPDEST PUSH2 0x1164 PUSH8 0x7E78457FF22119A1 PUSH1 0xC0 SHL PUSH2 0x23FE JUMP JUMPDEST PUSH1 0x0 PUSH1 0x1 PUSH1 0x2 DUP5 PUSH2 0x1175 SWAP2 SWAP1 PUSH2 0x2E59 JUMP JUMPDEST PUSH2 0x117F SWAP2 SWAP1 PUSH2 0x2DF6 JUMP JUMPDEST SWAP1 POP PUSH2 0x1195 PUSH8 0x9CF4D0E5336385F9 PUSH1 0xC0 SHL PUSH2 0x23FE JUMP JUMPDEST PUSH2 0x11A9 PUSH8 0x97FD6763B123CEFD PUSH1 0xC0 SHL PUSH2 0x23FE JUMP JUMPDEST JUMPDEST DUP2 DUP2 LT ISZERO PUSH2 0x1207 JUMPI PUSH2 0x11C6 PUSH8 0x19095CD23C5CAFBB PUSH1 0xC0 SHL PUSH2 0x23FE JUMP JUMPDEST DUP1 SWAP2 POP PUSH2 0x11DD PUSH8 0x430AB340676E7993 PUSH1 0xC0 SHL PUSH2 0x23FE JUMP JUMPDEST PUSH1 0x2 DUP2 DUP3 DUP6 PUSH2 0x11EC SWAP2 SWAP1 PUSH2 0x2E59 JUMP JUMPDEST PUSH2 0x11F6 SWAP2 SWAP1 PUSH2 0x2DF6 JUMP JUMPDEST PUSH2 0x1200 SWAP2 SWAP1 PUSH2 0x2E59 JUMP JUMPDEST SWAP1 POP PUSH2 0x11AA JUMP JUMPDEST POP JUMPDEST SWAP2 SWAP1 POP JUMP JUMPDEST PUSH1 0x0 PUSH2 0x1224 PUSH8 0x756C654CA4B05122 PUSH1 0xC0 SHL PUSH2 0x23FE JUMP JUMPDEST PUSH2 0x1238 PUSH8 0xA377337FDDAFA45A PUSH1 0xC0 SHL PUSH2 0x23FE JUMP JUMPDEST PUSH2 0x124C PUSH8 0x62D887083A4E8AD0 PUSH1 0xC0 SHL PUSH2 0x23FE JUMP JUMPDEST PUSH2 0x1260 PUSH8 0xDC16C0465A8D2D22 PUSH1 0xC0 SHL PUSH2 0x23FE JUMP JUMPDEST PUSH32 0x0 PUSH20 0xFFFFFFFFFFFFFFFFFFFFFFFFFFFFFFFFFFFFFFFF AND DUP4 PUSH20 0xFFFFFFFFFFFFFFFFFFFFFFFFFFFFFFFFFFFFFFFF AND EQ DUP1 ISZERO PUSH2 0x1306 JUMPI POP PUSH32 0x0 PUSH20 0xFFFFFFFFFFFFFFFFFFFFFFFFFFFFFFFFFFFFFFFF AND DUP3 PUSH20 0xFFFFFFFFFFFFFFFFFFFFFFFFFFFFFFFFFFFFFFFF AND EQ JUMPDEST PUSH2 0x1345 JUMPI PUSH1 0x40 MLOAD PUSH32 0x8C379A000000000000000000000000000000000000000000000000000000000 DUP2 MSTORE PUSH1 0x4 ADD PUSH2 0x133C SWAP1 PUSH2 0x2FDD JUMP JUMPDEST PUSH1 0x40 MLOAD DUP1 SWAP2 SUB SWAP1 REVERT JUMPDEST PUSH2 0x1359 PUSH8 0x5038E0E70ACA9D5B PUSH1 0xC0 SHL PUSH2 0x23FE JUMP JUMPDEST PUSH2 0x136D PUSH8 0x2F3D587E576D3C8C PUSH1 0xC0 SHL PUSH2 0x23FE JUMP JUMPDEST PUSH2 0x1381 PUSH8 0xD04171ED5D8C9F69 PUSH1 0xC0 SHL PUSH2 0x23FE JUMP JUMPDEST PUSH2 0x1395 PUSH8 0xF9DF10485D698E87 PUSH1 0xC0 SHL PUSH2 0x23FE JUMP JUMPDEST PUSH1 0x0 DUP1 SLOAD GT DUP1 ISZERO PUSH2 0x13A8 JUMPI POP PUSH1 0x0 PUSH1 0x1 SLOAD GT JUMPDEST PUSH2 0x13E7 JUMPI PUSH1 0x40 MLOAD PUSH32 0x8C379A000000000000000000000000000000000000000000000000000000000 DUP2 MSTORE PUSH1 0x4 ADD PUSH2 0x13DE SWAP1 PUSH2 0x31EE JUMP JUMPDEST PUSH1 0x40 MLOAD DUP1 SWAP2 SUB SWAP1 REVERT JUMPDEST PUSH2 0x13FB PUSH8 0x76389EE6F99E37F0 PUSH1 0xC0 SHL PUSH2 0x23FE JUMP JUMPDEST PUSH2 0x140F PUSH8 0xCFB3A75C33F238CF PUSH1 0xC0 SHL PUSH2 0x23FE JUMP JUMPDEST PUSH1 0x0 SLOAD PUSH8 0xDE0B6B3A7640000 PUSH1 0x1 SLOAD PUSH2 0x1428 SWAP2 SWAP1 PUSH2 0x2DB4 JUMP JUMPDEST PUSH2 0x1432 SWAP2 SWAP1 PUSH2 0x2E59 JUMP JUMPDEST SWAP1 POP SWAP3 SWAP2 POP POP JUMP JUMPDEST PUSH1 0x0 DUP1 PUSH2 0x1451 PUSH8 0x171B1B5F7B507428 PUSH1 0xC0 SHL PUSH2 0x23FE JUMP JUMPDEST PUSH2 0x1465 PUSH8 0xE85DADCDB27DEA7D PUSH1 0xC0 SHL PUSH2 0x23FE JUMP JUMPDEST PUSH2 0x1479 PUSH8 0x1E6C620F3AD35A9F PUSH1 0xC0 SHL PUSH2 0x23FE JUMP JUMPDEST PUSH2 0x148D PUSH8 0x4DD217858CD8F3F0 PUSH1 0xC0 SHL PUSH2 0x23FE JUMP JUMPDEST TIMESTAMP DUP4 LT ISZERO PUSH2 0x14D0 JUMPI PUSH1 0x40 MLOAD PUSH32 0x8C379A000000000000000000000000000000000000000000000000000000000 DUP2 MSTORE PUSH1 0x4 ADD PUSH2 0x14C7 SWAP1 PUSH2 0x2ED6 JUMP JUMPDEST PUSH1 0x40 MLOAD DUP1 SWAP2 SUB SWAP1 REVERT JUMPDEST PUSH2 0x14E4 PUSH8 0xA02500FF6109FB45 PUSH1 0xC0 SHL PUSH2 0x23FE JUMP JUMPDEST PUSH2 0x14F8 PUSH8 0x2A8EE05DB16479B5 PUSH1 0xC0 SHL PUSH2 0x23FE JUMP JUMPDEST PUSH2 0x150C PUSH8 0x4883B3E567617A04 PUSH1 0xC0 SHL PUSH2 0x23FE JUMP JUMPDEST PUSH2 0x1520 PUSH8 0xA3B61405F0485E7D PUSH1 0xC0 SHL PUSH2 0x23FE JUMP JUMPDEST PUSH32 0x0 PUSH20 0xFFFFFFFFFFFFFFFFFFFFFFFFFFFFFFFFFFFFFFFF AND DUP10 PUSH20 0xFFFFFFFFFFFFFFFFFFFFFFFFFFFFFFFFFFFFFFFF AND EQ DUP1 ISZERO PUSH2 0x15C6 JUMPI POP PUSH32 0x0 PUSH20 0xFFFFFFFFFFFFFFFFFFFFFFFFFFFFFFFFFFFFFFFF AND DUP9 PUSH20 0xFFFFFFFFFFFFFFFFFFFFFFFFFFFFFFFFFFFFFFFF AND EQ JUMPDEST PUSH2 0x1605 JUMPI PUSH1 0x40 MLOAD PUSH32 0x8C379A000000000000000000000000000000000000000000000000000000000 DUP2 MSTORE PUSH1 0x4 ADD PUSH2 0x15FC SWAP1 PUSH2 0x2FDD JUMP JUMPDEST PUSH1 0x40 MLOAD DUP1 SWAP2 SUB SWAP1 REVERT JUMPDEST PUSH2 0x1619 PUSH8 0x679945A5871422CD PUSH1 0xC0 SHL PUSH2 0x23FE JUMP JUMPDEST PUSH2 0x162D PUSH8 0xB790959363AC80F4 PUSH1 0xC0 SHL PUSH2 0x23FE JUMP JUMPDEST PUSH2 0x1641 PUSH8 0x17CC43E08FC1252D PUSH1 0xC0 SHL PUSH2 0x23FE JUMP JUMPDEST PUSH2 0x1655 PUSH8 0xC7D82B17FCD834E8 PUSH1 0xC0 SHL PUSH2 0x23FE JUMP JUMPDEST DUP7 PUSH1 0x3 PUSH1 0x0 CALLER PUSH20 0xFFFFFFFFFFFFFFFFFFFFFFFFFFFFFFFFFFFFFFFF AND PUSH20 0xFFFFFFFFFFFFFFFFFFFFFFFFFFFFFFFFFFFFFFFF AND DUP2 MSTORE PUSH1 0x20 ADD SWAP1 DUP2 MSTORE PUSH1 0x20 ADD PUSH1 0x0 KECCAK256 SLOAD LT ISZERO PUSH2 0x16D7 JUMPI PUSH1 0x40 MLOAD PUSH32 0x8C379A000000000000000000000000000000000000000000000000000000000 DUP2 MSTORE PUSH1 0x4 ADD PUSH2 0x16CE SWAP1 PUSH2 0x2D65 JUMP JUMPDEST PUSH1 0x40 MLOAD DUP1 SWAP2 SUB SWAP1 REVERT JUMPDEST PUSH2 0x16EB PUSH8 0x4E6F154BD724AB7B PUSH1 0xC0 SHL PUSH2 0x23FE JUMP JUMPDEST PUSH2 0x16FF PUSH8 0x8C2E5CC1164CC072 PUSH1 0xC0 SHL PUSH2 0x23FE JUMP JUMPDEST PUSH2 0x1713 PUSH8 0xD4F71CB4503CACA8 PUSH1 0xC0 SHL PUSH2 0x23FE JUMP JUMPDEST PUSH1 0x0 DUP1 SLOAD SWAP1 POP PUSH2 0x172D PUSH8 0x495C241E79D2F4F0 PUSH1 0xC0 SHL PUSH2 0x23FE JUMP JUMPDEST PUSH2 0x1741 PUSH8 0xECEA0908C9DF7418 PUSH1 0xC0 SHL PUSH2 0x23FE JUMP JUMPDEST PUSH1 0x0 PUSH1 0x1 SLOAD SWAP1 POP PUSH2 0x175C PUSH8 0x709384AB0D76AB5B PUSH1 0xC0 SHL PUSH2 0x23FE JUMP JUMPDEST PUSH2 0x1770 PUSH8 0xD5738D34895564BC PUSH1 0xC0 SHL PUSH2 0x23FE JUMP JUMPDEST PUSH1 0x0 PUSH1 0x2 SLOAD SWAP1 POP PUSH2 0x178B PUSH8 0xBA7EF8D99B844691 PUSH1 0xC0 SHL PUSH2 0x23FE JUMP JUMPDEST DUP1 DUP4 DUP12 PUSH2 0x1798 SWAP2 SWAP1 PUSH2 0x2DB4 JUMP JUMPDEST PUSH2 0x17A2 SWAP2 SWAP1 PUSH2 0x2E59 JUMP JUMPDEST SWAP5 POP PUSH2 0x17B8 PUSH8 0xF7BA5034E810F311 PUSH1 0xC0 SHL PUSH2 0x23FE JUMP JUMPDEST DUP1 DUP3 DUP12 PUSH2 0x17C5 SWAP2 SWAP1 PUSH2 0x2DB4 JUMP JUMPDEST PUSH2 0x17CF SWAP2 SWAP1 PUSH2 0x2E59 JUMP JUMPDEST SWAP4 POP PUSH2 0x17E5 PUSH8 0x26EEF342C1F11CF5 PUSH1 0xC0 SHL PUSH2 0x23FE JUMP JUMPDEST PUSH2 0x17F9 PUSH8 0xAA8503B3CB38E50F PUSH1 0xC0 SHL PUSH2 0x23FE JUMP JUMPDEST PUSH2 0x180D PUSH8 0xC7A7C7BD70B19644 PUSH1 0xC0 SHL PUSH2 0x23FE JUMP JUMPDEST DUP9 DUP6 LT ISZERO PUSH2 0x1850 JUMPI PUSH1 0x40 MLOAD PUSH32 0x8C379A000000000000000000000000000000000000000000000000000000000 DUP2 MSTORE PUSH1 0x4 ADD PUSH2 0x1847 SWAP1 PUSH2 0x325A JUMP JUMPDEST PUSH1 0x40 MLOAD DUP1 SWAP2 SUB SWAP1 REVERT JUMPDEST PUSH2 0x1864 PUSH8 0x937AF720EEA324F0 PUSH1 0xC0 SHL PUSH2 0x23FE JUMP JUMPDEST PUSH2 0x1878 PUSH8 0x8854A9BAF309E592 PUSH1 0xC0 SHL PUSH2 0x23FE JUMP JUMPDEST PUSH2 0x188C PUSH8 0x3F8B8DC6C1AE7042 PUSH1 0xC0 SHL PUSH2 0x23FE JUMP JUMPDEST PUSH2 0x18A0 PUSH8 0x9D37B79FDB52AD1C PUSH1 0xC0 SHL PUSH2 0x23FE JUMP JUMPDEST DUP8 DUP5 LT ISZERO PUSH2 0x18E3 JUMPI PUSH1 0x40 MLOAD PUSH32 0x8C379A000000000000000000000000000000000000000000000000000000000 DUP2 MSTORE PUSH1 0x4 ADD PUSH2 0x18DA SWAP1 PUSH2 0x32C6 JUMP JUMPDEST PUSH1 0x40 MLOAD DUP1 SWAP2 SUB SWAP1 REVERT JUMPDEST PUSH2 0x18F7 PUSH8 0xC87FBD8A7E53C7DC PUSH1 0xC0 SHL PUSH2 0x23FE JUMP JUMPDEST PUSH2 0x190B PUSH8 0x1DE7FD183B7C48EC PUSH1 0xC0 SHL PUSH2 0x23FE JUMP JUMPDEST PUSH2 0x191F PUSH8 0xE39DA713E63CF2FC PUSH1 0xC0 SHL PUSH2 0x23FE JUMP JUMPDEST DUP5 DUP4 SUB PUSH1 0x0 DUP2 SWAP1 SSTORE POP PUSH2 0x193C PUSH8 0x8C5100E11811FD1 PUSH1 0xC0 SHL PUSH2 0x23FE JUMP JUMPDEST DUP4 DUP3 SUB PUSH1 0x1 DUP2 SWAP1 SSTORE POP PUSH2 0x1959 PUSH8 0xC43A172D2DB4DFB0 PUSH1 0xC0 SHL PUSH2 0x23FE JUMP JUMPDEST DUP10 DUP2 PUSH2 0x1965 SWAP2 SWAP1 PUSH2 0x32E6 JUMP JUMPDEST PUSH1 0x2 DUP2 SWAP1 SSTORE POP PUSH2 0x197F PUSH8 0xB9CBB46E916FF684 PUSH1 0xC0 SHL PUSH2 0x23FE JUMP JUMPDEST DUP10 PUSH1 0x3 PUSH1 0x0 CALLER PUSH20 0xFFFFFFFFFFFFFFFFFFFFFFFFFFFFFFFFFFFFFFFF AND PUSH20 0xFFFFFFFFFFFFFFFFFFFFFFFFFFFFFFFFFFFFFFFF AND DUP2 MSTORE PUSH1 0x20 ADD SWAP1 DUP2 MSTORE PUSH1 0x20 ADD PUSH1 0x0 KECCAK256 PUSH1 0x0 DUP3 DUP3 SLOAD PUSH2 0x19CE SWAP2 SWAP1 PUSH2 0x32E6 JUMP JUMPDEST SWAP3 POP POP DUP2 SWAP1 SSTORE POP PUSH2 0x19E9 PUSH8 0x2D8FC91550270C34 PUSH1 0xC0 SHL PUSH2 0x23FE JUMP JUMPDEST PUSH2 0x19FD PUSH8 0x8E05E5B27A7BD66E PUSH1 0xC0 SHL PUSH2 0x23FE JUMP JUMPDEST PUSH32 0x0 PUSH20 0xFFFFFFFFFFFFFFFFFFFFFFFFFFFFFFFFFFFFFFFF AND PUSH4 0xA9059CBB DUP9 DUP8 PUSH1 0x40 MLOAD DUP4 PUSH4 0xFFFFFFFF AND PUSH1 0xE0 SHL DUP2 MSTORE PUSH1 0x4 ADD PUSH2 0x1A58 SWAP3 SWAP2 SWAP1 PUSH2 0x3134 JUMP JUMPDEST PUSH1 0x20 PUSH1 0x40 MLOAD DUP1 DUP4 SUB DUP2 PUSH1 0x0 DUP8 GAS CALL ISZERO DUP1 ISZERO PUSH2 0x1A77 JUMPI RETURNDATASIZE PUSH1 0x0 DUP1 RETURNDATACOPY RETURNDATASIZE PUSH1 0x0 REVERT JUMPDEST POP POP POP POP PUSH1 0x40 MLOAD RETURNDATASIZE PUSH1 0x1F NOT PUSH1 0x1F DUP3 ADD AND DUP3 ADD DUP1 PUSH1 0x40 MSTORE POP DUP2 ADD SWAP1 PUSH2 0x1A9B SWAP2 SWAP1 PUSH2 0x3107 JUMP JUMPDEST POP PUSH2 0x1AB0 PUSH8 0xAFDCDF6C1644E63 PUSH1 0xC0 SHL PUSH2 0x23FE JUMP JUMPDEST PUSH2 0x1AC4 PUSH8 0x64891F8B3E44206C PUSH1 0xC0 SHL PUSH2 0x23FE JUMP JUMPDEST PUSH32 0x0 PUSH20 0xFFFFFFFFFFFFFFFFFFFFFFFFFFFFFFFFFFFFFFFF AND PUSH4 0xA9059CBB DUP9 DUP7 PUSH1 0x40 MLOAD DUP4 PUSH4 0xFFFFFFFF AND PUSH1 0xE0 SHL DUP2 MSTORE PUSH1 0x4 ADD PUSH2 0x1B1F SWAP3 SWAP2 SWAP1 PUSH2 0x3134 JUMP JUMPDEST PUSH1 0x20 PUSH1 0x40 MLOAD DUP1 DUP4 SUB DUP2 PUSH1 0x0 DUP8 GAS CALL ISZERO DUP1 ISZERO PUSH2 0x1B3E JUMPI RETURNDATASIZE PUSH1 0x0 DUP1 RETURNDATACOPY RETURNDATASIZE PUSH1 0x0 REVERT JUMPDEST POP POP POP POP PUSH1 0x40 MLOAD RETURNDATASIZE PUSH1 0x1F NOT PUSH1 0x1F DUP3 ADD AND DUP3 ADD DUP1 PUSH1 0x40 MSTORE POP DUP2 ADD SWAP1 PUSH2 0x1B62 SWAP2 SWAP1 PUSH2 0x3107 JUMP JUMPDEST POP PUSH2 0x1B77 PUSH8 0xFE305B24C1ABE2D6 PUSH1 0xC0 SHL PUSH2 0x23FE JUMP JUMPDEST PUSH2 0x1B8B PUSH8 0x45B6ECDD706018CE PUSH1 0xC0 SHL PUSH2 0x23FE JUMP JUMPDEST DUP7 PUSH20 0xFFFFFFFFFFFFFFFFFFFFFFFFFFFFFFFFFFFFFFFF AND CALLER PUSH20 0xFFFFFFFFFFFFFFFFFFFFFFFFFFFFFFFFFFFFFFFF AND PUSH32 0xBC7D19D505C7EC4DB83F3B51F19FB98C4C8A99922E7839D1EE608DFBEE29501B DUP8 DUP8 DUP15 PUSH1 0x40 MLOAD PUSH2 0x1BEC SWAP4 SWAP3 SWAP2 SWAP1 PUSH2 0x2C65 JUMP JUMPDEST PUSH1 0x40 MLOAD DUP1 SWAP2 SUB SWAP1 LOG3 POP POP POP SWAP8 POP SWAP8 SWAP6 POP POP POP POP POP POP JUMP JUMPDEST PUSH1 0x0 SLOAD DUP2 JUMP JUMPDEST PUSH1 0x3 PUSH1 0x20 MSTORE DUP1 PUSH1 0x0 MSTORE PUSH1 0x40 PUSH1 0x0 KECCAK256 PUSH1 0x0 SWAP2 POP SWAP1 POP SLOAD DUP2 JUMP JUMPDEST PUSH1 0x0 DUP1 PUSH1 0x0 PUSH2 0x1C3A PUSH8 0x771A9784C2F62A0 PUSH1 0xC0 SHL PUSH2 0x23FE JUMP JUMPDEST PUSH2 0x1C4E PUSH8 0x28917ED07D97D4C2 PUSH1 0xC0 SHL PUSH2 0x23FE JUMP JUMPDEST PUSH2 0x1C62 PUSH8 0x222BF1D3ADB0A9CE PUSH1 0xC0 SHL PUSH2 0x23FE JUMP JUMPDEST PUSH2 0x1C76 PUSH8 0x8BB9A3B3988DB68F PUSH1 0xC0 SHL PUSH2 0x23FE JUMP JUMPDEST TIMESTAMP DUP5 LT ISZERO PUSH2 0x1CB9 JUMPI PUSH1 0x40 MLOAD PUSH32 0x8C379A000000000000000000000000000000000000000000000000000000000 DUP2 MSTORE PUSH1 0x4 ADD PUSH2 0x1CB0 SWAP1 PUSH2 0x2ED6 JUMP JUMPDEST PUSH1 0x40 MLOAD DUP1 SWAP2 SUB SWAP1 REVERT JUMPDEST PUSH2 0x1CCD PUSH8 0xD89C575128CBC05F PUSH1 0xC0 SHL PUSH2 0x23FE JUMP JUMPDEST PUSH2 0x1CE1 PUSH8 0xB7503F68074754E2 PUSH1 0xC0 SHL PUSH2 0x23FE JUMP JUMPDEST PUSH2 0x1CF5 PUSH8 0x3EC9A3859E032922 PUSH1 0xC0 SHL PUSH2 0x23FE JUMP JUMPDEST PUSH2 0x1D09 PUSH8 0x8F5E0D5822E9C2A0 PUSH1 0xC0 SHL PUSH2 0x23FE JUMP JUMPDEST PUSH32 0x0 PUSH20 0xFFFFFFFFFFFFFFFFFFFFFFFFFFFFFFFFFFFFFFFF AND DUP12 PUSH20 0xFFFFFFFFFFFFFFFFFFFFFFFFFFFFFFFFFFFFFFFF AND EQ DUP1 ISZERO PUSH2 0x1DAF JUMPI POP PUSH32 0x0 PUSH20 0xFFFFFFFFFFFFFFFFFFFFFFFFFFFFFFFFFFFFFFFF AND DUP11 PUSH20 0xFFFFFFFFFFFFFFFFFFFFFFFFFFFFFFFFFFFFFFFF AND EQ JUMPDEST PUSH2 0x1DEE JUMPI PUSH1 0x40 MLOAD PUSH32 0x8C379A000000000000000000000000000000000000000000000000000000000 DUP2 MSTORE PUSH1 0x4 ADD PUSH2 0x1DE5 SWAP1 PUSH2 0x2FDD JUMP JUMPDEST PUSH1 0x40 MLOAD DUP1 SWAP2 SUB SWAP1 REVERT JUMPDEST PUSH2 0x1E02 PUSH8 0x17531D13AC25E0F8 PUSH1 0xC0 SHL PUSH2 0x23FE JUMP JUMPDEST PUSH2 0x1E16 PUSH8 0x70465539B81E9487 PUSH1 0xC0 SHL PUSH2 0x23FE JUMP JUMPDEST PUSH2 0x1E2A PUSH8 0x93F6C123B136B369 PUSH1 0xC0 SHL PUSH2 0x23FE JUMP JUMPDEST PUSH1 0x0 DUP1 SLOAD SWAP1 POP PUSH2 0x1E44 PUSH8 0x479DFD21551BE7C4 PUSH1 0xC0 SHL PUSH2 0x23FE JUMP JUMPDEST PUSH2 0x1E58 PUSH8 0x82D9A5456DDCB10 PUSH1 0xC0 SHL PUSH2 0x23FE JUMP JUMPDEST PUSH1 0x0 PUSH1 0x1 SLOAD SWAP1 POP PUSH2 0x1E73 PUSH8 0xD69ECAD8D67DE21C PUSH1 0xC0 SHL PUSH2 0x23FE JUMP JUMPDEST PUSH2 0x1E87 PUSH8 0x97F6C038543E5F0A PUSH1 0xC0 SHL PUSH2 0x23FE JUMP JUMPDEST PUSH1 0x0 PUSH1 0x2 SLOAD SWAP1 POP PUSH2 0x1EA2 PUSH8 0x3325F122D196E106 PUSH1 0xC0 SHL PUSH2 0x23FE JUMP JUMPDEST PUSH2 0x1EAE DUP13 DUP13 DUP13 DUP13 PUSH2 0x2413 JUMP JUMPDEST DUP1 SWAP7 POP DUP2 SWAP8 POP POP POP PUSH2 0x1ECA PUSH8 0x26FAA2BB09B89D57 PUSH1 0xC0 SHL PUSH2 0x23FE JUMP JUMPDEST PUSH2 0x1EDE PUSH8 0xDAC16AE2D1E92BF3 PUSH1 0xC0 SHL PUSH2 0x23FE JUMP JUMPDEST PUSH32 0x0 PUSH20 0xFFFFFFFFFFFFFFFFFFFFFFFFFFFFFFFFFFFFFFFF AND PUSH4 0x23B872DD CALLER ADDRESS DUP10 PUSH1 0x40 MLOAD DUP5 PUSH4 0xFFFFFFFF AND PUSH1 0xE0 SHL DUP2 MSTORE PUSH1 0x4 ADD PUSH2 0x1F3B SWAP4 SWAP3 SWAP2 SWAP1 PUSH2 0x3098 JUMP JUMPDEST PUSH1 0x20 PUSH1 0x40 MLOAD DUP1 DUP4 SUB DUP2 PUSH1 0x0 DUP8 GAS CALL ISZERO DUP1 ISZERO PUSH2 0x1F5A JUMPI RETURNDATASIZE PUSH1 0x0 DUP1 RETURNDATACOPY RETURNDATASIZE PUSH1 0x0 REVERT JUMPDEST POP POP POP POP PUSH1 0x40 MLOAD RETURNDATASIZE PUSH1 0x1F NOT PUSH1 0x1F DUP3 ADD AND DUP3 ADD DUP1 PUSH1 0x40 MSTORE POP DUP2 ADD SWAP1 PUSH2 0x1F7E SWAP2 SWAP1 PUSH2 0x3107 JUMP JUMPDEST POP PUSH2 0x1F93 PUSH8 0xB11A98D19B57B1F9 PUSH1 0xC0 SHL PUSH2 0x23FE JUMP JUMPDEST PUSH2 0x1FA7 PUSH8 0x336A2DA021316A72 PUSH1 0xC0 SHL PUSH2 0x23FE JUMP JUMPDEST PUSH32 0x0 PUSH20 0xFFFFFFFFFFFFFFFFFFFFFFFFFFFFFFFFFFFFFFFF AND PUSH4 0x23B872DD CALLER ADDRESS DUP9 PUSH1 0x40 MLOAD DUP5 PUSH4 0xFFFFFFFF AND PUSH1 0xE0 SHL DUP2 MSTORE PUSH1 0x4 ADD PUSH2 0x2004 SWAP4 SWAP3 SWAP2 SWAP1 PUSH2 0x3098 JUMP JUMPDEST PUSH1 0x20 PUSH1 0x40 MLOAD DUP1 DUP4 SUB DUP2 PUSH1 0x0 DUP8 GAS CALL ISZERO DUP1 ISZERO PUSH2 0x2023 JUMPI RETURNDATASIZE PUSH1 0x0 DUP1 RETURNDATACOPY RETURNDATASIZE PUSH1 0x0 REVERT JUMPDEST POP POP POP POP PUSH1 0x40 MLOAD RETURNDATASIZE PUSH1 0x1F NOT PUSH1 0x1F DUP3 ADD AND DUP3 ADD DUP1 PUSH1 0x40 MSTORE POP DUP2 ADD SWAP1 PUSH2 0x2047 SWAP2 SWAP1 PUSH2 0x3107 JUMP JUMPDEST POP PUSH2 0x205C PUSH8 0x565C610FEA1535BA PUSH1 0xC0 SHL PUSH2 0x23FE JUMP JUMPDEST PUSH2 0x2070 PUSH8 0x7D041685EC64C537 PUSH1 0xC0 SHL PUSH2 0x23FE JUMP JUMPDEST PUSH1 0x0 DUP2 SUB PUSH2 0x2122 JUMPI PUSH2 0x208C PUSH8 0x4E4ED70A72A6536B PUSH1 0xC0 SHL PUSH2 0x23FE JUMP JUMPDEST PUSH2 0x20A0 PUSH8 0x856CA537469BC22B PUSH1 0xC0 SHL PUSH2 0x23FE JUMP JUMPDEST PUSH2 0x3E8 PUSH2 0x20B7 DUP7 DUP9 PUSH2 0x20B2 SWAP2 SWAP1 PUSH2 0x2DB4 JUMP JUMPDEST PUSH2 0x1025 JUMP JUMPDEST PUSH2 0x20C1 SWAP2 SWAP1 PUSH2 0x32E6 JUMP JUMPDEST SWAP4 POP PUSH2 0x20D7 PUSH8 0x9BDB3D3AE9BC901 PUSH1 0xC0 SHL PUSH2 0x23FE JUMP JUMPDEST PUSH2 0x3E8 PUSH1 0x3 PUSH1 0x0 DUP1 PUSH20 0xFFFFFFFFFFFFFFFFFFFFFFFFFFFFFFFFFFFFFFFF AND PUSH20 0xFFFFFFFFFFFFFFFFFFFFFFFFFFFFFFFFFFFFFFFF AND DUP2 MSTORE PUSH1 0x20 ADD SWAP1 DUP2 MSTORE PUSH1 0x20 ADD PUSH1 0x0 KECCAK256 DUP2 SWAP1 SSTORE POP PUSH2 0x21EB JUMP JUMPDEST PUSH2 0x2136 PUSH8 0xD1537B3BE32FF5F6 PUSH1 0xC0 SHL PUSH2 0x23FE JUMP JUMPDEST PUSH2 0x214A PUSH8 0x9F9BACF651835A0 PUSH1 0xC0 SHL PUSH2 0x23FE JUMP JUMPDEST DUP2 DUP2 DUP7 PUSH2 0x2157 SWAP2 SWAP1 PUSH2 0x2DB4 JUMP JUMPDEST PUSH2 0x2161 SWAP2 SWAP1 PUSH2 0x2E59 JUMP JUMPDEST DUP4 DUP3 DUP9 PUSH2 0x216E SWAP2 SWAP1 PUSH2 0x2DB4 JUMP JUMPDEST PUSH2 0x2178 SWAP2 SWAP1 PUSH2 0x2E59 JUMP JUMPDEST LT DUP1 PUSH2 0x2194 JUMPI POP PUSH2 0x2193 PUSH8 0x157FAC0D289498CD PUSH1 0xC0 SHL PUSH2 0x240C JUMP JUMPDEST JUMPDEST DUP1 ISZERO PUSH2 0x21B0 JUMPI POP PUSH2 0x21AF PUSH8 0x3FD3B9C8924DFB50 PUSH1 0xC0 SHL PUSH2 0x2401 JUMP JUMPDEST JUMPDEST PUSH2 0x21D0 JUMPI DUP2 DUP2 DUP7 PUSH2 0x21C1 SWAP2 SWAP1 PUSH2 0x2DB4 JUMP JUMPDEST PUSH2 0x21CB SWAP2 SWAP1 PUSH2 0x2E59 JUMP JUMPDEST PUSH2 0x21E8 JUMP JUMPDEST DUP3 DUP2 DUP8 PUSH2 0x21DD SWAP2 SWAP1 PUSH2 0x2DB4 JUMP JUMPDEST PUSH2 0x21E7 SWAP2 SWAP1 PUSH2 0x2E59 JUMP JUMPDEST JUMPDEST SWAP4 POP JUMPDEST PUSH2 0x21FF PUSH8 0x6711F2DC01CE4720 PUSH1 0xC0 SHL PUSH2 0x23FE JUMP JUMPDEST PUSH2 0x2213 PUSH8 0x720871A94F42D5B4 PUSH1 0xC0 SHL PUSH2 0x23FE JUMP JUMPDEST PUSH2 0x2227 PUSH8 0xFB54951CCD40741C PUSH1 0xC0 SHL PUSH2 0x23FE JUMP JUMPDEST PUSH1 0x0 DUP5 GT PUSH2 0x226A JUMPI PUSH1 0x40 MLOAD PUSH32 0x8C379A000000000000000000000000000000000000000000000000000000000 DUP2 MSTORE PUSH1 0x4 ADD PUSH2 0x2261 SWAP1 PUSH2 0x3366 JUMP JUMPDEST PUSH1 0x40 MLOAD DUP1 SWAP2 SUB SWAP1 REVERT JUMPDEST PUSH2 0x227E PUSH8 0x3E06355399E9296E PUSH1 0xC0 SHL PUSH2 0x23FE JUMP JUMPDEST PUSH2 0x2292 PUSH8 0x697EC6AEE12B4E08 PUSH1 0xC0 SHL PUSH2 0x23FE JUMP JUMPDEST PUSH2 0x22A6 PUSH8 0xB698DA80A45545FB PUSH1 0xC0 SHL PUSH2 0x23FE JUMP JUMPDEST DUP6 DUP4 ADD PUSH1 0x0 DUP2 SWAP1 SSTORE POP PUSH2 0x22C3 PUSH8 0x1768F4F3CF7ECDF3 PUSH1 0xC0 SHL PUSH2 0x23FE JUMP JUMPDEST DUP5 DUP3 ADD PUSH1 0x1 DUP2 SWAP1 SSTORE POP PUSH2 0x22E0 PUSH8 0xEFE62BFFAB1988FB PUSH1 0xC0 SHL PUSH2 0x23FE JUMP JUMPDEST DUP4 DUP2 PUSH2 0x22EC SWAP2 SWAP1 PUSH2 0x2DF6 JUMP JUMPDEST PUSH1 0x2 DUP2 SWAP1 SSTORE POP PUSH2 0x2306 PUSH8 0x8E03A79956C3BC74 PUSH1 0xC0 SHL PUSH2 0x23FE JUMP JUMPDEST DUP4 PUSH1 0x3 PUSH1 0x0 DUP11 PUSH20 0xFFFFFFFFFFFFFFFFFFFFFFFFFFFFFFFFFFFFFFFF AND PUSH20 0xFFFFFFFFFFFFFFFFFFFFFFFFFFFFFFFFFFFFFFFF AND DUP2 MSTORE PUSH1 0x20 ADD SWAP1 DUP2 MSTORE PUSH1 0x20 ADD PUSH1 0x0 KECCAK256 PUSH1 0x0 DUP3 DUP3 SLOAD PUSH2 0x2355 SWAP2 SWAP1 PUSH2 0x2DF6 JUMP JUMPDEST SWAP3 POP POP DUP2 SWAP1 SSTORE POP PUSH2 0x2370 PUSH8 0x6B52FB2E2DB29D28 PUSH1 0xC0 SHL PUSH2 0x23FE JUMP JUMPDEST PUSH2 0x2384 PUSH8 0x8D5E3F69587980EE PUSH1 0xC0 SHL PUSH2 0x23FE JUMP JUMPDEST DUP8 PUSH20 0xFFFFFFFFFFFFFFFFFFFFFFFFFFFFFFFFFFFFFFFF AND CALLER PUSH20 0xFFFFFFFFFFFFFFFFFFFFFFFFFFFFFFFFFFFFFFFF AND PUSH32 0x4A1A2A6176E9646D9E3157F7C2AB3C499F18337C0B0828CFB28E0A61DE4A11F7 DUP9 DUP9 DUP9 PUSH1 0x40 MLOAD PUSH2 0x23E5 SWAP4 SWAP3 SWAP2 SWAP1 PUSH2 0x2C65 JUMP JUMPDEST PUSH1 0x40 MLOAD DUP1 SWAP2 SUB SWAP1 LOG3 POP POP POP SWAP9 POP SWAP9 POP SWAP9 SWAP6 POP POP POP POP POP POP JUMP JUMPDEST POP JUMP JUMPDEST PUSH1 0x0 PUSH1 0x1 SWAP1 POP SWAP2 SWAP1 POP JUMP JUMPDEST PUSH1 0x0 SWAP2 SWAP1 POP JUMP JUMPDEST PUSH1 0x0 DUP1 PUSH2 0x242A PUSH8 0xBD562E90AC4109CD PUSH1 0xC0 SHL PUSH2 0x23FE JUMP JUMPDEST PUSH2 0x243E PUSH8 0xAA3F0F7E30263455 PUSH1 0xC0 SHL PUSH2 0x23FE JUMP JUMPDEST PUSH2 0x2452 PUSH8 0x3AEE116F2E59F71A PUSH1 0xC0 SHL PUSH2 0x23FE JUMP JUMPDEST PUSH1 0x0 DUP1 SLOAD SWAP1 POP PUSH2 0x246C PUSH8 0xBE4C58DE74568C89 PUSH1 0xC0 SHL PUSH2 0x23FE JUMP JUMPDEST PUSH2 0x2480 PUSH8 0xC7282B99BF5D56B6 PUSH1 0xC0 SHL PUSH2 0x23FE JUMP JUMPDEST PUSH1 0x0 PUSH1 0x1 SLOAD SWAP1 POP PUSH2 0x249B PUSH8 0xD419EA2D1CE723DA PUSH1 0xC0 SHL PUSH2 0x23FE JUMP JUMPDEST PUSH2 0x24AF PUSH8 0x108BC21B413A2876 PUSH1 0xC0 SHL PUSH2 0x23FE JUMP JUMPDEST PUSH1 0x0 DUP3 EQ DUP1 ISZERO PUSH2 0x24BF JUMPI POP PUSH1 0x0 DUP2 EQ JUMPDEST ISZERO PUSH2 0x24FB JUMPI PUSH2 0x24D8 PUSH8 0x299086BCBF055C75 PUSH1 0xC0 SHL PUSH2 0x23FE JUMP JUMPDEST PUSH2 0x24EC PUSH8 0x1FE282014C59FF52 PUSH1 0xC0 SHL PUSH2 0x23FE JUMP JUMPDEST DUP8 DUP8 DUP1 SWAP5 POP DUP2 SWAP6 POP POP POP PUSH2 0x271B JUMP JUMPDEST PUSH2 0x250F PUSH8 0xE492A5D6BD60EBEE PUSH1 0xC0 SHL PUSH2 0x23FE JUMP JUMPDEST PUSH2 0x2523 PUSH8 0xD88710D77684A03F PUSH1 0xC0 SHL PUSH2 0x23FE JUMP JUMPDEST DUP2 DUP2 DUP10 PUSH2 0x2530 SWAP2 SWAP1 PUSH2 0x2DB4 JUMP JUMPDEST PUSH2 0x253A SWAP2 SWAP1 PUSH2 0x2E59 JUMP JUMPDEST SWAP3 POP PUSH2 0x2550 PUSH8 0x592DDC24D75EEFE4 PUSH1 0xC0 SHL PUSH2 0x23FE JUMP JUMPDEST PUSH2 0x2564 PUSH8 0x88A2E534D1D4F890 PUSH1 0xC0 SHL PUSH2 0x23FE JUMP JUMPDEST DUP7 DUP4 GT PUSH2 0x262E JUMPI PUSH2 0x257F PUSH8 0xB516A2A082A5BE2B PUSH1 0xC0 SHL PUSH2 0x23FE JUMP JUMPDEST PUSH2 0x2593 PUSH8 0x20F4915C5986EFB PUSH1 0xC0 SHL PUSH2 0x23FE JUMP JUMPDEST PUSH2 0x25A7 PUSH8 0x84266F3A3BF0AE9B PUSH1 0xC0 SHL PUSH2 0x23FE JUMP JUMPDEST PUSH2 0x25BB PUSH8 0xF91021D80F92D6D0 PUSH1 0xC0 SHL PUSH2 0x23FE JUMP JUMPDEST DUP5 DUP4 LT ISZERO PUSH2 0x25FE JUMPI PUSH1 0x40 MLOAD PUSH32 0x8C379A000000000000000000000000000000000000000000000000000000000 DUP2 MSTORE PUSH1 0x4 ADD PUSH2 0x25F5 SWAP1 PUSH2 0x32C6 JUMP JUMPDEST PUSH1 0x40 MLOAD DUP1 SWAP2 SUB SWAP1 REVERT JUMPDEST PUSH2 0x2612 PUSH8 0x3328BBC3DC4B2609 PUSH1 0xC0 SHL PUSH2 0x23FE JUMP JUMPDEST PUSH2 0x2626 PUSH8 0xB25E826E3426D839 PUSH1 0xC0 SHL PUSH2 0x23FE JUMP JUMPDEST DUP8 SWAP4 POP PUSH2 0x271A JUMP JUMPDEST PUSH2 0x2642 PUSH8 0xF894CE321391131C PUSH1 0xC0 SHL PUSH2 0x23FE JUMP JUMPDEST PUSH2 0x2656 PUSH8 0xF9E7973DA6268C3 PUSH1 0xC0 SHL PUSH2 0x23FE JUMP JUMPDEST DUP1 DUP3 DUP9 PUSH2 0x2663 SWAP2 SWAP1 PUSH2 0x2DB4 JUMP JUMPDEST PUSH2 0x266D SWAP2 SWAP1 PUSH2 0x2E59 JUMP JUMPDEST SWAP4 POP PUSH2 0x2683 PUSH8 0x2FBEAB5E6DA6D33F PUSH1 0xC0 SHL PUSH2 0x23FE JUMP JUMPDEST PUSH2 0x2697 PUSH8 0xCC2167F271603665 PUSH1 0xC0 SHL PUSH2 0x23FE JUMP JUMPDEST PUSH2 0x26AB PUSH8 0xED88B78A4855EB4C PUSH1 0xC0 SHL PUSH2 0x23FE JUMP JUMPDEST DUP6 DUP5 LT ISZERO PUSH2 0x26EE JUMPI PUSH1 0x40 MLOAD PUSH32 0x8C379A000000000000000000000000000000000000000000000000000000000 DUP2 MSTORE PUSH1 0x4 ADD PUSH2 0x26E5 SWAP1 PUSH2 0x325A JUMP JUMPDEST PUSH1 0x40 MLOAD DUP1 SWAP2 SUB SWAP1 REVERT JUMPDEST PUSH2 0x2702 PUSH8 0xFACF25E33D57E681 PUSH1 0xC0 SHL PUSH2 0x23FE JUMP JUMPDEST PUSH2 0x2716 PUSH8 0x8668FF0E62C02E28 PUSH1 0xC0 SHL PUSH2 0x23FE JUMP JUMPDEST DUP7 SWAP3 POP JUMPDEST JUMPDEST POP POP SWAP5 POP SWAP5 SWAP3 POP POP POP JUMP JUMPDEST PUSH1 0x0 DUP1 REVERT JUMPDEST PUSH1 0x0 DUP1 REVERT JUMPDEST PUSH1 0x0 DUP2 SWAP1 POP SWAP2 SWAP1 POP JUMP JUMPDEST PUSH2 0x2743 DUP2 PUSH2 0x2730 JUMP JUMPDEST DUP2 EQ PUSH2 0x274E JUMPI PUSH1 0x0 DUP1 REVERT JUMPDEST POP JUMP JUMPDEST PUSH1 0x0 DUP2 CALLDATALOAD SWAP1 POP PUSH2 0x2760 DUP2 PUSH2 0x273A JUMP JUMPDEST SWAP3 SWAP2 POP POP JUMP JUMPDEST PUSH1 0x0 DUP1 PUSH1 0x0 PUSH1 0x60 DUP5 DUP7 SUB SLT ISZERO PUSH2 0x277F JUMPI PUSH2 0x277E PUSH2 0x2726 JUMP JUMPDEST JUMPDEST PUSH1 0x0 PUSH2 0x278D DUP7 DUP3 DUP8 ADD PUSH2 0x2751 JUMP JUMPDEST SWAP4 POP POP PUSH1 0x20 PUSH2 0x279E DUP7 DUP3 DUP8 ADD PUSH2 0x2751 JUMP JUMPDEST SWAP3 POP POP PUSH1 0x40 PUSH2 0x27AF DUP7 DUP3 DUP8 ADD PUSH2 0x2751 JUMP JUMPDEST SWAP2 POP POP SWAP3 POP SWAP3 POP SWAP3 JUMP JUMPDEST PUSH2 0x27C2 DUP2 PUSH2 0x2730 JUMP JUMPDEST DUP3 MSTORE POP POP JUMP JUMPDEST PUSH1 0x0 PUSH1 0x20 DUP3 ADD SWAP1 POP PUSH2 0x27DD PUSH1 0x0 DUP4 ADD DUP5 PUSH2 0x27B9 JUMP JUMPDEST SWAP3 SWAP2 POP POP JUMP JUMPDEST PUSH1 0x0 PUSH20 0xFFFFFFFFFFFFFFFFFFFFFFFFFFFFFFFFFFFFFFFF DUP3 AND SWAP1 POP SWAP2 SWAP1 POP JUMP JUMPDEST PUSH1 0x0 PUSH2 0x280E DUP3 PUSH2 0x27E3 JUMP JUMPDEST SWAP1 POP SWAP2 SWAP1 POP JUMP JUMPDEST PUSH2 0x281E DUP2 PUSH2 0x2803 JUMP JUMPDEST DUP3 MSTORE POP POP JUMP JUMPDEST PUSH1 0x0 PUSH1 0x20 DUP3 ADD SWAP1 POP PUSH2 0x2839 PUSH1 0x0 DUP4 ADD DUP5 PUSH2 0x2815 JUMP JUMPDEST SWAP3 SWAP2 POP POP JUMP JUMPDEST PUSH1 0x0 DUP1 REVERT JUMPDEST PUSH1 0x0 DUP1 REVERT JUMPDEST PUSH1 0x0 DUP1 REVERT JUMPDEST PUSH1 0x0 DUP1 DUP4 PUSH1 0x1F DUP5 ADD SLT PUSH2 0x2864 JUMPI PUSH2 0x2863 PUSH2 0x283F JUMP JUMPDEST JUMPDEST DUP3 CALLDATALOAD SWAP1 POP PUSH8 0xFFFFFFFFFFFFFFFF DUP2 GT ISZERO PUSH2 0x2881 JUMPI PUSH2 0x2880 PUSH2 0x2844 JUMP JUMPDEST JUMPDEST PUSH1 0x20 DUP4 ADD SWAP2 POP DUP4 PUSH1 0x20 DUP3 MUL DUP4 ADD GT ISZERO PUSH2 0x289D JUMPI PUSH2 0x289C PUSH2 0x2849 JUMP JUMPDEST JUMPDEST SWAP3 POP SWAP3 SWAP1 POP JUMP JUMPDEST PUSH2 0x28AD DUP2 PUSH2 0x2803 JUMP JUMPDEST DUP2 EQ PUSH2 0x28B8 JUMPI PUSH1 0x0 DUP1 REVERT JUMPDEST POP JUMP JUMPDEST PUSH1 0x0 DUP2 CALLDATALOAD SWAP1 POP PUSH2 0x28CA DUP2 PUSH2 0x28A4 JUMP JUMPDEST SWAP3 SWAP2 POP POP JUMP JUMPDEST PUSH1 0x0 DUP1 PUSH1 0x0 DUP1 PUSH1 0x0 DUP1 PUSH1 0xA0 DUP8 DUP10 SUB SLT ISZERO PUSH2 0x28ED JUMPI PUSH2 0x28EC PUSH2 0x2726 JUMP JUMPDEST JUMPDEST PUSH1 0x0 PUSH2 0x28FB DUP10 DUP3 DUP11 ADD PUSH2 0x2751 JUMP JUMPDEST SWAP7 POP POP PUSH1 0x20 PUSH2 0x290C DUP10 DUP3 DUP11 ADD PUSH2 0x2751 JUMP JUMPDEST SWAP6 POP POP PUSH1 0x40 DUP8 ADD CALLDATALOAD PUSH8 0xFFFFFFFFFFFFFFFF DUP2 GT ISZERO PUSH2 0x292D JUMPI PUSH2 0x292C PUSH2 0x272B JUMP JUMPDEST JUMPDEST PUSH2 0x2939 DUP10 DUP3 DUP11 ADD PUSH2 0x284E JUMP JUMPDEST SWAP5 POP SWAP5 POP POP PUSH1 0x60 PUSH2 0x294C DUP10 DUP3 DUP11 ADD PUSH2 0x28BB JUMP JUMPDEST SWAP3 POP POP PUSH1 0x80 PUSH2 0x295D DUP10 DUP3 DUP11 ADD PUSH2 0x2751 JUMP JUMPDEST SWAP2 POP POP SWAP3 SWAP6 POP SWAP3 SWAP6 POP SWAP3 SWAP6 JUMP JUMPDEST PUSH1 0x0 DUP2 MLOAD SWAP1 POP SWAP2 SWAP1 POP JUMP JUMPDEST PUSH1 0x0 DUP3 DUP3 MSTORE PUSH1 0x20 DUP3 ADD SWAP1 POP SWAP3 SWAP2 POP POP JUMP JUMPDEST PUSH1 0x0 DUP2 SWAP1 POP PUSH1 0x20 DUP3 ADD SWAP1 POP SWAP2 SWAP1 POP JUMP JUMPDEST PUSH2 0x299F DUP2 PUSH2 0x2730 JUMP JUMPDEST DUP3 MSTORE POP POP JUMP JUMPDEST PUSH1 0x0 PUSH2 0x29B1 DUP4 DUP4 PUSH2 0x2996 JUMP JUMPDEST PUSH1 0x20 DUP4 ADD SWAP1 POP SWAP3 SWAP2 POP POP JUMP JUMPDEST PUSH1 0x0 PUSH1 0x20 DUP3 ADD SWAP1 POP SWAP2 SWAP1 POP JUMP JUMPDEST PUSH1 0x0 PUSH2 0x29D5 DUP3 PUSH2 0x296A JUMP JUMPDEST PUSH2 0x29DF DUP2 DUP6 PUSH2 0x2975 JUMP JUMPDEST SWAP4 POP PUSH2 0x29EA DUP4 PUSH2 0x2986 JUMP JUMPDEST DUP1 PUSH1 0x0 JUMPDEST DUP4 DUP2 LT ISZERO PUSH2 0x2A1B JUMPI DUP2 MLOAD PUSH2 0x2A02 DUP9 DUP3 PUSH2 0x29A5 JUMP JUMPDEST SWAP8 POP PUSH2 0x2A0D DUP4 PUSH2 0x29BD JUMP JUMPDEST SWAP3 POP POP PUSH1 0x1 DUP2 ADD SWAP1 POP PUSH2 0x29EE JUMP JUMPDEST POP DUP6 SWAP4 POP POP POP POP SWAP3 SWAP2 POP POP JUMP JUMPDEST PUSH1 0x0 PUSH1 0x20 DUP3 ADD SWAP1 POP DUP2 DUP2 SUB PUSH1 0x0 DUP4 ADD MSTORE PUSH2 0x2A42 DUP2 DUP5 PUSH2 0x29CA JUMP JUMPDEST SWAP1 POP SWAP3 SWAP2 POP POP JUMP JUMPDEST PUSH1 0x0 PUSH1 0x20 DUP3 DUP5 SUB SLT ISZERO PUSH2 0x2A60 JUMPI PUSH2 0x2A5F PUSH2 0x2726 JUMP JUMPDEST JUMPDEST PUSH1 0x0 PUSH2 0x2A6E DUP5 DUP3 DUP6 ADD PUSH2 0x2751 JUMP JUMPDEST SWAP2 POP POP SWAP3 SWAP2 POP POP JUMP JUMPDEST PUSH1 0x0 DUP1 PUSH1 0x40 DUP4 DUP6 SUB SLT ISZERO PUSH2 0x2A8E JUMPI PUSH2 0x2A8D PUSH2 0x2726 JUMP JUMPDEST JUMPDEST PUSH1 0x0 PUSH2 0x2A9C DUP6 DUP3 DUP7 ADD PUSH2 0x28BB JUMP JUMPDEST SWAP3 POP POP PUSH1 0x20 PUSH2 0x2AAD DUP6 DUP3 DUP7 ADD PUSH2 0x28BB JUMP JUMPDEST SWAP2 POP POP SWAP3 POP SWAP3 SWAP1 POP JUMP JUMPDEST PUSH1 0x0 DUP1 PUSH1 0x0 DUP1 PUSH1 0x0 DUP1 PUSH1 0x0 PUSH1 0xE0 DUP9 DUP11 SUB SLT ISZERO PUSH2 0x2AD6 JUMPI PUSH2 0x2AD5 PUSH2 0x2726 JUMP JUMPDEST JUMPDEST PUSH1 0x0 PUSH2 0x2AE4 DUP11 DUP3 DUP12 ADD PUSH2 0x28BB JUMP JUMPDEST SWAP8 POP POP PUSH1 0x20 PUSH2 0x2AF5 DUP11 DUP3 DUP12 ADD PUSH2 0x28BB JUMP JUMPDEST SWAP7 POP POP PUSH1 0x40 PUSH2 0x2B06 DUP11 DUP3 DUP12 ADD PUSH2 0x2751 JUMP JUMPDEST SWAP6 POP POP PUSH1 0x60 PUSH2 0x2B17 DUP11 DUP3 DUP12 ADD PUSH2 0x2751 JUMP JUMPDEST SWAP5 POP POP PUSH1 0x80 PUSH2 0x2B28 DUP11 DUP3 DUP12 ADD PUSH2 0x2751 JUMP JUMPDEST SWAP4 POP POP PUSH1 0xA0 PUSH2 0x2B39 DUP11 DUP3 DUP12 ADD PUSH2 0x28BB JUMP JUMPDEST SWAP3 POP POP PUSH1 0xC0 PUSH2 0x2B4A DUP11 DUP3 DUP12 ADD PUSH2 0x2751 JUMP JUMPDEST SWAP2 POP POP SWAP3 SWAP6 SWAP9 SWAP2 SWAP5 SWAP8 POP SWAP3 SWAP6 POP JUMP JUMPDEST PUSH1 0x0 PUSH1 0x40 DUP3 ADD SWAP1 POP PUSH2 0x2B6E PUSH1 0x0 DUP4 ADD DUP6 PUSH2 0x27B9 JUMP JUMPDEST PUSH2 0x2B7B PUSH1 0x20 DUP4 ADD DUP5 PUSH2 0x27B9 JUMP JUMPDEST SWAP4 SWAP3 POP POP POP JUMP JUMPDEST PUSH1 0x0 PUSH1 0x20 DUP3 DUP5 SUB SLT ISZERO PUSH2 0x2B98 JUMPI PUSH2 0x2B97 PUSH2 0x2726 JUMP JUMPDEST JUMPDEST PUSH1 0x0 PUSH2 0x2BA6 DUP5 DUP3 DUP6 ADD PUSH2 0x28BB JUMP JUMPDEST SWAP2 POP POP SWAP3 SWAP2 POP POP JUMP JUMPDEST PUSH1 0x0 DUP1 PUSH1 0x0 DUP1 PUSH1 0x0 DUP1 PUSH1 0x0 DUP1 PUSH2 0x100 DUP10 DUP12 SUB SLT ISZERO PUSH2 0x2BD0 JUMPI PUSH2 0x2BCF PUSH2 0x2726 JUMP JUMPDEST JUMPDEST PUSH1 0x0 PUSH2 0x2BDE DUP12 DUP3 DUP13 ADD PUSH2 0x28BB JUMP JUMPDEST SWAP9 POP POP PUSH1 0x20 PUSH2 0x2BEF DUP12 DUP3 DUP13 ADD PUSH2 0x28BB JUMP JUMPDEST SWAP8 POP POP PUSH1 0x40 PUSH2 0x2C00 DUP12 DUP3 DUP13 ADD PUSH2 0x2751 JUMP JUMPDEST SWAP7 POP POP PUSH1 0x60 PUSH2 0x2C11 DUP12 DUP3 DUP13 ADD PUSH2 0x2751 JUMP JUMPDEST SWAP6 POP POP PUSH1 0x80 PUSH2 0x2C22 DUP12 DUP3 DUP13 ADD PUSH2 0x2751 JUMP JUMPDEST SWAP5 POP POP PUSH1 0xA0 PUSH2 0x2C33 DUP12 DUP3 DUP13 ADD PUSH2 0x2751 JUMP JUMPDEST SWAP4 POP POP PUSH1 0xC0 PUSH2 0x2C44 DUP12 DUP3 DUP13 ADD PUSH2 0x28BB JUMP JUMPDEST SWAP3 POP POP PUSH1 0xE0 PUSH2 0x2C55 DUP12 DUP3 DUP13 ADD PUSH2 0x2751 JUMP JUMPDEST SWAP2 POP POP SWAP3 SWAP6 SWAP9 POP SWAP3 SWAP6 SWAP9 SWAP1 SWAP4 SWAP7 POP JUMP JUMPDEST PUSH1 0x0 PUSH1 0x60 DUP3 ADD SWAP1 POP PUSH2 0x2C7A PUSH1 0x0 DUP4 ADD DUP7 PUSH2 0x27B9 JUMP JUMPDEST PUSH2 0x2C87 PUSH1 0x20 DUP4 ADD DUP6 PUSH2 0x27B9 JUMP JUMPDEST PUSH2 0x2C94 PUSH1 0x40 DUP4 ADD DUP5 PUSH2 0x27B9 JUMP JUMPDEST SWAP5 SWAP4 POP POP POP POP JUMP JUMPDEST PUSH1 0x0 DUP3 DUP3 MSTORE PUSH1 0x20 DUP3 ADD SWAP1 POP SWAP3 SWAP2 POP POP JUMP JUMPDEST PUSH32 0x53533A2049494100000000000000000000000000000000000000000000000000 PUSH1 0x0 DUP3 ADD MSTORE POP JUMP JUMPDEST PUSH1 0x0 PUSH2 0x2CE3 PUSH1 0x7 DUP4 PUSH2 0x2C9C JUMP JUMPDEST SWAP2 POP PUSH2 0x2CEE DUP3 PUSH2 0x2CAD JUMP JUMPDEST PUSH1 0x20 DUP3 ADD SWAP1 POP SWAP2 SWAP1 POP JUMP JUMPDEST PUSH1 0x0 PUSH1 0x20 DUP3 ADD SWAP1 POP DUP2 DUP2 SUB PUSH1 0x0 DUP4 ADD MSTORE PUSH2 0x2D12 DUP2 PUSH2 0x2CD6 JUMP JUMPDEST SWAP1 POP SWAP2 SWAP1 POP JUMP JUMPDEST PUSH32 0x53533A20494C0000000000000000000000000000000000000000000000000000 PUSH1 0x0 DUP3 ADD MSTORE POP JUMP JUMPDEST PUSH1 0x0 PUSH2 0x2D4F PUSH1 0x6 DUP4 PUSH2 0x2C9C JUMP JUMPDEST SWAP2 POP PUSH2 0x2D5A DUP3 PUSH2 0x2D19 JUMP JUMPDEST PUSH1 0x20 DUP3 ADD SWAP1 POP SWAP2 SWAP1 POP JUMP JUMPDEST PUSH1 0x0 PUSH1 0x20 DUP3 ADD SWAP1 POP DUP2 DUP2 SUB PUSH1 0x0 DUP4 ADD MSTORE PUSH2 0x2D7E DUP2 PUSH2 0x2D42 JUMP JUMPDEST SWAP1 POP SWAP2 SWAP1 POP JUMP JUMPDEST PUSH32 0x4E487B7100000000000000000000000000000000000000000000000000000000 PUSH1 0x0 MSTORE PUSH1 0x11 PUSH1 0x4 MSTORE PUSH1 0x24 PUSH1 0x0 REVERT JUMPDEST PUSH1 0x0 PUSH2 0x2DBF DUP3 PUSH2 0x2730 JUMP JUMPDEST SWAP2 POP PUSH2 0x2DCA DUP4 PUSH2 0x2730 JUMP JUMPDEST SWAP3 POP DUP3 DUP3 MUL PUSH2 0x2DD8 DUP2 PUSH2 0x2730 JUMP JUMPDEST SWAP2 POP DUP3 DUP3 DIV DUP5 EQ DUP4 ISZERO OR PUSH2 0x2DEF JUMPI PUSH2 0x2DEE PUSH2 0x2D85 JUMP JUMPDEST JUMPDEST POP SWAP3 SWAP2 POP POP JUMP JUMPDEST PUSH1 0x0 PUSH2 0x2E01 DUP3 PUSH2 0x2730 JUMP JUMPDEST SWAP2 POP PUSH2 0x2E0C DUP4 PUSH2 0x2730 JUMP JUMPDEST SWAP3 POP DUP3 DUP3 ADD SWAP1 POP DUP1 DUP3 GT ISZERO PUSH2 0x2E24 JUMPI PUSH2 0x2E23 PUSH2 0x2D85 JUMP JUMPDEST JUMPDEST SWAP3 SWAP2 POP POP JUMP JUMPDEST PUSH32 0x4E487B7100000000000000000000000000000000000000000000000000000000 PUSH1 0x0 MSTORE PUSH1 0x12 PUSH1 0x4 MSTORE PUSH1 0x24 PUSH1 0x0 REVERT JUMPDEST PUSH1 0x0 PUSH2 0x2E64 DUP3 PUSH2 0x2730 JUMP JUMPDEST SWAP2 POP PUSH2 0x2E6F DUP4 PUSH2 0x2730 JUMP JUMPDEST SWAP3 POP DUP3 PUSH2 0x2E7F JUMPI PUSH2 0x2E7E PUSH2 0x2E2A JUMP JUMPDEST JUMPDEST DUP3 DUP3 DIV SWAP1 POP SWAP3 SWAP2 POP POP JUMP JUMPDEST PUSH32 0x53533A2045585000000000000000000000000000000000000000000000000000 PUSH1 0x0 DUP3 ADD MSTORE POP JUMP JUMPDEST PUSH1 0x0 PUSH2 0x2EC0 PUSH1 0x7 DUP4 PUSH2 0x2C9C JUMP JUMPDEST SWAP2 POP PUSH2 0x2ECB DUP3 PUSH2 0x2E8A JUMP JUMPDEST PUSH1 0x20 DUP3 ADD SWAP1 POP SWAP2 SWAP1 POP JUMP JUMPDEST PUSH1 0x0 PUSH1 0x20 DUP3 ADD SWAP1 POP DUP2 DUP2 SUB PUSH1 0x0 DUP4 ADD MSTORE PUSH2 0x2EEF DUP2 PUSH2 0x2EB3 JUMP JUMPDEST SWAP1 POP SWAP2 SWAP1 POP JUMP JUMPDEST PUSH32 0x53533A2049500000000000000000000000000000000000000000000000000000 PUSH1 0x0 DUP3 ADD MSTORE POP JUMP JUMPDEST PUSH1 0x0 PUSH2 0x2F2C PUSH1 0x6 DUP4 PUSH2 0x2C9C JUMP JUMPDEST SWAP2 POP PUSH2 0x2F37 DUP3 PUSH2 0x2EF6 JUMP JUMPDEST PUSH1 0x20 DUP3 ADD SWAP1 POP SWAP2 SWAP1 POP JUMP JUMPDEST PUSH1 0x0 PUSH1 0x20 DUP3 ADD SWAP1 POP DUP2 DUP2 SUB PUSH1 0x0 DUP4 ADD MSTORE PUSH2 0x2F5B DUP2 PUSH2 0x2F1F JUMP JUMPDEST SWAP1 POP SWAP2 SWAP1 POP JUMP JUMPDEST PUSH32 0x4E487B7100000000000000000000000000000000000000000000000000000000 PUSH1 0x0 MSTORE PUSH1 0x32 PUSH1 0x4 MSTORE PUSH1 0x24 PUSH1 0x0 REVERT JUMPDEST PUSH32 0x53533A2049545000000000000000000000000000000000000000000000000000 PUSH1 0x0 DUP3 ADD MSTORE POP JUMP JUMPDEST PUSH1 0x0 PUSH2 0x2FC7 PUSH1 0x7 DUP4 PUSH2 0x2C9C JUMP JUMPDEST SWAP2 POP PUSH2 0x2FD2 DUP3 PUSH2 0x2F91 JUMP JUMPDEST PUSH1 0x20 DUP3 ADD SWAP1 POP SWAP2 SWAP1 POP JUMP JUMPDEST PUSH1 0x0 PUSH1 0x20 DUP3 ADD SWAP1 POP DUP2 DUP2 SUB PUSH1 0x0 DUP4 ADD MSTORE PUSH2 0x2FF6 DUP2 PUSH2 0x2FBA JUMP JUMPDEST SWAP1 POP SWAP2 SWAP1 POP JUMP JUMPDEST PUSH32 0x4E487B7100000000000000000000000000000000000000000000000000000000 PUSH1 0x0 MSTORE PUSH1 0x41 PUSH1 0x4 MSTORE PUSH1 0x24 PUSH1 0x0 REVERT JUMPDEST PUSH32 0x53533A20494F4100000000000000000000000000000000000000000000000000 PUSH1 0x0 DUP3 ADD MSTORE POP JUMP JUMPDEST PUSH1 0x0 PUSH2 0x3062 PUSH1 0x7 DUP4 PUSH2 0x2C9C JUMP JUMPDEST SWAP2 POP PUSH2 0x306D DUP3 PUSH2 0x302C JUMP JUMPDEST PUSH1 0x20 DUP3 ADD SWAP1 POP SWAP2 SWAP1 POP JUMP JUMPDEST PUSH1 0x0 PUSH1 0x20 DUP3 ADD SWAP1 POP DUP2 DUP2 SUB PUSH1 0x0 DUP4 ADD MSTORE PUSH2 0x3091 DUP2 PUSH2 0x3055 JUMP JUMPDEST SWAP1 POP SWAP2 SWAP1 POP JUMP JUMPDEST PUSH1 0x0 PUSH1 0x60 DUP3 ADD SWAP1 POP PUSH2 0x30AD PUSH1 0x0 DUP4 ADD DUP7 PUSH2 0x2815 JUMP JUMPDEST PUSH2 0x30BA PUSH1 0x20 DUP4 ADD DUP6 PUSH2 0x2815 JUMP JUMPDEST PUSH2 0x30C7 PUSH1 0x40 DUP4 ADD DUP5 PUSH2 0x27B9 JUMP JUMPDEST SWAP5 SWAP4 POP POP POP POP JUMP JUMPDEST PUSH1 0x0 DUP2 ISZERO ISZERO SWAP1 POP SWAP2 SWAP1 POP JUMP JUMPDEST PUSH2 0x30E4 DUP2 PUSH2 0x30CF JUMP JUMPDEST DUP2 EQ PUSH2 0x30EF JUMPI PUSH1 0x0 DUP1 REVERT JUMPDEST POP JUMP JUMPDEST PUSH1 0x0 DUP2 MLOAD SWAP1 POP PUSH2 0x3101 DUP2 PUSH2 0x30DB JUMP JUMPDEST SWAP3 SWAP2 POP POP JUMP JUMPDEST PUSH1 0x0 PUSH1 0x20 DUP3 DUP5 SUB SLT ISZERO PUSH2 0x311D JUMPI PUSH2 0x311C PUSH2 0x2726 JUMP JUMPDEST JUMPDEST PUSH1 0x0 PUSH2 0x312B DUP5 DUP3 DUP6 ADD PUSH2 0x30F2 JUMP JUMPDEST SWAP2 POP POP SWAP3 SWAP2 POP POP JUMP JUMPDEST PUSH1 0x0 PUSH1 0x40 DUP3 ADD SWAP1 POP PUSH2 0x3149 PUSH1 0x0 DUP4 ADD DUP6 PUSH2 0x2815 JUMP JUMPDEST PUSH2 0x3156 PUSH1 0x20 DUP4 ADD DUP5 PUSH2 0x27B9 JUMP JUMPDEST SWAP4 SWAP3 POP POP POP JUMP JUMPDEST PUSH1 0x0 PUSH1 0x80 DUP3 ADD SWAP1 POP PUSH2 0x3172 PUSH1 0x0 DUP4 ADD DUP8 PUSH2 0x2815 JUMP JUMPDEST PUSH2 0x317F PUSH1 0x20 DUP4 ADD DUP7 PUSH2 0x2815 JUMP JUMPDEST PUSH2 0x318C PUSH1 0x40 DUP4 ADD DUP6 PUSH2 0x27B9 JUMP JUMPDEST PUSH2 0x3199 PUSH1 0x60 DUP4 ADD DUP5 PUSH2 0x27B9 JUMP JUMPDEST SWAP6 SWAP5 POP POP POP POP POP JUMP JUMPDEST PUSH32 0x53533A204E4C0000000000000000000000000000000000000000000000000000 PUSH1 0x0 DUP3 ADD MSTORE POP JUMP JUMPDEST PUSH1 0x0 PUSH2 0x31D8 PUSH1 0x6 DUP4 PUSH2 0x2C9C JUMP JUMPDEST SWAP2 POP PUSH2 0x31E3 DUP3 PUSH2 0x31A2 JUMP JUMPDEST PUSH1 0x20 DUP3 ADD SWAP1 POP SWAP2 SWAP1 POP JUMP JUMPDEST PUSH1 0x0 PUSH1 0x20 DUP3 ADD SWAP1 POP DUP2 DUP2 SUB PUSH1 0x0 DUP4 ADD MSTORE PUSH2 0x3207 DUP2 PUSH2 0x31CB JUMP JUMPDEST SWAP1 POP SWAP2 SWAP1 POP JUMP JUMPDEST PUSH32 0x53533A2049414100000000000000000000000000000000000000000000000000 PUSH1 0x0 DUP3 ADD MSTORE POP JUMP JUMPDEST PUSH1 0x0 PUSH2 0x3244 PUSH1 0x7 DUP4 PUSH2 0x2C9C JUMP JUMPDEST SWAP2 POP PUSH2 0x324F DUP3 PUSH2 0x320E JUMP JUMPDEST PUSH1 0x20 DUP3 ADD SWAP1 POP SWAP2 SWAP1 POP JUMP JUMPDEST PUSH1 0x0 PUSH1 0x20 DUP3 ADD SWAP1 POP DUP2 DUP2 SUB PUSH1 0x0 DUP4 ADD MSTORE PUSH2 0x3273 DUP2 PUSH2 0x3237 JUMP JUMPDEST SWAP1 POP SWAP2 SWAP1 POP JUMP JUMPDEST PUSH32 0x53533A2049424100000000000000000000000000000000000000000000000000 PUSH1 0x0 DUP3 ADD MSTORE POP JUMP JUMPDEST PUSH1 0x0 PUSH2 0x32B0 PUSH1 0x7 DUP4 PUSH2 0x2C9C JUMP JUMPDEST SWAP2 POP PUSH2 0x32BB DUP3 PUSH2 0x327A JUMP JUMPDEST PUSH1 0x20 DUP3 ADD SWAP1 POP SWAP2 SWAP1 POP JUMP JUMPDEST PUSH1 0x0 PUSH1 0x20 DUP3 ADD SWAP1 POP DUP2 DUP2 SUB PUSH1 0x0 DUP4 ADD MSTORE PUSH2 0x32DF DUP2 PUSH2 0x32A3 JUMP JUMPDEST SWAP1 POP SWAP2 SWAP1 POP JUMP JUMPDEST PUSH1 0x0 PUSH2 0x32F1 DUP3 PUSH2 0x2730 JUMP JUMPDEST SWAP2 POP PUSH2 0x32FC DUP4 PUSH2 0x2730 JUMP JUMPDEST SWAP3 POP DUP3 DUP3 SUB SWAP1 POP DUP2 DUP2 GT ISZERO PUSH2 0x3314 JUMPI PUSH2 0x3313 PUSH2 0x2D85 JUMP JUMPDEST JUMPDEST SWAP3 SWAP2 POP POP JUMP JUMPDEST PUSH32 0x53533A20494C4D00000000000000000000000000000000000000000000000000 PUSH1 0x0 DUP3 ADD MSTORE POP JUMP JUMPDEST PUSH1 0x0 PUSH2 0x3350 PUSH1 0x7 DUP4 PUSH2 0x2C9C JUMP JUMPDEST SWAP2 POP PUSH2 0x335B DUP3 PUSH2 0x331A JUMP JUMPDEST PUSH1 0x20 DUP3 ADD SWAP1 POP SWAP2 SWAP1 POP JUMP JUMPDEST PUSH1 0x0 PUSH1 0x20 DUP3 ADD SWAP1 POP DUP2 DUP2 SUB PUSH1 0x0 DUP4 ADD MSTORE PUSH2 0x337F DUP2 PUSH2 0x3343 JUMP JUMPDEST SWAP1 POP SWAP2 SWAP1 POP JUMP INVALID LOG2 PUSH5 0x6970667358 0x22 SLT KECCAK256 EXTCODECOPY 0xF9 PUSH17 0x764F2BBD19ED7E36C2D38DD95C5815CF62 SWAP2 PUSH8 0x652FEEFF905E94C7 0xE SWAP8 PUSH5 0x736F6C6343 STOP ADDMOD EQ STOP CALLER "},"methodIdentifiers":{"addLiquidity(address,address,uint256,uint256,uint256,uint256,address,uint256)":"e8e33700","getAmountOut(uint256,uint256,uint256)":"054d50d4","getPrice(address,address)":"ac41865a","liquidityBalance(address)":"dd296480","removeLiquidity(address,address,uint256,uint256,uint256,address,uint256)":"baa2abde","reserveA()":"dc5fa6c5","reserveB()":"19e36f3b","sqrt(uint256)":"677342ce","swapExactTokensForTokens(uint256,uint256,address[],address,uint256)":"38ed1739","tokenA()":"0fc63d10","tokenB()":"5f64b55b","totalLiquidity()":"15770f92"}}}}}