{
  "_format": "hh-sol-artifact-1",
  "contractName": "SwapVerifier",
  "sourceName": "contracts/SwapVerifier.sol",
  "abi": [
    {
      "inputs": [
        {
          "internalType": "uint256",
          "name": "",
          "type": "uint256"
        }
      ],
      "name": "authors",
      "outputs": [
        {
          "internalType": "string",
          "name": "",
          "type": "string"
        }
      ],
      "stateMutability": "view",
      "type": "function"
    },
    {
      "inputs": [
        {
          "internalType": "address",
          "name": "swapContract",
          "type": "address"
        },
        {
          "internalType": "address",
          "name": "tokenA",
          "type": "address"
        },
        {
          "internalType": "address",
          "name": "tokenB",
          "type": "address"
        },
        {
          "internalType": "uint256",
          "name": "amountA",
          "type": "uint256"
        },
        {
          "internalType": "uint256",
          "name": "amountB",
          "type": "uint256"
        },
        {
          "internalType": "uint256",
          "name": "amountIn",
          "type": "uint256"
        },
        {
          "internalType": "string",
          "name": "author",
          "type": "string"
        }
      ],
      "name": "verify",
      "outputs": [],
      "stateMutability": "nonpayable",
      "type": "function"
    }
  ],
  "bytecode": "0x608060405234801561001057600080fd5b50610f4d806100206000396000f3fe608060405234801561001057600080fd5b50600436106100365760003560e01c80633db804da1461003b578063457b8b9114610064575b600080fd5b61004e610049366004610ab2565b610079565b60405161005b9190610acb565b60405180910390f35b610077610072366004610b4b565b610125565b005b6000818154811061008957600080fd5b9060005260206000200160009150905080546100a490610c4b565b80601f01602080910402602001604051908101604052809291908181526020018280546100d090610c4b565b801561011d5780601f106100f25761010080835404028352916020019161011d565b820191906000526020600020905b81548152906001019060200180831161010057829003601f168201915b505050505081565b6000841180156101355750600083115b6101865760405162461bcd60e51b815260206004820152601960248201527f496e76616c6964206c697175696469747920616d6f756e74730000000000000060448201526064015b60405180910390fd5b6000821180156101965750838211155b6101d85760405162461bcd60e51b8152602060048201526013602482015272125b9d985b1a59081cddd85c08185b5bdd5b9d606a1b604482015260640161017d565b6040516370a0823160e01b815230600482015284906001600160a01b038816906370a0823190602401602060405180830381865afa15801561021e573d6000803e3d6000fd5b505050506040513d601f19601f820116820180604052508101906102429190610c85565b10156102a55760405162461bcd60e51b815260206004820152602c60248201527f496e73756666696369656e7420746f6b656e204120737570706c7920666f722060448201526b1d1a1a5cc818dbdb9d1858dd60a21b606482015260840161017d565b6040516370a0823160e01b815230600482015283906001600160a01b038716906370a0823190602401602060405180830381865afa1580156102eb573d6000803e3d6000fd5b505050506040513d601f19601f8201168201806040525081019061030f9190610c85565b10156103725760405162461bcd60e51b815260206004820152602c60248201527f496e73756666696369656e7420746f6b656e204220737570706c7920666f722060448201526b1d1a1a5cc818dbdb9d1858dd60a21b606482015260840161017d565b60405163095ea7b360e01b81526001600160a01b0388811660048301526024820186905287169063095ea7b3906044016020604051808303816000875af11580156103c1573d6000803e3d6000fd5b505050506040513d601f19601f820116820180604052508101906103e59190610c9e565b5060405163095ea7b360e01b81526001600160a01b0388811660048301526024820185905286169063095ea7b3906044016020604051808303816000875af1158015610435573d6000803e3d6000fd5b505050506040513d601f19601f820116820180604052508101906104599190610c9e565b50600080806001600160a01b038a1663e8e337008a8a8a8a81813061047f426001610cdd565b60405160e08a901b6001600160e01b03191681526001600160a01b039889166004820152968816602488015260448701959095526064860193909352608485019190915260a484015290921660c482015260e4810191909152610104016060604051808303816000875af11580156104fb573d6000803e3d6000fd5b505050506040513d601f19601f8201168201806040525081019061051f9190610cf6565b925092509250868314801561053357508582145b61057f5760405162461bcd60e51b815260206004820152601d60248201527f6164644c697175696469747920616d6f756e7473206d69736d61746368000000604482015260640161017d565b600081116105db5760405162461bcd60e51b8152602060048201526024808201527f6164644c69717569646974792072657475726e6564207a65726f206c697175696044820152636469747960e01b606482015260840161017d565b604051635620c32d60e11b81526001600160a01b038a811660048301528981166024830152600091908c169063ac41865a90604401602060405180830381865afa15801561062d573d6000803e3d6000fd5b505050506040513d601f19601f820116820180604052508101906106519190610c85565b90508361066684670de0b6b3a7640000610d24565b6106709190610d3b565b81146106b35760405162461bcd60e51b815260206004820152601260248201527119d95d141c9a58d9481a5b98dbdc9c9958dd60721b604482015260640161017d565b604051630153543560e21b81526004810187905260248101859052604481018490526000906001600160a01b038d169063054d50d490606401602060405180830381865afa158015610709573d6000803e3d6000fd5b505050506040513d601f19601f8201168201806040525081019061072d9190610c85565b60405163095ea7b360e01b81526001600160a01b038e81166004830152602482018a9052919250908c169063095ea7b3906044016020604051808303816000875af1158015610780573d6000803e3d6000fd5b505050506040513d601f19601f820116820180604052508101906107a49190610c9e565b506040805160028082526060820183526000926020830190803683370190505090508b816000815181106107da576107da610d5d565b60200260200101906001600160a01b031690816001600160a01b0316815250508a8160018151811061080e5761080e610d5d565b6001600160a01b0392831660209182029290920101528d166338ed17398984843061083a426001610cdd565b6040518663ffffffff1660e01b815260040161085a959493929190610d73565b600060405180830381600087803b15801561087457600080fd5b505af1158015610888573d6000803e3d6000fd5b50506040516370a0823160e01b81523060048201528492506001600160a01b038e1691506370a0823190602401602060405180830381865afa1580156108d2573d6000803e3d6000fd5b505050506040513d601f19601f820116820180604052508101906108f69190610c85565b10156109445760405162461bcd60e51b815260206004820152601f60248201527f737761704578616374546f6b656e73466f72546f6b656e73206661696c656400604482015260640161017d565b6000806001600160a01b038f1663baa2abde8f8f89858030610967426001610cdd565b60405160e089901b6001600160e01b03191681526001600160a01b039788166004820152958716602487015260448601949094526064850192909252608484015290921660a482015260c481019190915260e40160408051808303816000875af11580156109d9573d6000803e3d6000fd5b505050506040513d601f19601f820116820180604052508101906109fd9190610de4565b90925090506000610a0e8284610cdd565b11610a675760405162461bcd60e51b8152602060048201526024808201527f72656d6f76654c69717569646974792072657475726e6564207a65726f20746f6044820152636b656e7360e01b606482015260840161017d565b600080546001810182559080527f290decd9548b62a8d60345a988386fc84ba6bc95484008f6362f93160ef3e56301610aa08a82610e57565b50505050505050505050505050505050565b600060208284031215610ac457600080fd5b5035919050565b600060208083528351808285015260005b81811015610af857858101830151858201604001528201610adc565b506000604082860101526040601f19601f8301168501019250505092915050565b80356001600160a01b0381168114610b3057600080fd5b919050565b634e487b7160e01b600052604160045260246000fd5b600080600080600080600060e0888a031215610b6657600080fd5b610b6f88610b19565b9650610b7d60208901610b19565b9550610b8b60408901610b19565b9450606088013593506080880135925060a0880135915060c088013567ffffffffffffffff80821115610bbd57600080fd5b818a0191508a601f830112610bd157600080fd5b813581811115610be357610be3610b35565b604051601f8201601f19908116603f01168101908382118183101715610c0b57610c0b610b35565b816040528281528d6020848701011115610c2457600080fd5b82602086016020830137600060208483010152809550505050505092959891949750929550565b600181811c90821680610c5f57607f821691505b602082108103610c7f57634e487b7160e01b600052602260045260246000fd5b50919050565b600060208284031215610c9757600080fd5b5051919050565b600060208284031215610cb057600080fd5b81518015158114610cc057600080fd5b9392505050565b634e487b7160e01b600052601160045260246000fd5b80820180821115610cf057610cf0610cc7565b92915050565b600080600060608486031215610d0b57600080fd5b8351925060208401519150604084015190509250925092565b8082028115828204841417610cf057610cf0610cc7565b600082610d5857634e487b7160e01b600052601260045260246000fd5b500490565b634e487b7160e01b600052603260045260246000fd5b600060a082018783526020878185015260a0604085015281875180845260c086019150828901935060005b81811015610dc35784516001600160a01b031683529383019391830191600101610d9e565b50506001600160a01b03969096166060850152505050608001529392505050565b60008060408385031215610df757600080fd5b505080516020909101519092909150565b601f821115610e5257600081815260208120601f850160051c81016020861015610e2f5750805b601f850160051c820191505b81811015610e4e57828155600101610e3b565b5050505b505050565b815167ffffffffffffffff811115610e7157610e71610b35565b610e8581610e7f8454610c4b565b84610e08565b602080601f831160018114610eba5760008415610ea25750858301515b600019600386901b1c1916600185901b178555610e4e565b600085815260208120601f198616915b82811015610ee957888601518255948401946001909101908401610eca565b5085821015610f075787850151600019600388901b60f8161c191681555b5050505050600190811b0190555056fea264697066735822122054cc10a812714c38c48fbfa3ab2d4638d3b87661ff7083446095b2882fa90d5f64736f6c63430008140033",
  "linkReferences": {},
  "deployedLinkReferences": {}
}