{
  "_format": "hh-sol-artifact-1",
  "contractName": "SimpleSwap",
  "sourceName": "contracts/SimpleSwap.sol",
  "abi": [
    {
      "inputs": [
        {
          "internalType": "address",
          "name": "_tokenA",
          "type": "address"
        },
        {
          "internalType": "address",
          "name": "_tokenB",
          "type": "address"
        }
      ],
      "stateMutability": "nonpayable",
      "type": "constructor"
    },
    {
      "anonymous": false,
      "inputs": [
        {
          "indexed": true,
          "internalType": "address",
          "name": "provider",
          "type": "address"
        },
        {
          "indexed": true,
          "internalType": "address",
          "name": "to",
          "type": "address"
        },
        {
          "indexed": false,
          "internalType": "uint256",
          "name": "amountA",
          "type": "uint256"
        },
        {
          "indexed": false,
          "internalType": "uint256",
          "name": "amountB",
          "type": "uint256"
        },
        {
          "indexed": false,
          "internalType": "uint256",
          "name": "liquidity",
          "type": "uint256"
        }
      ],
      "name": "LiquidityAdded",
      "type": "event"
    },
    {
      "anonymous": false,
      "inputs": [
        {
          "indexed": true,
          "internalType": "address",
          "name": "provider",
          "type": "address"
        },
        {
          "indexed": true,
          "internalType": "address",
          "name": "to",
          "type": "address"
        },
        {
          "indexed": false,
          "internalType": "uint256",
          "name": "amountA",
          "type": "uint256"
        },
        {
          "indexed": false,
          "internalType": "uint256",
          "name": "amountB",
          "type": "uint256"
        },
        {
          "indexed": false,
          "internalType": "uint256",
          "name": "liquidity",
          "type": "uint256"
        }
      ],
      "name": "LiquidityRemoved",
      "type": "event"
    },
    {
      "anonymous": false,
      "inputs": [
        {
          "indexed": true,
          "internalType": "address",
          "name": "user",
          "type": "address"
        },
        {
          "indexed": false,
          "internalType": "address",
          "name": "tokenIn",
          "type": "address"
        },
        {
          "indexed": false,
          "internalType": "address",
          "name": "tokenOut",
          "type": "address"
        },
        {
          "indexed": false,
          "internalType": "uint256",
          "name": "amountIn",
          "type": "uint256"
        },
        {
          "indexed": false,
          "internalType": "uint256",
          "name": "amountOut",
          "type": "uint256"
        }
      ],
      "name": "Swap",
      "type": "event"
    },
    {
      "inputs": [
        {
          "internalType": "address",
          "name": "_tokenA",
          "type": "address"
        },
        {
          "internalType": "address",
          "name": "_tokenB",
          "type": "address"
        },
        {
          "internalType": "uint256",
          "name": "amountADesired",
          "type": "uint256"
        },
        {
          "internalType": "uint256",
          "name": "amountBDesired",
          "type": "uint256"
        },
        {
          "internalType": "uint256",
          "name": "amountAMin",
          "type": "uint256"
        },
        {
          "internalType": "uint256",
          "name": "amountBMin",
          "type": "uint256"
        },
        {
          "internalType": "address",
          "name": "to",
          "type": "address"
        },
        {
          "internalType": "uint256",
          "name": "deadline",
          "type": "uint256"
        }
      ],
      "name": "addLiquidity",
      "outputs": [
        {
          "internalType": "uint256",
          "name": "amountA",
          "type": "uint256"
        },
        {
          "internalType": "uint256",
          "name": "amountB",
          "type": "uint256"
        },
        {
          "internalType": "uint256",
          "name": "liquidity",
          "type": "uint256"
        }
      ],
      "stateMutability": "nonpayable",
      "type": "function"
    },
    {
      "inputs": [
        {
          "internalType": "uint256",
          "name": "amountIn",
          "type": "uint256"
        },
        {
          "internalType": "uint256",
          "name": "reserveIn",
          "type": "uint256"
        },
        {
          "internalType": "uint256",
          "name": "reserveOut",
          "type": "uint256"
        }
      ],
      "name": "getAmountOut",
      "outputs": [
        {
          "internalType": "uint256",
          "name": "amountOut",
          "type": "uint256"
        }
      ],
      "stateMutability": "pure",
      "type": "function"
    },
    {
      "inputs": [
        {
          "internalType": "address",
          "name": "_tokenA",
          "type": "address"
        },
        {
          "internalType": "address",
          "name": "_tokenB",
          "type": "address"
        }
      ],
      "name": "getPrice",
      "outputs": [
        {
          "internalType": "uint256",
          "name": "price",
          "type": "uint256"
        }
      ],
      "stateMutability": "view",
      "type": "function"
    },
    {
      "inputs": [
        {
          "internalType": "address",
          "name": "",
          "type": "address"
        }
      ],
      "name": "liquidityBalance",
      "outputs": [
        {
          "internalType": "uint256",
          "name": "",
          "type": "uint256"
        }
      ],
      "stateMutability": "view",
      "type": "function"
    },
    {
      "inputs": [
        {
          "internalType": "address",
          "name": "_tokenA",
          "type": "address"
        },
        {
          "internalType": "address",
          "name": "_tokenB",
          "type": "address"
        },
        {
          "internalType": "uint256",
          "name": "liquidity",
          "type": "uint256"
        },
        {
          "internalType": "uint256",
          "name": "amountAMin",
          "type": "uint256"
        },
        {
          "internalType": "uint256",
          "name": "amountBMin",
          "type": "uint256"
        },
        {
          "internalType": "address",
          "name": "to",
          "type": "address"
        },
        {
          "internalType": "uint256",
          "name": "deadline",
          "type": "uint256"
        }
      ],
      "name": "removeLiquidity",
      "outputs": [
        {
          "internalType": "uint256",
          "name": "amountA",
          "type": "uint256"
        },
        {
          "internalType": "uint256",
          "name": "amountB",
          "type": "uint256"
        }
      ],
      "stateMutability": "nonpayable",
      "type": "function"
    },
    {
      "inputs": [],
      "name": "reserveA",
      "outputs": [
        {
          "internalType": "uint256",
          "name": "",
          "type": "uint256"
        }
      ],
      "stateMutability": "view",
      "type": "function"
    },
    {
      "inputs": [],
      "name": "reserveB",
      "outputs": [
        {
          "internalType": "uint256",
          "name": "",
          "type": "uint256"
        }
      ],
      "stateMutability": "view",
      "type": "function"
    },
    {
      "inputs": [
        {
          "internalType": "uint256",
          "name": "amountIn",
          "type": "uint256"
        },
        {
          "internalType": "uint256",
          "name": "amountOutMin",
          "type": "uint256"
        },
        {
          "internalType": "address[]",
          "name": "path",
          "type": "address[]"
        },
        {
          "internalType": "address",
          "name": "to",
          "type": "address"
        },
        {
          "internalType": "uint256",
          "name": "deadline",
          "type": "uint256"
        }
      ],
      "name": "swapExactTokensForTokens",
      "outputs": [
        {
          "internalType": "uint256[]",
          "name": "amounts",
          "type": "uint256[]"
        }
      ],
      "stateMutability": "nonpayable",
      "type": "function"
    },
    {
      "inputs": [],
      "name": "tokenA",
      "outputs": [
        {
          "internalType": "address",
          "name": "",
          "type": "address"
        }
      ],
      "stateMutability": "view",
      "type": "function"
    },
    {
      "inputs": [],
      "name": "tokenB",
      "outputs": [
        {
          "internalType": "address",
          "name": "",
          "type": "address"
        }
      ],
      "stateMutability": "view",
      "type": "function"
    },
    {
      "inputs": [],
      "name": "totalLiquidity",
      "outputs": [
        {
          "internalType": "uint256",
          "name": "",
          "type": "uint256"
        }
      ],
      "stateMutability": "view",
      "type": "function"
    }
  ],
  "bytecode": "0x60c060405234801561001057600080fd5b506040516200172a3803806200172a83398101604081905261003191610064565b6001600160a01b039182166080521660a052610097565b80516001600160a01b038116811461005f57600080fd5b919050565b6000806040838503121561007757600080fd5b61008083610048565b915061008e60208401610048565b90509250929050565b60805160a0516115fe6200012c6000396000818161014a01528181610373015281816103d60152818161096801528181610a8a01528181610cc401528181610df20152610f1601526000818160d90152818161031001528181610439015281816104fb015281816105e70152818161092c01528181610a4e01528181610c3001528181610db60152610e7e01526115fe6000f3fe608060405234801561001057600080fd5b50600436106100a95760003560e01c80635f64b55b116100715780635f64b55b14610145578063ac41865a1461016c578063baa2abde1461017f578063dc5fa6c5146101a7578063dd296480146101b0578063e8e33700146101d057600080fd5b8063054d50d4146100ae5780630fc63d10146100d457806315770f921461011357806319e36f3b1461011c57806338ed173914610125575b600080fd5b6100c16100bc36600461127e565b6101fe565b6040519081526020015b60405180910390f35b6100fb7f000000000000000000000000000000000000000000000000000000000000000081565b6040516001600160a01b0390911681526020016100cb565b6100c160025481565b6100c160015481565b6101386101333660046112c1565b6102b3565b6040516100cb9190611363565b6100fb7f000000000000000000000000000000000000000000000000000000000000000081565b6100c161017a3660046113a7565b610928565b61019261018d3660046113da565b610a29565b604080519283526020830191909152016100cb565b6100c160005481565b6100c16101be366004611444565b60036020526000908152604090205481565b6101e36101de36600461145f565b610d8f565b604080519384526020840192909252908201526060016100cb565b600080841161023e5760405162461bcd60e51b815260206004820152600760248201526653533a2049494160c81b60448201526064015b60405180910390fd5b60008311801561024e5750600082115b6102835760405162461bcd60e51b815260206004820152600660248201526514d4ce88125360d21b6044820152606401610235565b600061028f83866114e9565b9050600061029d8686611506565b90506102a98183611519565b9695505050505050565b6060428210156102d55760405162461bcd60e51b81526004016102359061153b565b6002841461030e5760405162461bcd60e51b8152602060048201526006602482015265053533a2049560d41b6044820152606401610235565b7f00000000000000000000000000000000000000000000000000000000000000006001600160a01b03168585600081811061034b5761034b61155c565b90506020020160208101906103609190611444565b6001600160a01b03161480156103ce57507f00000000000000000000000000000000000000000000000000000000000000006001600160a01b0316858560018181106103ae576103ae61155c565b90506020020160208101906103c39190611444565b6001600160a01b0316145b8061049457507f00000000000000000000000000000000000000000000000000000000000000006001600160a01b0316858560008181106104115761041161155c565b90506020020160208101906104269190611444565b6001600160a01b031614801561049457507f00000000000000000000000000000000000000000000000000000000000000006001600160a01b0316858560018181106104745761047461155c565b90506020020160208101906104899190611444565b6001600160a01b0316145b6104b05760405162461bcd60e51b815260040161023590611572565b600054600154604080516002808252606082018352909160208301908036833701905050925088836000815181106104ea576104ea61155c565b6020026020010181815250506000807f00000000000000000000000000000000000000000000000000000000000000006001600160a01b0316898960008181106105365761053661155c565b905060200201602081019061054b9190611444565b6001600160a01b031614610560578284610563565b83835b915091506105728b83836101fe565b856001815181106105855761058561155c565b60200260200101818152505089856001815181106105a5576105a561155c565b602002602001015110156105e55760405162461bcd60e51b815260206004820152600760248201526653533a20494f4160c81b6044820152606401610235565b7f00000000000000000000000000000000000000000000000000000000000000006001600160a01b0316898960008181106106225761062261155c565b90506020020160208101906106379190611444565b6001600160a01b03160361067557838b016000558451859060019081106106605761066061155c565b602002602001015183036001819055506106a2565b8a8301600181905550846001815181106106915761069161155c565b602002602001015184036000819055505b888860008181106106b5576106b561155c565b90506020020160208101906106ca9190611444565b6001600160a01b03166323b872dd3330886000815181106106ed576106ed61155c565b60209081029190910101516040516001600160e01b031960e086901b1681526001600160a01b03938416600482015292909116602483015260448201526064016020604051808303816000875af115801561074c573d6000803e3d6000fd5b505050506040513d601f19601f820116820180604052508101906107709190611593565b50888860018181106107845761078461155c565b90506020020160208101906107999190611444565b6001600160a01b031663a9059cbb88876001815181106107bb576107bb61155c565b60200260200101516040518363ffffffff1660e01b81526004016107f49291906001600160a01b03929092168252602082015260400190565b6020604051808303816000875af1158015610813573d6000803e3d6000fd5b505050506040513d601f19601f820116820180604052508101906108379190611593565b50337fcd3829a3813dc3cdd188fd3d01dcf3268c16be2fdd2dd21d0665418816e460628a8a60008161086b5761086b61155c565b90506020020160208101906108809190611444565b8b8b60018181106108935761089361155c565b90506020020160208101906108a89190611444565b886000815181106108bb576108bb61155c565b6020026020010151896001815181106108d6576108d661155c565b602002602001015160405161091294939291906001600160a01b0394851681529290931660208301526040820152606081019190915260800190565b60405180910390a2505050509695505050505050565b60007f00000000000000000000000000000000000000000000000000000000000000006001600160a01b0316836001600160a01b031614801561099c57507f00000000000000000000000000000000000000000000000000000000000000006001600160a01b0316826001600160a01b0316145b6109b85760405162461bcd60e51b815260040161023590611572565b600080541180156109cb57506000600154115b610a005760405162461bcd60e51b815260206004820152600660248201526514d4ce88139360d21b6044820152606401610235565b600054600154610a1890670de0b6b3a76400006114e9565b610a229190611519565b9392505050565b60008042831015610a4c5760405162461bcd60e51b81526004016102359061153b565b7f00000000000000000000000000000000000000000000000000000000000000006001600160a01b0316896001600160a01b0316148015610abe57507f00000000000000000000000000000000000000000000000000000000000000006001600160a01b0316886001600160a01b0316145b610ada5760405162461bcd60e51b815260040161023590611572565b33600090815260036020526040902054871115610b225760405162461bcd60e51b815260206004820152600660248201526514d4ce88125360d21b6044820152606401610235565b60005460015460025480610b36848c6114e9565b610b409190611519565b945080610b4d838c6114e9565b610b579190611519565b935088851015610b935760405162461bcd60e51b815260206004820152600760248201526653533a2049414160c81b6044820152606401610235565b87841015610bcd5760405162461bcd60e51b815260206004820152600760248201526653533a2049424160c81b6044820152606401610235565b848303600055838203600155610be38a826115b5565b60025533600090815260036020526040812080548c9290610c059084906115b5565b909155505060405163a9059cbb60e01b81526001600160a01b038881166004830152602482018790527f0000000000000000000000000000000000000000000000000000000000000000169063a9059cbb906044016020604051808303816000875af1158015610c79573d6000803e3d6000fd5b505050506040513d601f19601f82011682018060405250810190610c9d9190611593565b5060405163a9059cbb60e01b81526001600160a01b038881166004830152602482018690527f0000000000000000000000000000000000000000000000000000000000000000169063a9059cbb906044016020604051808303816000875af1158015610d0d573d6000803e3d6000fd5b505050506040513d601f19601f82011682018060405250810190610d319190611593565b5060408051868152602081018690529081018b90526001600160a01b0388169033907fbc7d19d505c7ec4db83f3b51f19fb98c4c8a99922e7839d1ee608dfbee29501b9060600160405180910390a350505097509795505050505050565b600080600042841015610db45760405162461bcd60e51b81526004016102359061153b565b7f00000000000000000000000000000000000000000000000000000000000000006001600160a01b03168b6001600160a01b0316148015610e2657507f00000000000000000000000000000000000000000000000000000000000000006001600160a01b03168a6001600160a01b0316145b610e425760405162461bcd60e51b815260040161023590611572565b600054600154600254610e578c8c8c8c611128565b6040516323b872dd60e01b81523360048201523060248201526044810183905291975095507f00000000000000000000000000000000000000000000000000000000000000006001600160a01b0316906323b872dd906064016020604051808303816000875af1158015610ecf573d6000803e3d6000fd5b505050506040513d601f19601f82011682018060405250810190610ef39190611593565b506040516323b872dd60e01b8152336004820152306024820152604481018690527f00000000000000000000000000000000000000000000000000000000000000006001600160a01b0316906323b872dd906064016020604051808303816000875af1158015610f67573d6000803e3d6000fd5b505050506040513d601f19601f82011682018060405250810190610f8b9190611593565b5080600003610fe8576103e8610fa9610fa487896114e9565b61120e565b610fb391906115b5565b6000805260036020526103e87f3617319a054d772f909f7c479a2cebe5066e836a939412e32403c99029b92eff559350611049565b81610ff382876114e9565b610ffd9190611519565b8361100883896114e9565b6110129190611519565b10611031578161102282876114e9565b61102c9190611519565b611046565b8261103c82886114e9565b6110469190611519565b93505b600084116110835760405162461bcd60e51b815260206004820152600760248201526653533a20494c4d60c81b6044820152606401610235565b8286016000558185016001556110998482611506565b6002556001600160a01b038816600090815260036020526040812080548692906110c4908490611506565b909155505060408051878152602081018790529081018590526001600160a01b0389169033907f4a1a2a6176e9646d9e3157f7c2ab3c499f18337c0b0828cfb28e0a61de4a11f79060600160405180910390a3505050985098509895505050505050565b600080546001548291908115801561113e575080155b1561114e57879350869250611203565b81611159828a6114e9565b6111639190611519565b92508683116111ae57848310156111a65760405162461bcd60e51b815260206004820152600760248201526653533a2049424160c81b6044820152606401610235565b879350611203565b806111b983896114e9565b6111c39190611519565b9350858410156111ff5760405162461bcd60e51b815260206004820152600760248201526653533a2049414160c81b6044820152606401610235565b8692505b505094509492505050565b6000600382111561126f5750806000611228600283611519565b611233906001611506565b90505b818110156112695790508060028161124e8186611519565b6112589190611506565b6112629190611519565b9050611236565b50919050565b8115611279575060015b919050565b60008060006060848603121561129357600080fd5b505081359360208301359350604090920135919050565b80356001600160a01b038116811461127957600080fd5b60008060008060008060a087890312156112da57600080fd5b8635955060208701359450604087013567ffffffffffffffff8082111561130057600080fd5b818901915089601f83011261131457600080fd5b81358181111561132357600080fd5b8a60208260051b850101111561133857600080fd5b602083019650809550505050611350606088016112aa565b9150608087013590509295509295509295565b6020808252825182820181905260009190848201906040850190845b8181101561139b5783518352928401929184019160010161137f565b50909695505050505050565b600080604083850312156113ba57600080fd5b6113c3836112aa565b91506113d1602084016112aa565b90509250929050565b600080600080600080600060e0888a0312156113f557600080fd5b6113fe886112aa565b965061140c602089016112aa565b955060408801359450606088013593506080880135925061142f60a089016112aa565b915060c0880135905092959891949750929550565b60006020828403121561145657600080fd5b610a22826112aa565b600080600080600080600080610100898b03121561147c57600080fd5b611485896112aa565b975061149360208a016112aa565b965060408901359550606089013594506080890135935060a089013592506114bd60c08a016112aa565b915060e089013590509295985092959890939650565b634e487b7160e01b600052601160045260246000fd5b8082028115828204841417611500576115006114d3565b92915050565b80820180821115611500576115006114d3565b60008261153657634e487b7160e01b600052601260045260246000fd5b500490565b602080825260079082015266053533a204558560cc1b604082015260600190565b634e487b7160e01b600052603260045260246000fd5b602080825260079082015266053533a204954560cc1b604082015260600190565b6000602082840312156115a557600080fd5b81518015158114610a2257600080fd5b81810381811115611500576115006114d356fea26469706673582212203425e8d36230747aa8bdd8b148d2cdf2322824c13fbf95aaedb881f7d0f0cee664736f6c63430008140033",
  "linkReferences": {},
  "deployedLinkReferences": {}
}