{
  "_format": "hh-sol-artifact-1",
  "contractName": "SimpleSwap",
  "sourceName": "contracts/SimpleSwap.sol",
  "abi": [
    {
      "inputs": [
        {
          "internalType": "address",
          "name": "_tokenA",
          "type": "address"
        },
        {
          "internalType": "address",
          "name": "_tokenB",
          "type": "address"
        }
      ],
      "stateMutability": "nonpayable",
      "type": "constructor"
    },
    {
      "anonymous": false,
      "inputs": [
        {
          "indexed": true,
          "internalType": "address",
          "name": "provider",
          "type": "address"
        },
        {
          "indexed": true,
          "internalType": "address",
          "name": "to",
          "type": "address"
        },
        {
          "indexed": false,
          "internalType": "uint256",
          "name": "amountA",
          "type": "uint256"
        },
        {
          "indexed": false,
          "internalType": "uint256",
          "name": "amountB",
          "type": "uint256"
        },
        {
          "indexed": false,
          "internalType": "uint256",
          "name": "liquidity",
          "type": "uint256"
        }
      ],
      "name": "LiquidityAdded",
      "type": "event"
    },
    {
      "anonymous": false,
      "inputs": [
        {
          "indexed": true,
          "internalType": "address",
          "name": "provider",
          "type": "address"
        },
        {
          "indexed": true,
          "internalType": "address",
          "name": "to",
          "type": "address"
        },
        {
          "indexed": false,
          "internalType": "uint256",
          "name": "amountA",
          "type": "uint256"
        },
        {
          "indexed": false,
          "internalType": "uint256",
          "name": "amountB",
          "type": "uint256"
        },
        {
          "indexed": false,
          "internalType": "uint256",
          "name": "liquidity",
          "type": "uint256"
        }
      ],
      "name": "LiquidityRemoved",
      "type": "event"
    },
    {
      "anonymous": false,
      "inputs": [
        {
          "indexed": true,
          "internalType": "address",
          "name": "user",
          "type": "address"
        },
        {
          "indexed": false,
          "internalType": "address",
          "name": "tokenIn",
          "type": "address"
        },
        {
          "indexed": false,
          "internalType": "address",
          "name": "tokenOut",
          "type": "address"
        },
        {
          "indexed": false,
          "internalType": "uint256",
          "name": "amountIn",
          "type": "uint256"
        },
        {
          "indexed": false,
          "internalType": "uint256",
          "name": "amountOut",
          "type": "uint256"
        }
      ],
      "name": "Swap",
      "type": "event"
    },
    {
      "inputs": [
        {
          "internalType": "address",
          "name": "_tokenA",
          "type": "address"
        },
        {
          "internalType": "address",
          "name": "_tokenB",
          "type": "address"
        },
        {
          "internalType": "uint256",
          "name": "amountADesired",
          "type": "uint256"
        },
        {
          "internalType": "uint256",
          "name": "amountBDesired",
          "type": "uint256"
        },
        {
          "internalType": "uint256",
          "name": "amountAMin",
          "type": "uint256"
        },
        {
          "internalType": "uint256",
          "name": "amountBMin",
          "type": "uint256"
        },
        {
          "internalType": "address",
          "name": "to",
          "type": "address"
        },
        {
          "internalType": "uint256",
          "name": "deadline",
          "type": "uint256"
        }
      ],
      "name": "addLiquidity",
      "outputs": [
        {
          "internalType": "uint256",
          "name": "amountA",
          "type": "uint256"
        },
        {
          "internalType": "uint256",
          "name": "amountB",
          "type": "uint256"
        },
        {
          "internalType": "uint256",
          "name": "liquidity",
          "type": "uint256"
        }
      ],
      "stateMutability": "nonpayable",
      "type": "function"
    },
    {
      "inputs": [
        {
          "internalType": "uint256",
          "name": "amountIn",
          "type": "uint256"
        },
        {
          "internalType": "uint256",
          "name": "reserveIn",
          "type": "uint256"
        },
        {
          "internalType": "uint256",
          "name": "reserveOut",
          "type": "uint256"
        }
      ],
      "name": "getAmountOut",
      "outputs": [
        {
          "internalType": "uint256",
          "name": "amountOut",
          "type": "uint256"
        }
      ],
      "stateMutability": "pure",
      "type": "function"
    },
    {
      "inputs": [
        {
          "internalType": "address",
          "name": "_tokenA",
          "type": "address"
        },
        {
          "internalType": "address",
          "name": "_tokenB",
          "type": "address"
        }
      ],
      "name": "getPrice",
      "outputs": [
        {
          "internalType": "uint256",
          "name": "price",
          "type": "uint256"
        }
      ],
      "stateMutability": "view",
      "type": "function"
    },
    {
      "inputs": [
        {
          "internalType": "address",
          "name": "",
          "type": "address"
        }
      ],
      "name": "liquidityBalance",
      "outputs": [
        {
          "internalType": "uint256",
          "name": "",
          "type": "uint256"
        }
      ],
      "stateMutability": "view",
      "type": "function"
    },
    {
      "inputs": [
        {
          "internalType": "address",
          "name": "_tokenA",
          "type": "address"
        },
        {
          "internalType": "address",
          "name": "_tokenB",
          "type": "address"
        },
        {
          "internalType": "uint256",
          "name": "liquidity",
          "type": "uint256"
        },
        {
          "internalType": "uint256",
          "name": "amountAMin",
          "type": "uint256"
        },
        {
          "internalType": "uint256",
          "name": "amountBMin",
          "type": "uint256"
        },
        {
          "internalType": "address",
          "name": "to",
          "type": "address"
        },
        {
          "internalType": "uint256",
          "name": "deadline",
          "type": "uint256"
        }
      ],
      "name": "removeLiquidity",
      "outputs": [
        {
          "internalType": "uint256",
          "name": "amountA",
          "type": "uint256"
        },
        {
          "internalType": "uint256",
          "name": "amountB",
          "type": "uint256"
        }
      ],
      "stateMutability": "nonpayable",
      "type": "function"
    },
    {
      "inputs": [],
      "name": "reserveA",
      "outputs": [
        {
          "internalType": "uint256",
          "name": "",
          "type": "uint256"
        }
      ],
      "stateMutability": "view",
      "type": "function"
    },
    {
      "inputs": [],
      "name": "reserveB",
      "outputs": [
        {
          "internalType": "uint256",
          "name": "",
          "type": "uint256"
        }
      ],
      "stateMutability": "view",
      "type": "function"
    },
    {
      "inputs": [
        {
          "internalType": "uint256",
          "name": "y",
          "type": "uint256"
        }
      ],
      "name": "sqrt",
      "outputs": [
        {
          "internalType": "uint256",
          "name": "z",
          "type": "uint256"
        }
      ],
      "stateMutability": "pure",
      "type": "function"
    },
    {
      "inputs": [
        {
          "internalType": "uint256",
          "name": "amountIn",
          "type": "uint256"
        },
        {
          "internalType": "uint256",
          "name": "amountOutMin",
          "type": "uint256"
        },
        {
          "internalType": "address[]",
          "name": "path",
          "type": "address[]"
        },
        {
          "internalType": "address",
          "name": "to",
          "type": "address"
        },
        {
          "internalType": "uint256",
          "name": "deadline",
          "type": "uint256"
        }
      ],
      "name": "swapExactTokensForTokens",
      "outputs": [
        {
          "internalType": "uint256[]",
          "name": "amounts",
          "type": "uint256[]"
        }
      ],
      "stateMutability": "nonpayable",
      "type": "function"
    },
    {
      "inputs": [],
      "name": "tokenA",
      "outputs": [
        {
          "internalType": "address",
          "name": "",
          "type": "address"
        }
      ],
      "stateMutability": "view",
      "type": "function"
    },
    {
      "inputs": [],
      "name": "tokenB",
      "outputs": [
        {
          "internalType": "address",
          "name": "",
          "type": "address"
        }
      ],
      "stateMutability": "view",
      "type": "function"
    },
    {
      "inputs": [],
      "name": "totalLiquidity",
      "outputs": [
        {
          "internalType": "uint256",
          "name": "",
          "type": "uint256"
        }
      ],
      "stateMutability": "view",
      "type": "function"
    }
  ],
  "bytecode": "0x60c06040523480156200001157600080fd5b506040516200360138038062003601833981810160405281019062000037919062000168565b6200005367b0ed396e50cc80ff60c01b620000fb60201b60201c565b6200006f673453c261d38baa1c60c01b620000fb60201b60201c565b8173ffffffffffffffffffffffffffffffffffffffff1660808173ffffffffffffffffffffffffffffffffffffffff1681525050620000bf670cd347e6ad8fa74560c01b620000fb60201b60201c565b8073ffffffffffffffffffffffffffffffffffffffff1660a08173ffffffffffffffffffffffffffffffffffffffff16815250505050620001af565b50565b600080fd5b600073ffffffffffffffffffffffffffffffffffffffff82169050919050565b6000620001308262000103565b9050919050565b620001428162000123565b81146200014e57600080fd5b50565b600081519050620001628162000137565b92915050565b60008060408385031215620001825762000181620000fe565b5b6000620001928582860162000151565b9250506020620001a58582860162000151565b9150509250929050565b60805160a0516133bc62000245600039600081816106b00152818161074a01528181611003015281816112b80152818161157801528181611ac601528181611d610152611fa901526000818161048701528181610632015281816107c8015281816109cd01528181610ba20152818161126201528181611522015281816119ff01528181611d0b0152611ee001526133bc6000f3fe608060405234801561001057600080fd5b50600436106100b45760003560e01c8063677342ce11610071578063677342ce14610191578063ac41865a146101c1578063baa2abde146101f1578063dc5fa6c514610222578063dd29648014610240578063e8e3370014610270576100b4565b8063054d50d4146100b95780630fc63d10146100e957806315770f921461010757806319e36f3b1461012557806338ed1739146101435780635f64b55b14610173575b600080fd5b6100d360048036038101906100ce9190612766565b6102a2565b6040516100e091906127c8565b60405180910390f35b6100f1610485565b6040516100fe9190612824565b60405180910390f35b61010f6104a9565b60405161011c91906127c8565b60405180910390f35b61012d6104af565b60405161013a91906127c8565b60405180910390f35b61015d600480360381019061015891906128d0565b6104b5565b60405161016a9190612a28565b60405180910390f35b61017b611001565b6040516101889190612824565b60405180910390f35b6101ab60048036038101906101a69190612a4a565b611025565b6040516101b891906127c8565b60405180910390f35b6101db60048036038101906101d69190612a77565b61120e565b6040516101e891906127c8565b60405180910390f35b61020b60048036038101906102069190612ab7565b61143a565b604051610219929190612b59565b60405180910390f35b61022a611c03565b60405161023791906127c8565b60405180910390f35b61025a60048036038101906102559190612b82565b611c09565b60405161026791906127c8565b60405180910390f35b61028a60048036038101906102859190612baf565b611c21565b60405161029993929190612c65565b60405180910390f35b60006102b8672668b37bcf6e8a2060c01b6123fe565b6102cc67c3fcaddda3247ea960c01b6123fe565b6102e067bb6e8fafa4330f1d60c01b6123fe565b6102f467e5080715f3f05cc960c01b6123fe565b60008411610337576040517f08c379a000000000000000000000000000000000000000000000000000000000815260040161032e90612cf9565b60405180910390fd5b61034b6781cbf4146b99a89760c01b6123fe565b61035f672d5c6175f959f8c360c01b6123fe565b61037367ef1345a7d8119c6060c01b6123fe565b61038767ee261ca1542f8cb360c01b6123fe565b6000831180156103975750600082115b6103d6576040517f08c379a00000000000000000000000000000000000000000000000000000000081526004016103cd90612d65565b60405180910390fd5b6103ea67134788682542a83f60c01b6123fe565b6103fe67efe06ef532bbf5a360c01b6123fe565b61041267e863bc742b9caad860c01b6123fe565b600082856104209190612db4565b905061043667222ac82b1c4f225160c01b6123fe565b61044a67fe9860220ebe621e60c01b6123fe565b600085856104589190612df6565b905061046e677caf38d5646a59dd60c01b6123fe565b808261047a9190612e59565b925050509392505050565b7f000000000000000000000000000000000000000000000000000000000000000081565b60025481565b60015481565b60606104cb6716ddfaf4b2612ad660c01b6123fe565b6104df676efe02be05b67a3c60c01b6123fe565b6104f367cd525a3adc935d4660c01b6123fe565b61050767bcdfe35d6eb64fbc60c01b6123fe565b4282101561054a576040517f08c379a000000000000000000000000000000000000000000000000000000000815260040161054190612ed6565b60405180910390fd5b61055e6798a1dfbc717fa22e60c01b6123fe565b610572675e6afa35b5d2999460c01b6123fe565b6105866731574bf7ef3e348360c01b6123fe565b61059a67de5dfdf4177d463160c01b6123fe565b600285859050146105e0576040517f08c379a00000000000000000000000000000000000000000000000000000000081526004016105d790612f42565b60405180910390fd5b6105f4678f441d760cd80a6f60c01b6123fe565b61060867c5de3f2f5b5d85dc60c01b6123fe565b61061c67e043dd68404b640f60c01b6123fe565b610630675ba5771e0a62fbe360c01b6123fe565b7f000000000000000000000000000000000000000000000000000000000000000073ffffffffffffffffffffffffffffffffffffffff168585600081811061067b5761067a612f62565b5b90506020020160208101906106909190612b82565b73ffffffffffffffffffffffffffffffffffffffff1614801561072657507f000000000000000000000000000000000000000000000000000000000000000073ffffffffffffffffffffffffffffffffffffffff16858560018181106106f9576106f8612f62565b5b905060200201602081019061070e9190612b82565b73ffffffffffffffffffffffffffffffffffffffff16145b801561074257506107416771fcd096269e6af660c01b612401565b5b8061085b57507f000000000000000000000000000000000000000000000000000000000000000073ffffffffffffffffffffffffffffffffffffffff168585600081811061079357610792612f62565b5b90506020020160208101906107a89190612b82565b73ffffffffffffffffffffffffffffffffffffffff1614801561083e57507f000000000000000000000000000000000000000000000000000000000000000073ffffffffffffffffffffffffffffffffffffffff168585600181811061081157610810612f62565b5b90506020020160208101906108269190612b82565b73ffffffffffffffffffffffffffffffffffffffff16145b801561085a575061085967daa4e1322f4efceb60c01b612401565b5b5b61089a576040517f08c379a000000000000000000000000000000000000000000000000000000000815260040161089190612fdd565b60405180910390fd5b6108ae67ee010973c198de9d60c01b6123fe565b6108c267cfb2002e100bfc5260c01b6123fe565b6108d667e654d31c3ba9359860c01b6123fe565b6000805490506108f0671e442d44c8a1682f60c01b6123fe565b6109046799f13e8236db573160c01b6123fe565b6000600154905061091f675d5b90b67c42d50960c01b6123fe565b600267ffffffffffffffff81111561093a57610939612ffd565b5b6040519080825280602002602001820160405280156109685781602001602082028036833780820191505090505b50925061097f67ffdbf1fbb44426df60c01b6123fe565b888360008151811061099457610993612f62565b5b6020026020010181815250506109b46783dc98ce2d23507b60c01b6123fe565b6109c867fa63b74d747ffbdf60c01b6123fe565b6000807f000000000000000000000000000000000000000000000000000000000000000073ffffffffffffffffffffffffffffffffffffffff1689896000818110610a1657610a15612f62565b5b9050602002016020810190610a2b9190612b82565b73ffffffffffffffffffffffffffffffffffffffff161480610a5d5750610a5c67b0c298b73e52273160c01b61240c565b5b8015610a795750610a786787aa3ff03d6f979460c01b612401565b5b610a84578284610a87565b83835b91509150610a9f67d97554272edb9d6a60c01b6123fe565b610aaa8b83836102a2565b85600181518110610abe57610abd612f62565b5b602002602001018181525050610ade677edb404bf9c46d0660c01b6123fe565b610af267920a8b7d705afc0b60c01b6123fe565b610b0667d59d7c29d92dda5860c01b6123fe565b8985600181518110610b1b57610b1a612f62565b5b60200260200101511015610b64576040517f08c379a0000000000000000000000000000000000000000000000000000000008152600401610b5b90613078565b60405180910390fd5b610b78677a9f2a4425bd2e7d60c01b6123fe565b610b8c67d1384e4009f3cea660c01b6123fe565b610ba0677689a344f939942f60c01b6123fe565b7f000000000000000000000000000000000000000000000000000000000000000073ffffffffffffffffffffffffffffffffffffffff1689896000818110610beb57610bea612f62565b5b9050602002016020810190610c009190612b82565b73ffffffffffffffffffffffffffffffffffffffff1603610c9d57610c2f674082349b11c00b5e60c01b6123fe565b610c43670b5a0a6c4e9d7ea460c01b6123fe565b610c5767c0b2f47de7a8b99b60c01b6123fe565b8a8401600081905550610c7467c1d4fadb722bda1460c01b6123fe565b84600181518110610c8857610c87612f62565b5b60200260200101518303600181905550610d1b565b610cb1670a0cd52c8ebf74a660c01b6123fe565b610cc5674121e2d2b516b92660c01b6123fe565b610cd967b1d830afc856f69560c01b6123fe565b8a8301600181905550610cf6672afd675abc8594f160c01b6123fe565b84600181518110610d0a57610d09612f62565b5b602002602001015184036000819055505b610d2f67555e1ea55394fa9060c01b6123fe565b610d4367f91d216415c4bb5560c01b6123fe565b88886000818110610d5757610d56612f62565b5b9050602002016020810190610d6c9190612b82565b73ffffffffffffffffffffffffffffffffffffffff166323b872dd333088600081518110610d9d57610d9c612f62565b5b60200260200101516040518463ffffffff1660e01b8152600401610dc393929190613098565b6020604051808303816000875af1158015610de2573d6000803e3d6000fd5b505050506040513d601f19601f82011682018060405250810190610e069190613107565b50610e1b679a59d75dd695771a60c01b6123fe565b610e2f67a083bfb91025d72360c01b6123fe565b88886001818110610e4357610e42612f62565b5b9050602002016020810190610e589190612b82565b73ffffffffffffffffffffffffffffffffffffffff1663a9059cbb8887600181518110610e8857610e87612f62565b5b60200260200101516040518363ffffffff1660e01b8152600401610ead929190613134565b6020604051808303816000875af1158015610ecc573d6000803e3d6000fd5b505050506040513d601f19601f82011682018060405250810190610ef09190613107565b50610f056785ce9d8c3549f17f60c01b6123fe565b610f196774392eab9f707ad660c01b6123fe565b3373ffffffffffffffffffffffffffffffffffffffff167fcd3829a3813dc3cdd188fd3d01dcf3268c16be2fdd2dd21d0665418816e460628a8a6000818110610f6557610f64612f62565b5b9050602002016020810190610f7a9190612b82565b8b8b6001818110610f8e57610f8d612f62565b5b9050602002016020810190610fa39190612b82565b88600081518110610fb757610fb6612f62565b5b602002602001015189600181518110610fd357610fd2612f62565b5b6020026020010151604051610feb949392919061315d565b60405180910390a2505050509695505050505050565b7f000000000000000000000000000000000000000000000000000000000000000081565b600061103b67cb89b774aa5ad3f260c01b6123fe565b61104f674304af99ed3e9e9d60c01b6123fe565b61106367cc13a20a1c913f6360c01b6123fe565b6000820361109c5761107f673e327c2cd7bacb3760c01b6123fe565b61109367ae93196e75c82a3f60c01b6123fe565b60009050611209565b6110b0670c8261bd17ba10e960c01b6123fe565b6110c46750f00931cd61ef5e60c01b6123fe565b6110d86732f05cb0a152d41c60c01b6123fe565b60038211611111576110f467275ed0d191785e4460c01b6123fe565b6111086770e94a932bd78d3d60c01b6123fe565b60019050611209565b611125677473fe6271831ff960c01b6123fe565b61113967063615ddb40e544460c01b6123fe565b819050611150674e9b51bba8a7fb1960c01b6123fe565b611164677e78457ff22119a160c01b6123fe565b600060016002846111759190612e59565b61117f9190612df6565b9050611195679cf4d0e5336385f960c01b6123fe565b6111a96797fd6763b123cefd60c01b6123fe565b5b81811015611207576111c66719095cd23c5cafbb60c01b6123fe565b8091506111dd67430ab340676e799360c01b6123fe565b60028182856111ec9190612e59565b6111f69190612df6565b6112009190612e59565b90506111aa565b505b919050565b600061122467756c654ca4b0512260c01b6123fe565b61123867a377337fddafa45a60c01b6123fe565b61124c6762d887083a4e8ad060c01b6123fe565b61126067dc16c0465a8d2d2260c01b6123fe565b7f000000000000000000000000000000000000000000000000000000000000000073ffffffffffffffffffffffffffffffffffffffff168373ffffffffffffffffffffffffffffffffffffffff1614801561130657507f000000000000000000000000000000000000000000000000000000000000000073ffffffffffffffffffffffffffffffffffffffff168273ffffffffffffffffffffffffffffffffffffffff16145b611345576040517f08c379a000000000000000000000000000000000000000000000000000000000815260040161133c90612fdd565b60405180910390fd5b611359675038e0e70aca9d5b60c01b6123fe565b61136d672f3d587e576d3c8c60c01b6123fe565b61138167d04171ed5d8c9f6960c01b6123fe565b61139567f9df10485d698e8760c01b6123fe565b600080541180156113a857506000600154115b6113e7576040517f08c379a00000000000000000000000000000000000000000000000000000000081526004016113de906131ee565b60405180910390fd5b6113fb6776389ee6f99e37f060c01b6123fe565b61140f67cfb3a75c33f238cf60c01b6123fe565b600054670de0b6b3a76400006001546114289190612db4565b6114329190612e59565b905092915050565b60008061145167171b1b5f7b50742860c01b6123fe565b61146567e85dadcdb27dea7d60c01b6123fe565b611479671e6c620f3ad35a9f60c01b6123fe565b61148d674dd217858cd8f3f060c01b6123fe565b428310156114d0576040517f08c379a00000000000000000000000000000000000000000000000000000000081526004016114c790612ed6565b60405180910390fd5b6114e467a02500ff6109fb4560c01b6123fe565b6114f8672a8ee05db16479b560c01b6123fe565b61150c674883b3e567617a0460c01b6123fe565b61152067a3b61405f0485e7d60c01b6123fe565b7f000000000000000000000000000000000000000000000000000000000000000073ffffffffffffffffffffffffffffffffffffffff168973ffffffffffffffffffffffffffffffffffffffff161480156115c657507f000000000000000000000000000000000000000000000000000000000000000073ffffffffffffffffffffffffffffffffffffffff168873ffffffffffffffffffffffffffffffffffffffff16145b611605576040517f08c379a00000000000000000000000000000000000000000000000000000000081526004016115fc90612fdd565b60405180910390fd5b61161967679945a5871422cd60c01b6123fe565b61162d67b790959363ac80f460c01b6123fe565b6116416717cc43e08fc1252d60c01b6123fe565b61165567c7d82b17fcd834e860c01b6123fe565b86600360003373ffffffffffffffffffffffffffffffffffffffff1673ffffffffffffffffffffffffffffffffffffffff1681526020019081526020016000205410156116d7576040517f08c379a00000000000000000000000000000000000000000000000000000000081526004016116ce90612d65565b60405180910390fd5b6116eb674e6f154bd724ab7b60c01b6123fe565b6116ff678c2e5cc1164cc07260c01b6123fe565b61171367d4f71cb4503caca860c01b6123fe565b60008054905061172d67495c241e79d2f4f060c01b6123fe565b61174167ecea0908c9df741860c01b6123fe565b6000600154905061175c67709384ab0d76ab5b60c01b6123fe565b61177067d5738d34895564bc60c01b6123fe565b6000600254905061178b67ba7ef8d99b84469160c01b6123fe565b80838b6117989190612db4565b6117a29190612e59565b94506117b867f7ba5034e810f31160c01b6123fe565b80828b6117c59190612db4565b6117cf9190612e59565b93506117e56726eef342c1f11cf560c01b6123fe565b6117f967aa8503b3cb38e50f60c01b6123fe565b61180d67c7a7c7bd70b1964460c01b6123fe565b88851015611850576040517f08c379a00000000000000000000000000000000000000000000000000000000081526004016118479061325a565b60405180910390fd5b61186467937af720eea324f060c01b6123fe565b611878678854a9baf309e59260c01b6123fe565b61188c673f8b8dc6c1ae704260c01b6123fe565b6118a0679d37b79fdb52ad1c60c01b6123fe565b878410156118e3576040517f08c379a00000000000000000000000000000000000000000000000000000000081526004016118da906132c6565b60405180910390fd5b6118f767c87fbd8a7e53c7dc60c01b6123fe565b61190b671de7fd183b7c48ec60c01b6123fe565b61191f67e39da713e63cf2fc60c01b6123fe565b84830360008190555061193c6708c5100e11811fd160c01b6123fe565b83820360018190555061195967c43a172d2db4dfb060c01b6123fe565b898161196591906132e6565b60028190555061197f67b9cbb46e916ff68460c01b6123fe565b89600360003373ffffffffffffffffffffffffffffffffffffffff1673ffffffffffffffffffffffffffffffffffffffff16815260200190815260200160002060008282546119ce91906132e6565b925050819055506119e9672d8fc91550270c3460c01b6123fe565b6119fd678e05e5b27a7bd66e60c01b6123fe565b7f000000000000000000000000000000000000000000000000000000000000000073ffffffffffffffffffffffffffffffffffffffff1663a9059cbb88876040518363ffffffff1660e01b8152600401611a58929190613134565b6020604051808303816000875af1158015611a77573d6000803e3d6000fd5b505050506040513d601f19601f82011682018060405250810190611a9b9190613107565b50611ab0670afdcdf6c1644e6360c01b6123fe565b611ac46764891f8b3e44206c60c01b6123fe565b7f000000000000000000000000000000000000000000000000000000000000000073ffffffffffffffffffffffffffffffffffffffff1663a9059cbb88866040518363ffffffff1660e01b8152600401611b1f929190613134565b6020604051808303816000875af1158015611b3e573d6000803e3d6000fd5b505050506040513d601f19601f82011682018060405250810190611b629190613107565b50611b7767fe305b24c1abe2d660c01b6123fe565b611b8b6745b6ecdd706018ce60c01b6123fe565b8673ffffffffffffffffffffffffffffffffffffffff163373ffffffffffffffffffffffffffffffffffffffff167fbc7d19d505c7ec4db83f3b51f19fb98c4c8a99922e7839d1ee608dfbee29501b87878e604051611bec93929190612c65565b60405180910390a350505097509795505050505050565b60005481565b60036020528060005260406000206000915090505481565b6000806000611c3a670771a9784c2f62a060c01b6123fe565b611c4e6728917ed07d97d4c260c01b6123fe565b611c6267222bf1d3adb0a9ce60c01b6123fe565b611c76678bb9a3b3988db68f60c01b6123fe565b42841015611cb9576040517f08c379a0000000000000000000000000000000000000000000000000000000008152600401611cb090612ed6565b60405180910390fd5b611ccd67d89c575128cbc05f60c01b6123fe565b611ce167b7503f68074754e260c01b6123fe565b611cf5673ec9a3859e03292260c01b6123fe565b611d09678f5e0d5822e9c2a060c01b6123fe565b7f000000000000000000000000000000000000000000000000000000000000000073ffffffffffffffffffffffffffffffffffffffff168b73ffffffffffffffffffffffffffffffffffffffff16148015611daf57507f000000000000000000000000000000000000000000000000000000000000000073ffffffffffffffffffffffffffffffffffffffff168a73ffffffffffffffffffffffffffffffffffffffff16145b611dee576040517f08c379a0000000000000000000000000000000000000000000000000000000008152600401611de590612fdd565b60405180910390fd5b611e026717531d13ac25e0f860c01b6123fe565b611e166770465539b81e948760c01b6123fe565b611e2a6793f6c123b136b36960c01b6123fe565b600080549050611e4467479dfd21551be7c460c01b6123fe565b611e5867082d9a5456ddcb1060c01b6123fe565b60006001549050611e7367d69ecad8d67de21c60c01b6123fe565b611e876797f6c038543e5f0a60c01b6123fe565b60006002549050611ea2673325f122d196e10660c01b6123fe565b611eae8c8c8c8c612413565b8096508197505050611eca6726faa2bb09b89d5760c01b6123fe565b611ede67dac16ae2d1e92bf360c01b6123fe565b7f000000000000000000000000000000000000000000000000000000000000000073ffffffffffffffffffffffffffffffffffffffff166323b872dd3330896040518463ffffffff1660e01b8152600401611f3b93929190613098565b6020604051808303816000875af1158015611f5a573d6000803e3d6000fd5b505050506040513d601f19601f82011682018060405250810190611f7e9190613107565b50611f9367b11a98d19b57b1f960c01b6123fe565b611fa767336a2da021316a7260c01b6123fe565b7f000000000000000000000000000000000000000000000000000000000000000073ffffffffffffffffffffffffffffffffffffffff166323b872dd3330886040518463ffffffff1660e01b815260040161200493929190613098565b6020604051808303816000875af1158015612023573d6000803e3d6000fd5b505050506040513d601f19601f820116820180604052508101906120479190613107565b5061205c67565c610fea1535ba60c01b6123fe565b612070677d041685ec64c53760c01b6123fe565b600081036121225761208c674e4ed70a72a6536b60c01b6123fe565b6120a067856ca537469bc22b60c01b6123fe565b6103e86120b786886120b29190612db4565b611025565b6120c191906132e6565b93506120d76709bdb3d3ae9bc90160c01b6123fe565b6103e8600360008073ffffffffffffffffffffffffffffffffffffffff1673ffffffffffffffffffffffffffffffffffffffff168152602001908152602001600020819055506121eb565b61213667d1537b3be32ff5f660c01b6123fe565b61214a6709f9bacf651835a060c01b6123fe565b8181866121579190612db4565b6121619190612e59565b83828861216e9190612db4565b6121789190612e59565b1080612194575061219367157fac0d289498cd60c01b61240c565b5b80156121b057506121af673fd3b9c8924dfb5060c01b612401565b5b6121d0578181866121c19190612db4565b6121cb9190612e59565b6121e8565b8281876121dd9190612db4565b6121e79190612e59565b5b93505b6121ff676711f2dc01ce472060c01b6123fe565b61221367720871a94f42d5b460c01b6123fe565b61222767fb54951ccd40741c60c01b6123fe565b6000841161226a576040517f08c379a000000000000000000000000000000000000000000000000000000000815260040161226190613366565b60405180910390fd5b61227e673e06355399e9296e60c01b6123fe565b61229267697ec6aee12b4e0860c01b6123fe565b6122a667b698da80a45545fb60c01b6123fe565b8583016000819055506122c3671768f4f3cf7ecdf360c01b6123fe565b8482016001819055506122e067efe62bffab1988fb60c01b6123fe565b83816122ec9190612df6565b600281905550612306678e03a79956c3bc7460c01b6123fe565b83600360008a73ffffffffffffffffffffffffffffffffffffffff1673ffffffffffffffffffffffffffffffffffffffff16815260200190815260200160002060008282546123559190612df6565b92505081905550612370676b52fb2e2db29d2860c01b6123fe565b612384678d5e3f69587980ee60c01b6123fe565b8773ffffffffffffffffffffffffffffffffffffffff163373ffffffffffffffffffffffffffffffffffffffff167f4a1a2a6176e9646d9e3157f7c2ab3c499f18337c0b0828cfb28e0a61de4a11f78888886040516123e593929190612c65565b60405180910390a3505050985098509895505050505050565b50565b600060019050919050565b6000919050565b60008061242a67bd562e90ac4109cd60c01b6123fe565b61243e67aa3f0f7e3026345560c01b6123fe565b612452673aee116f2e59f71a60c01b6123fe565b60008054905061246c67be4c58de74568c8960c01b6123fe565b61248067c7282b99bf5d56b660c01b6123fe565b6000600154905061249b67d419ea2d1ce723da60c01b6123fe565b6124af67108bc21b413a287660c01b6123fe565b6000821480156124bf5750600081145b156124fb576124d867299086bcbf055c7560c01b6123fe565b6124ec671fe282014c59ff5260c01b6123fe565b8787809450819550505061271b565b61250f67e492a5d6bd60ebee60c01b6123fe565b61252367d88710d77684a03f60c01b6123fe565b8181896125309190612db4565b61253a9190612e59565b925061255067592ddc24d75eefe460c01b6123fe565b6125646788a2e534d1d4f89060c01b6123fe565b86831161262e5761257f67b516a2a082a5be2b60c01b6123fe565b61259367020f4915c5986efb60c01b6123fe565b6125a76784266f3a3bf0ae9b60c01b6123fe565b6125bb67f91021d80f92d6d060c01b6123fe565b848310156125fe576040517f08c379a00000000000000000000000000000000000000000000000000000000081526004016125f5906132c6565b60405180910390fd5b612612673328bbc3dc4b260960c01b6123fe565b61262667b25e826e3426d83960c01b6123fe565b87935061271a565b61264267f894ce321391131c60c01b6123fe565b612656670f9e7973da6268c360c01b6123fe565b8082886126639190612db4565b61266d9190612e59565b9350612683672fbeab5e6da6d33f60c01b6123fe565b61269767cc2167f27160366560c01b6123fe565b6126ab67ed88b78a4855eb4c60c01b6123fe565b858410156126ee576040517f08c379a00000000000000000000000000000000000000000000000000000000081526004016126e59061325a565b60405180910390fd5b61270267facf25e33d57e68160c01b6123fe565b612716678668ff0e62c02e2860c01b6123fe565b8692505b5b505094509492505050565b600080fd5b600080fd5b6000819050919050565b61274381612730565b811461274e57600080fd5b50565b6000813590506127608161273a565b92915050565b60008060006060848603121561277f5761277e612726565b5b600061278d86828701612751565b935050602061279e86828701612751565b92505060406127af86828701612751565b9150509250925092565b6127c281612730565b82525050565b60006020820190506127dd60008301846127b9565b92915050565b600073ffffffffffffffffffffffffffffffffffffffff82169050919050565b600061280e826127e3565b9050919050565b61281e81612803565b82525050565b60006020820190506128396000830184612815565b92915050565b600080fd5b600080fd5b600080fd5b60008083601f8401126128645761286361283f565b5b8235905067ffffffffffffffff81111561288157612880612844565b5b60208301915083602082028301111561289d5761289c612849565b5b9250929050565b6128ad81612803565b81146128b857600080fd5b50565b6000813590506128ca816128a4565b92915050565b60008060008060008060a087890312156128ed576128ec612726565b5b60006128fb89828a01612751565b965050602061290c89828a01612751565b955050604087013567ffffffffffffffff81111561292d5761292c61272b565b5b61293989828a0161284e565b9450945050606061294c89828a016128bb565b925050608061295d89828a01612751565b9150509295509295509295565b600081519050919050565b600082825260208201905092915050565b6000819050602082019050919050565b61299f81612730565b82525050565b60006129b18383612996565b60208301905092915050565b6000602082019050919050565b60006129d58261296a565b6129df8185612975565b93506129ea83612986565b8060005b83811015612a1b578151612a0288826129a5565b9750612a0d836129bd565b9250506001810190506129ee565b5085935050505092915050565b60006020820190508181036000830152612a4281846129ca565b905092915050565b600060208284031215612a6057612a5f612726565b5b6000612a6e84828501612751565b91505092915050565b60008060408385031215612a8e57612a8d612726565b5b6000612a9c858286016128bb565b9250506020612aad858286016128bb565b9150509250929050565b600080600080600080600060e0888a031215612ad657612ad5612726565b5b6000612ae48a828b016128bb565b9750506020612af58a828b016128bb565b9650506040612b068a828b01612751565b9550506060612b178a828b01612751565b9450506080612b288a828b01612751565b93505060a0612b398a828b016128bb565b92505060c0612b4a8a828b01612751565b91505092959891949750929550565b6000604082019050612b6e60008301856127b9565b612b7b60208301846127b9565b9392505050565b600060208284031215612b9857612b97612726565b5b6000612ba6848285016128bb565b91505092915050565b600080600080600080600080610100898b031215612bd057612bcf612726565b5b6000612bde8b828c016128bb565b9850506020612bef8b828c016128bb565b9750506040612c008b828c01612751565b9650506060612c118b828c01612751565b9550506080612c228b828c01612751565b94505060a0612c338b828c01612751565b93505060c0612c448b828c016128bb565b92505060e0612c558b828c01612751565b9150509295985092959890939650565b6000606082019050612c7a60008301866127b9565b612c8760208301856127b9565b612c9460408301846127b9565b949350505050565b600082825260208201905092915050565b7f53533a2049494100000000000000000000000000000000000000000000000000600082015250565b6000612ce3600783612c9c565b9150612cee82612cad565b602082019050919050565b60006020820190508181036000830152612d1281612cd6565b9050919050565b7f53533a20494c0000000000000000000000000000000000000000000000000000600082015250565b6000612d4f600683612c9c565b9150612d5a82612d19565b602082019050919050565b60006020820190508181036000830152612d7e81612d42565b9050919050565b7f4e487b7100000000000000000000000000000000000000000000000000000000600052601160045260246000fd5b6000612dbf82612730565b9150612dca83612730565b9250828202612dd881612730565b91508282048414831517612def57612dee612d85565b5b5092915050565b6000612e0182612730565b9150612e0c83612730565b9250828201905080821115612e2457612e23612d85565b5b92915050565b7f4e487b7100000000000000000000000000000000000000000000000000000000600052601260045260246000fd5b6000612e6482612730565b9150612e6f83612730565b925082612e7f57612e7e612e2a565b5b828204905092915050565b7f53533a2045585000000000000000000000000000000000000000000000000000600082015250565b6000612ec0600783612c9c565b9150612ecb82612e8a565b602082019050919050565b60006020820190508181036000830152612eef81612eb3565b9050919050565b7f53533a2049500000000000000000000000000000000000000000000000000000600082015250565b6000612f2c600683612c9c565b9150612f3782612ef6565b602082019050919050565b60006020820190508181036000830152612f5b81612f1f565b9050919050565b7f4e487b7100000000000000000000000000000000000000000000000000000000600052603260045260246000fd5b7f53533a2049545000000000000000000000000000000000000000000000000000600082015250565b6000612fc7600783612c9c565b9150612fd282612f91565b602082019050919050565b60006020820190508181036000830152612ff681612fba565b9050919050565b7f4e487b7100000000000000000000000000000000000000000000000000000000600052604160045260246000fd5b7f53533a20494f4100000000000000000000000000000000000000000000000000600082015250565b6000613062600783612c9c565b915061306d8261302c565b602082019050919050565b6000602082019050818103600083015261309181613055565b9050919050565b60006060820190506130ad6000830186612815565b6130ba6020830185612815565b6130c760408301846127b9565b949350505050565b60008115159050919050565b6130e4816130cf565b81146130ef57600080fd5b50565b600081519050613101816130db565b92915050565b60006020828403121561311d5761311c612726565b5b600061312b848285016130f2565b91505092915050565b60006040820190506131496000830185612815565b61315660208301846127b9565b9392505050565b60006080820190506131726000830187612815565b61317f6020830186612815565b61318c60408301856127b9565b61319960608301846127b9565b95945050505050565b7f53533a204e4c0000000000000000000000000000000000000000000000000000600082015250565b60006131d8600683612c9c565b91506131e3826131a2565b602082019050919050565b60006020820190508181036000830152613207816131cb565b9050919050565b7f53533a2049414100000000000000000000000000000000000000000000000000600082015250565b6000613244600783612c9c565b915061324f8261320e565b602082019050919050565b6000602082019050818103600083015261327381613237565b9050919050565b7f53533a2049424100000000000000000000000000000000000000000000000000600082015250565b60006132b0600783612c9c565b91506132bb8261327a565b602082019050919050565b600060208201905081810360008301526132df816132a3565b9050919050565b60006132f182612730565b91506132fc83612730565b925082820390508181111561331457613313612d85565b5b92915050565b7f53533a20494c4d00000000000000000000000000000000000000000000000000600082015250565b6000613350600783612c9c565b915061335b8261331a565b602082019050919050565b6000602082019050818103600083015261337f81613343565b905091905056fea26469706673582212203cf970764f2bbd19ed7e36c2d38dd95c5815cf629167652feeff905e94c70e9764736f6c63430008140033",
  "linkReferences": {},
  "deployedLinkReferences": {}
}